{
	"data": {
		"bytecode": {
			"linkReferences": {},
			"object": "60806040527360e6140330f8fe31e785190f39c1b5e5e833c2a96000806101000a81548173ffffffffffffffffffffffffffffffffffffffff021916908373ffffffffffffffffffffffffffffffffffffffff1602179055507f5945535f4f525f4e4f5f515545525900000000000000000000000000000000006001556040518060600160405280602c815260200162000fc7602c913960029081620000a691906200033a565b506000600355348015620000b957600080fd5b5062000421565b600081519050919050565b7f4e487b7100000000000000000000000000000000000000000000000000000000600052604160045260246000fd5b7f4e487b7100000000000000000000000000000000000000000000000000000000600052602260045260246000fd5b600060028204905060018216806200014257607f821691505b602082108103620001585762000157620000fa565b5b50919050565b60008190508160005260206000209050919050565b60006020601f8301049050919050565b600082821b905092915050565b600060088302620001c27fffffffffffffffffffffffffffffffffffffffffffffffffffffffffffffffff8262000183565b620001ce868362000183565b95508019841693508086168417925050509392505050565b6000819050919050565b6000819050919050565b60006200021b620002156200020f84620001e6565b620001f0565b620001e6565b9050919050565b6000819050919050565b6200023783620001fa565b6200024f620002468262000222565b84845462000190565b825550505050565b600090565b6200026662000257565b620002738184846200022c565b505050565b5b818110156200029b576200028f6000826200025c565b60018101905062000279565b5050565b601f821115620002ea57620002b4816200015e565b620002bf8462000173565b81016020851015620002cf578190505b620002e7620002de8562000173565b83018262000278565b50505b505050565b600082821c905092915050565b60006200030f60001984600802620002ef565b1980831691505092915050565b60006200032a8383620002fc565b9150826002028217905092915050565b6200034582620000c0565b67ffffffffffffffff811115620003615762000360620000cb565b5b6200036d825462000129565b6200037a8282856200029f565b600060209050601f831160018114620003b257600084156200039d578287015190505b620003a985826200031c565b86555062000419565b601f198416620003c2866200015e565b60005b82811015620003ec57848901518255600182019150602085019450602081019050620003c5565b868310156200040c578489015162000408601f891682620002fc565b8355505b6001600288020188555050505b505050505050565b610b9680620004316000396000f3fe608060405234801561001057600080fd5b506004361061004c5760003560e01c8063606deecd14610051578063655990571461005b578063f25ffb2014610079578063fa77615214610097575b600080fd5b6100596100a1565b005b610063610207565b6040516100709190610481565b60405180910390f35b610081610295565b60405161008e91906104bc565b60405180910390f35b61009f610347565b005b42600381905550600073e6b8a5cf854791412c1f6efc7caf629f5df1c74790506000808054906101000a900473ffffffffffffffffffffffffffffffffffffffff1673ffffffffffffffffffffffffffffffffffffffff166311df92f1600154600354600286866040518663ffffffff1660e01b8152600401610128959493929190610681565b6020604051808303816000875af1158015610147573d6000803e3d6000fd5b505050506040513d601f19601f8201168201806040525081019061016b9190610716565b5060008054906101000a900473ffffffffffffffffffffffffffffffffffffffff1673ffffffffffffffffffffffffffffffffffffffff1663473c45fe6001546003546002601e6040518563ffffffff1660e01b81526004016101d1949392919061077e565b600060405180830381600087803b1580156101eb57600080fd5b505af11580156101ff573d6000803e3d6000fd5b505050505050565b6002805461021490610538565b80601f016020809104026020016040519081016040528092919081815260200182805461024090610538565b801561028d5780601f106102625761010080835404028352916020019161028d565b820191906000526020600020905b81548152906001019060200180831161027057829003601f168201915b505050505081565b60008060009054906101000a900473ffffffffffffffffffffffffffffffffffffffff1673ffffffffffffffffffffffffffffffffffffffff1663a9904f9b3060015460035460026040518563ffffffff1660e01b81526004016102fc94939291906107eb565b61020060405180830381865afa15801561031a573d6000803e3d6000fd5b505050506040513d601f19601f8201168201806040525081019061033e9190610b32565b60c00151905090565b60008054906101000a900473ffffffffffffffffffffffffffffffffffffffff1673ffffffffffffffffffffffffffffffffffffffff16635e9a79a93060015460035460026040518563ffffffff1660e01b81526004016103ab94939291906107eb565b6020604051808303816000875af11580156103ca573d6000803e3d6000fd5b505050506040513d601f19601f820116820180604052508101906103ee9190610716565b50565b600081519050919050565b600082825260208201905092915050565b60005b8381101561042b578082015181840152602081019050610410565b60008484015250505050565b6000601f19601f8301169050919050565b6000610453826103f1565b61045d81856103fc565b935061046d81856020860161040d565b61047681610437565b840191505092915050565b6000602082019050818103600083015261049b8184610448565b905092915050565b6000819050919050565b6104b6816104a3565b82525050565b60006020820190506104d160008301846104ad565b92915050565b6000819050919050565b6104ea816104d7565b82525050565b6000819050919050565b610503816104f0565b82525050565b7f4e487b7100000000000000000000000000000000000000000000000000000000600052602260045260246000fd5b6000600282049050600182168061055057607f821691505b60208210810361056357610562610509565b5b50919050565b60008190508160005260206000209050919050565b6000815461058b81610538565b61059581866103fc565b945060018216600081146105b057600181146105c6576105f9565b60ff1983168652811515602002860193506105f9565b6105cf85610569565b60005b838110156105f1578154818901526001820191506020810190506105d2565b808801955050505b50505092915050565b600073ffffffffffffffffffffffffffffffffffffffff82169050919050565b6000819050919050565b600061064761064261063d84610602565b610622565b610602565b9050919050565b60006106598261062c565b9050919050565b600061066b8261064e565b9050919050565b61067b81610660565b82525050565b600060a08201905061069660008301886104e1565b6106a360208301876104fa565b81810360408301526106b5818661057e565b90506106c46060830185610672565b6106d160808301846104fa565b9695505050505050565b6000604051905090565b600080fd5b6106f3816104f0565b81146106fe57600080fd5b50565b600081519050610710816106ea565b92915050565b60006020828403121561072c5761072b6106e5565b5b600061073a84828501610701565b91505092915050565b6000819050919050565b600061076861076361075e84610743565b610622565b6104f0565b9050919050565b6107788161074d565b82525050565b600060808201905061079360008301876104e1565b6107a060208301866104fa565b81810360408301526107b2818561057e565b90506107c1606083018461076f565b95945050505050565b60006107d582610602565b9050919050565b6107e5816107ca565b82525050565b600060808201905061080060008301876107dc565b61080d60208301866104e1565b61081a60408301856104fa565b818103606083015261082c818461057e565b905095945050505050565b600080fd5b7f4e487b7100000000000000000000000000000000000000000000000000000000600052604160045260246000fd5b61087482610437565b810181811067ffffffffffffffff821117156108935761089261083c565b5b80604052505050565b60006108a66106db565b90506108b2828261086b565b919050565b6108c0816107ca565b81146108cb57600080fd5b50565b6000815190506108dd816108b7565b92915050565b60006108ee826107ca565b9050919050565b6108fe816108e3565b811461090957600080fd5b50565b60008151905061091b816108f5565b92915050565b60008115159050919050565b61093681610921565b811461094157600080fd5b50565b6000815190506109538161092d565b92915050565b600060e0828403121561096f5761096e610837565b5b61097960e061089c565b9050600061098984828501610944565b600083015250602061099d84828501610944565b60208301525060406109b184828501610944565b60408301525060606109c584828501610944565b60608301525060806109d984828501610944565b60808301525060a06109ed84828501610701565b60a08301525060c0610a0184828501610701565b60c08301525092915050565b610a16816104a3565b8114610a2157600080fd5b50565b600081519050610a3381610a0d565b92915050565b60006102008284031215610a5057610a4f610837565b5b610a5b61014061089c565b90506000610a6b848285016108ce565b6000830152506020610a7f848285016108ce565b6020830152506040610a938482850161090c565b6040830152506060610aa784828501610944565b6060830152506080610abb84828501610959565b608083015250610160610ad084828501610a24565b60a083015250610180610ae584828501610a24565b60c0830152506101a0610afa84828501610701565b60e0830152506101c0610b0f84828501610701565b610100830152506101e0610b2584828501610701565b6101208301525092915050565b60006102008284031215610b4957610b486106e5565b5b6000610b5784828501610a39565b9150509291505056fea2646970667358221220c834132b780ab9c99514e99f819d0a9bb4ade2ef70a9fa9a5ebdbad2d554cd9f64736f6c63430008100033513a57696c6c206974207261696e20746f6461793f20413a3120666f72207965732e203020666f72206e6f2e",
			"opcodes": "PUSH1 0x80 PUSH1 0x40 MSTORE PUSH20 0x60E6140330F8FE31E785190F39C1B5E5E833C2A9 PUSH1 0x0 DUP1 PUSH2 0x100 EXP DUP2 SLOAD DUP2 PUSH20 0xFFFFFFFFFFFFFFFFFFFFFFFFFFFFFFFFFFFFFFFF MUL NOT AND SWAP1 DUP4 PUSH20 0xFFFFFFFFFFFFFFFFFFFFFFFFFFFFFFFFFFFFFFFF AND MUL OR SWAP1 SSTORE POP PUSH32 0x5945535F4F525F4E4F5F51554552590000000000000000000000000000000000 PUSH1 0x1 SSTORE PUSH1 0x40 MLOAD DUP1 PUSH1 0x60 ADD PUSH1 0x40 MSTORE DUP1 PUSH1 0x2C DUP2 MSTORE PUSH1 0x20 ADD PUSH3 0xFC7 PUSH1 0x2C SWAP2 CODECOPY PUSH1 0x2 SWAP1 DUP2 PUSH3 0xA6 SWAP2 SWAP1 PUSH3 0x33A JUMP JUMPDEST POP PUSH1 0x0 PUSH1 0x3 SSTORE CALLVALUE DUP1 ISZERO PUSH3 0xB9 JUMPI PUSH1 0x0 DUP1 REVERT JUMPDEST POP PUSH3 0x421 JUMP JUMPDEST PUSH1 0x0 DUP2 MLOAD SWAP1 POP SWAP2 SWAP1 POP JUMP JUMPDEST PUSH32 0x4E487B7100000000000000000000000000000000000000000000000000000000 PUSH1 0x0 MSTORE PUSH1 0x41 PUSH1 0x4 MSTORE PUSH1 0x24 PUSH1 0x0 REVERT JUMPDEST PUSH32 0x4E487B7100000000000000000000000000000000000000000000000000000000 PUSH1 0x0 MSTORE PUSH1 0x22 PUSH1 0x4 MSTORE PUSH1 0x24 PUSH1 0x0 REVERT JUMPDEST PUSH1 0x0 PUSH1 0x2 DUP3 DIV SWAP1 POP PUSH1 0x1 DUP3 AND DUP1 PUSH3 0x142 JUMPI PUSH1 0x7F DUP3 AND SWAP2 POP JUMPDEST PUSH1 0x20 DUP3 LT DUP2 SUB PUSH3 0x158 JUMPI PUSH3 0x157 PUSH3 0xFA JUMP JUMPDEST JUMPDEST POP SWAP2 SWAP1 POP JUMP JUMPDEST PUSH1 0x0 DUP2 SWAP1 POP DUP2 PUSH1 0x0 MSTORE PUSH1 0x20 PUSH1 0x0 KECCAK256 SWAP1 POP SWAP2 SWAP1 POP JUMP JUMPDEST PUSH1 0x0 PUSH1 0x20 PUSH1 0x1F DUP4 ADD DIV SWAP1 POP SWAP2 SWAP1 POP JUMP JUMPDEST PUSH1 0x0 DUP3 DUP3 SHL SWAP1 POP SWAP3 SWAP2 POP POP JUMP JUMPDEST PUSH1 0x0 PUSH1 0x8 DUP4 MUL PUSH3 0x1C2 PUSH32 0xFFFFFFFFFFFFFFFFFFFFFFFFFFFFFFFFFFFFFFFFFFFFFFFFFFFFFFFFFFFFFFFF DUP3 PUSH3 0x183 JUMP JUMPDEST PUSH3 0x1CE DUP7 DUP4 PUSH3 0x183 JUMP JUMPDEST SWAP6 POP DUP1 NOT DUP5 AND SWAP4 POP DUP1 DUP7 AND DUP5 OR SWAP3 POP POP POP SWAP4 SWAP3 POP POP POP JUMP JUMPDEST PUSH1 0x0 DUP2 SWAP1 POP SWAP2 SWAP1 POP JUMP JUMPDEST PUSH1 0x0 DUP2 SWAP1 POP SWAP2 SWAP1 POP JUMP JUMPDEST PUSH1 0x0 PUSH3 0x21B PUSH3 0x215 PUSH3 0x20F DUP5 PUSH3 0x1E6 JUMP JUMPDEST PUSH3 0x1F0 JUMP JUMPDEST PUSH3 0x1E6 JUMP JUMPDEST SWAP1 POP SWAP2 SWAP1 POP JUMP JUMPDEST PUSH1 0x0 DUP2 SWAP1 POP SWAP2 SWAP1 POP JUMP JUMPDEST PUSH3 0x237 DUP4 PUSH3 0x1FA JUMP JUMPDEST PUSH3 0x24F PUSH3 0x246 DUP3 PUSH3 0x222 JUMP JUMPDEST DUP5 DUP5 SLOAD PUSH3 0x190 JUMP JUMPDEST DUP3 SSTORE POP POP POP POP JUMP JUMPDEST PUSH1 0x0 SWAP1 JUMP JUMPDEST PUSH3 0x266 PUSH3 0x257 JUMP JUMPDEST PUSH3 0x273 DUP2 DUP5 DUP5 PUSH3 0x22C JUMP JUMPDEST POP POP POP JUMP JUMPDEST JUMPDEST DUP2 DUP2 LT ISZERO PUSH3 0x29B JUMPI PUSH3 0x28F PUSH1 0x0 DUP3 PUSH3 0x25C JUMP JUMPDEST PUSH1 0x1 DUP2 ADD SWAP1 POP PUSH3 0x279 JUMP JUMPDEST POP POP JUMP JUMPDEST PUSH1 0x1F DUP3 GT ISZERO PUSH3 0x2EA JUMPI PUSH3 0x2B4 DUP2 PUSH3 0x15E JUMP JUMPDEST PUSH3 0x2BF DUP5 PUSH3 0x173 JUMP JUMPDEST DUP2 ADD PUSH1 0x20 DUP6 LT ISZERO PUSH3 0x2CF JUMPI DUP2 SWAP1 POP JUMPDEST PUSH3 0x2E7 PUSH3 0x2DE DUP6 PUSH3 0x173 JUMP JUMPDEST DUP4 ADD DUP3 PUSH3 0x278 JUMP JUMPDEST POP POP JUMPDEST POP POP POP JUMP JUMPDEST PUSH1 0x0 DUP3 DUP3 SHR SWAP1 POP SWAP3 SWAP2 POP POP JUMP JUMPDEST PUSH1 0x0 PUSH3 0x30F PUSH1 0x0 NOT DUP5 PUSH1 0x8 MUL PUSH3 0x2EF JUMP JUMPDEST NOT DUP1 DUP4 AND SWAP2 POP POP SWAP3 SWAP2 POP POP JUMP JUMPDEST PUSH1 0x0 PUSH3 0x32A DUP4 DUP4 PUSH3 0x2FC JUMP JUMPDEST SWAP2 POP DUP3 PUSH1 0x2 MUL DUP3 OR SWAP1 POP SWAP3 SWAP2 POP POP JUMP JUMPDEST PUSH3 0x345 DUP3 PUSH3 0xC0 JUMP JUMPDEST PUSH8 0xFFFFFFFFFFFFFFFF DUP2 GT ISZERO PUSH3 0x361 JUMPI PUSH3 0x360 PUSH3 0xCB JUMP JUMPDEST JUMPDEST PUSH3 0x36D DUP3 SLOAD PUSH3 0x129 JUMP JUMPDEST PUSH3 0x37A DUP3 DUP3 DUP6 PUSH3 0x29F JUMP JUMPDEST PUSH1 0x0 PUSH1 0x20 SWAP1 POP PUSH1 0x1F DUP4 GT PUSH1 0x1 DUP2 EQ PUSH3 0x3B2 JUMPI PUSH1 0x0 DUP5 ISZERO PUSH3 0x39D JUMPI DUP3 DUP8 ADD MLOAD SWAP1 POP JUMPDEST PUSH3 0x3A9 DUP6 DUP3 PUSH3 0x31C JUMP JUMPDEST DUP7 SSTORE POP PUSH3 0x419 JUMP JUMPDEST PUSH1 0x1F NOT DUP5 AND PUSH3 0x3C2 DUP7 PUSH3 0x15E JUMP JUMPDEST PUSH1 0x0 JUMPDEST DUP3 DUP2 LT ISZERO PUSH3 0x3EC JUMPI DUP5 DUP10 ADD MLOAD DUP3 SSTORE PUSH1 0x1 DUP3 ADD SWAP2 POP PUSH1 0x20 DUP6 ADD SWAP5 POP PUSH1 0x20 DUP2 ADD SWAP1 POP PUSH3 0x3C5 JUMP JUMPDEST DUP7 DUP4 LT ISZERO PUSH3 0x40C JUMPI DUP5 DUP10 ADD MLOAD PUSH3 0x408 PUSH1 0x1F DUP10 AND DUP3 PUSH3 0x2FC JUMP JUMPDEST DUP4 SSTORE POP JUMPDEST PUSH1 0x1 PUSH1 0x2 DUP9 MUL ADD DUP9 SSTORE POP POP POP JUMPDEST POP POP POP POP POP POP JUMP JUMPDEST PUSH2 0xB96 DUP1 PUSH3 0x431 PUSH1 0x0 CODECOPY PUSH1 0x0 RETURN INVALID PUSH1 0x80 PUSH1 0x40 MSTORE CALLVALUE DUP1 ISZERO PUSH2 0x10 JUMPI PUSH1 0x0 DUP1 REVERT JUMPDEST POP PUSH1 0x4 CALLDATASIZE LT PUSH2 0x4C JUMPI PUSH1 0x0 CALLDATALOAD PUSH1 0xE0 SHR DUP1 PUSH4 0x606DEECD EQ PUSH2 0x51 JUMPI DUP1 PUSH4 0x65599057 EQ PUSH2 0x5B JUMPI DUP1 PUSH4 0xF25FFB20 EQ PUSH2 0x79 JUMPI DUP1 PUSH4 0xFA776152 EQ PUSH2 0x97 JUMPI JUMPDEST PUSH1 0x0 DUP1 REVERT JUMPDEST PUSH2 0x59 PUSH2 0xA1 JUMP JUMPDEST STOP JUMPDEST PUSH2 0x63 PUSH2 0x207 JUMP JUMPDEST PUSH1 0x40 MLOAD PUSH2 0x70 SWAP2 SWAP1 PUSH2 0x481 JUMP JUMPDEST PUSH1 0x40 MLOAD DUP1 SWAP2 SUB SWAP1 RETURN JUMPDEST PUSH2 0x81 PUSH2 0x295 JUMP JUMPDEST PUSH1 0x40 MLOAD PUSH2 0x8E SWAP2 SWAP1 PUSH2 0x4BC JUMP JUMPDEST PUSH1 0x40 MLOAD DUP1 SWAP2 SUB SWAP1 RETURN JUMPDEST PUSH2 0x9F PUSH2 0x347 JUMP JUMPDEST STOP JUMPDEST TIMESTAMP PUSH1 0x3 DUP2 SWAP1 SSTORE POP PUSH1 0x0 PUSH20 0xE6B8A5CF854791412C1F6EFC7CAF629F5DF1C747 SWAP1 POP PUSH1 0x0 DUP1 DUP1 SLOAD SWAP1 PUSH2 0x100 EXP SWAP1 DIV PUSH20 0xFFFFFFFFFFFFFFFFFFFFFFFFFFFFFFFFFFFFFFFF AND PUSH20 0xFFFFFFFFFFFFFFFFFFFFFFFFFFFFFFFFFFFFFFFF AND PUSH4 0x11DF92F1 PUSH1 0x1 SLOAD PUSH1 0x3 SLOAD PUSH1 0x2 DUP7 DUP7 PUSH1 0x40 MLOAD DUP7 PUSH4 0xFFFFFFFF AND PUSH1 0xE0 SHL DUP2 MSTORE PUSH1 0x4 ADD PUSH2 0x128 SWAP6 SWAP5 SWAP4 SWAP3 SWAP2 SWAP1 PUSH2 0x681 JUMP JUMPDEST PUSH1 0x20 PUSH1 0x40 MLOAD DUP1 DUP4 SUB DUP2 PUSH1 0x0 DUP8 GAS CALL ISZERO DUP1 ISZERO PUSH2 0x147 JUMPI RETURNDATASIZE PUSH1 0x0 DUP1 RETURNDATACOPY RETURNDATASIZE PUSH1 0x0 REVERT JUMPDEST POP POP POP POP PUSH1 0x40 MLOAD RETURNDATASIZE PUSH1 0x1F NOT PUSH1 0x1F DUP3 ADD AND DUP3 ADD DUP1 PUSH1 0x40 MSTORE POP DUP2 ADD SWAP1 PUSH2 0x16B SWAP2 SWAP1 PUSH2 0x716 JUMP JUMPDEST POP PUSH1 0x0 DUP1 SLOAD SWAP1 PUSH2 0x100 EXP SWAP1 DIV PUSH20 0xFFFFFFFFFFFFFFFFFFFFFFFFFFFFFFFFFFFFFFFF AND PUSH20 0xFFFFFFFFFFFFFFFFFFFFFFFFFFFFFFFFFFFFFFFF AND PUSH4 0x473C45FE PUSH1 0x1 SLOAD PUSH1 0x3 SLOAD PUSH1 0x2 PUSH1 0x1E PUSH1 0x40 MLOAD DUP6 PUSH4 0xFFFFFFFF AND PUSH1 0xE0 SHL DUP2 MSTORE PUSH1 0x4 ADD PUSH2 0x1D1 SWAP5 SWAP4 SWAP3 SWAP2 SWAP1 PUSH2 0x77E JUMP JUMPDEST PUSH1 0x0 PUSH1 0x40 MLOAD DUP1 DUP4 SUB DUP2 PUSH1 0x0 DUP8 DUP1 EXTCODESIZE ISZERO DUP1 ISZERO PUSH2 0x1EB JUMPI PUSH1 0x0 DUP1 REVERT JUMPDEST POP GAS CALL ISZERO DUP1 ISZERO PUSH2 0x1FF JUMPI RETURNDATASIZE PUSH1 0x0 DUP1 RETURNDATACOPY RETURNDATASIZE PUSH1 0x0 REVERT JUMPDEST POP POP POP POP POP POP JUMP JUMPDEST PUSH1 0x2 DUP1 SLOAD PUSH2 0x214 SWAP1 PUSH2 0x538 JUMP JUMPDEST DUP1 PUSH1 0x1F ADD PUSH1 0x20 DUP1 SWAP2 DIV MUL PUSH1 0x20 ADD PUSH1 0x40 MLOAD SWAP1 DUP2 ADD PUSH1 0x40 MSTORE DUP1 SWAP3 SWAP2 SWAP1 DUP2 DUP2 MSTORE PUSH1 0x20 ADD DUP3 DUP1 SLOAD PUSH2 0x240 SWAP1 PUSH2 0x538 JUMP JUMPDEST DUP1 ISZERO PUSH2 0x28D JUMPI DUP1 PUSH1 0x1F LT PUSH2 0x262 JUMPI PUSH2 0x100 DUP1 DUP4 SLOAD DIV MUL DUP4 MSTORE SWAP2 PUSH1 0x20 ADD SWAP2 PUSH2 0x28D JUMP JUMPDEST DUP3 ADD SWAP2 SWAP1 PUSH1 0x0 MSTORE PUSH1 0x20 PUSH1 0x0 KECCAK256 SWAP1 JUMPDEST DUP2 SLOAD DUP2 MSTORE SWAP1 PUSH1 0x1 ADD SWAP1 PUSH1 0x20 ADD DUP1 DUP4 GT PUSH2 0x270 JUMPI DUP3 SWAP1 SUB PUSH1 0x1F AND DUP3 ADD SWAP2 JUMPDEST POP POP POP POP POP DUP2 JUMP JUMPDEST PUSH1 0x0 DUP1 PUSH1 0x0 SWAP1 SLOAD SWAP1 PUSH2 0x100 EXP SWAP1 DIV PUSH20 0xFFFFFFFFFFFFFFFFFFFFFFFFFFFFFFFFFFFFFFFF AND PUSH20 0xFFFFFFFFFFFFFFFFFFFFFFFFFFFFFFFFFFFFFFFF AND PUSH4 0xA9904F9B ADDRESS PUSH1 0x1 SLOAD PUSH1 0x3 SLOAD PUSH1 0x2 PUSH1 0x40 MLOAD DUP6 PUSH4 0xFFFFFFFF AND PUSH1 0xE0 SHL DUP2 MSTORE PUSH1 0x4 ADD PUSH2 0x2FC SWAP5 SWAP4 SWAP3 SWAP2 SWAP1 PUSH2 0x7EB JUMP JUMPDEST PUSH2 0x200 PUSH1 0x40 MLOAD DUP1 DUP4 SUB DUP2 DUP7 GAS STATICCALL ISZERO DUP1 ISZERO PUSH2 0x31A JUMPI RETURNDATASIZE PUSH1 0x0 DUP1 RETURNDATACOPY RETURNDATASIZE PUSH1 0x0 REVERT JUMPDEST POP POP POP POP PUSH1 0x40 MLOAD RETURNDATASIZE PUSH1 0x1F NOT PUSH1 0x1F DUP3 ADD AND DUP3 ADD DUP1 PUSH1 0x40 MSTORE POP DUP2 ADD SWAP1 PUSH2 0x33E SWAP2 SWAP1 PUSH2 0xB32 JUMP JUMPDEST PUSH1 0xC0 ADD MLOAD SWAP1 POP SWAP1 JUMP JUMPDEST PUSH1 0x0 DUP1 SLOAD SWAP1 PUSH2 0x100 EXP SWAP1 DIV PUSH20 0xFFFFFFFFFFFFFFFFFFFFFFFFFFFFFFFFFFFFFFFF AND PUSH20 0xFFFFFFFFFFFFFFFFFFFFFFFFFFFFFFFFFFFFFFFF AND PUSH4 0x5E9A79A9 ADDRESS PUSH1 0x1 SLOAD PUSH1 0x3 SLOAD PUSH1 0x2 PUSH1 0x40 MLOAD DUP6 PUSH4 0xFFFFFFFF AND PUSH1 0xE0 SHL DUP2 MSTORE PUSH1 0x4 ADD PUSH2 0x3AB SWAP5 SWAP4 SWAP3 SWAP2 SWAP1 PUSH2 0x7EB JUMP JUMPDEST PUSH1 0x20 PUSH1 0x40 MLOAD DUP1 DUP4 SUB DUP2 PUSH1 0x0 DUP8 GAS CALL ISZERO DUP1 ISZERO PUSH2 0x3CA JUMPI RETURNDATASIZE PUSH1 0x0 DUP1 RETURNDATACOPY RETURNDATASIZE PUSH1 0x0 REVERT JUMPDEST POP POP POP POP PUSH1 0x40 MLOAD RETURNDATASIZE PUSH1 0x1F NOT PUSH1 0x1F DUP3 ADD AND DUP3 ADD DUP1 PUSH1 0x40 MSTORE POP DUP2 ADD SWAP1 PUSH2 0x3EE SWAP2 SWAP1 PUSH2 0x716 JUMP JUMPDEST POP JUMP JUMPDEST PUSH1 0x0 DUP2 MLOAD SWAP1 POP SWAP2 SWAP1 POP JUMP JUMPDEST PUSH1 0x0 DUP3 DUP3 MSTORE PUSH1 0x20 DUP3 ADD SWAP1 POP SWAP3 SWAP2 POP POP JUMP JUMPDEST PUSH1 0x0 JUMPDEST DUP4 DUP2 LT ISZERO PUSH2 0x42B JUMPI DUP1 DUP3 ADD MLOAD DUP2 DUP5 ADD MSTORE PUSH1 0x20 DUP2 ADD SWAP1 POP PUSH2 0x410 JUMP JUMPDEST PUSH1 0x0 DUP5 DUP5 ADD MSTORE POP POP POP POP JUMP JUMPDEST PUSH1 0x0 PUSH1 0x1F NOT PUSH1 0x1F DUP4 ADD AND SWAP1 POP SWAP2 SWAP1 POP JUMP JUMPDEST PUSH1 0x0 PUSH2 0x453 DUP3 PUSH2 0x3F1 JUMP JUMPDEST PUSH2 0x45D DUP2 DUP6 PUSH2 0x3FC JUMP JUMPDEST SWAP4 POP PUSH2 0x46D DUP2 DUP6 PUSH1 0x20 DUP7 ADD PUSH2 0x40D JUMP JUMPDEST PUSH2 0x476 DUP2 PUSH2 0x437 JUMP JUMPDEST DUP5 ADD SWAP2 POP POP SWAP3 SWAP2 POP POP JUMP JUMPDEST PUSH1 0x0 PUSH1 0x20 DUP3 ADD SWAP1 POP DUP2 DUP2 SUB PUSH1 0x0 DUP4 ADD MSTORE PUSH2 0x49B DUP2 DUP5 PUSH2 0x448 JUMP JUMPDEST SWAP1 POP SWAP3 SWAP2 POP POP JUMP JUMPDEST PUSH1 0x0 DUP2 SWAP1 POP SWAP2 SWAP1 POP JUMP JUMPDEST PUSH2 0x4B6 DUP2 PUSH2 0x4A3 JUMP JUMPDEST DUP3 MSTORE POP POP JUMP JUMPDEST PUSH1 0x0 PUSH1 0x20 DUP3 ADD SWAP1 POP PUSH2 0x4D1 PUSH1 0x0 DUP4 ADD DUP5 PUSH2 0x4AD JUMP JUMPDEST SWAP3 SWAP2 POP POP JUMP JUMPDEST PUSH1 0x0 DUP2 SWAP1 POP SWAP2 SWAP1 POP JUMP JUMPDEST PUSH2 0x4EA DUP2 PUSH2 0x4D7 JUMP JUMPDEST DUP3 MSTORE POP POP JUMP JUMPDEST PUSH1 0x0 DUP2 SWAP1 POP SWAP2 SWAP1 POP JUMP JUMPDEST PUSH2 0x503 DUP2 PUSH2 0x4F0 JUMP JUMPDEST DUP3 MSTORE POP POP JUMP JUMPDEST PUSH32 0x4E487B7100000000000000000000000000000000000000000000000000000000 PUSH1 0x0 MSTORE PUSH1 0x22 PUSH1 0x4 MSTORE PUSH1 0x24 PUSH1 0x0 REVERT JUMPDEST PUSH1 0x0 PUSH1 0x2 DUP3 DIV SWAP1 POP PUSH1 0x1 DUP3 AND DUP1 PUSH2 0x550 JUMPI PUSH1 0x7F DUP3 AND SWAP2 POP JUMPDEST PUSH1 0x20 DUP3 LT DUP2 SUB PUSH2 0x563 JUMPI PUSH2 0x562 PUSH2 0x509 JUMP JUMPDEST JUMPDEST POP SWAP2 SWAP1 POP JUMP JUMPDEST PUSH1 0x0 DUP2 SWAP1 POP DUP2 PUSH1 0x0 MSTORE PUSH1 0x20 PUSH1 0x0 KECCAK256 SWAP1 POP SWAP2 SWAP1 POP JUMP JUMPDEST PUSH1 0x0 DUP2 SLOAD PUSH2 0x58B DUP2 PUSH2 0x538 JUMP JUMPDEST PUSH2 0x595 DUP2 DUP7 PUSH2 0x3FC JUMP JUMPDEST SWAP5 POP PUSH1 0x1 DUP3 AND PUSH1 0x0 DUP2 EQ PUSH2 0x5B0 JUMPI PUSH1 0x1 DUP2 EQ PUSH2 0x5C6 JUMPI PUSH2 0x5F9 JUMP JUMPDEST PUSH1 0xFF NOT DUP4 AND DUP7 MSTORE DUP2 ISZERO ISZERO PUSH1 0x20 MUL DUP7 ADD SWAP4 POP PUSH2 0x5F9 JUMP JUMPDEST PUSH2 0x5CF DUP6 PUSH2 0x569 JUMP JUMPDEST PUSH1 0x0 JUMPDEST DUP4 DUP2 LT ISZERO PUSH2 0x5F1 JUMPI DUP2 SLOAD DUP2 DUP10 ADD MSTORE PUSH1 0x1 DUP3 ADD SWAP2 POP PUSH1 0x20 DUP2 ADD SWAP1 POP PUSH2 0x5D2 JUMP JUMPDEST DUP1 DUP9 ADD SWAP6 POP POP POP JUMPDEST POP POP POP SWAP3 SWAP2 POP POP JUMP JUMPDEST PUSH1 0x0 PUSH20 0xFFFFFFFFFFFFFFFFFFFFFFFFFFFFFFFFFFFFFFFF DUP3 AND SWAP1 POP SWAP2 SWAP1 POP JUMP JUMPDEST PUSH1 0x0 DUP2 SWAP1 POP SWAP2 SWAP1 POP JUMP JUMPDEST PUSH1 0x0 PUSH2 0x647 PUSH2 0x642 PUSH2 0x63D DUP5 PUSH2 0x602 JUMP JUMPDEST PUSH2 0x622 JUMP JUMPDEST PUSH2 0x602 JUMP JUMPDEST SWAP1 POP SWAP2 SWAP1 POP JUMP JUMPDEST PUSH1 0x0 PUSH2 0x659 DUP3 PUSH2 0x62C JUMP JUMPDEST SWAP1 POP SWAP2 SWAP1 POP JUMP JUMPDEST PUSH1 0x0 PUSH2 0x66B DUP3 PUSH2 0x64E JUMP JUMPDEST SWAP1 POP SWAP2 SWAP1 POP JUMP JUMPDEST PUSH2 0x67B DUP2 PUSH2 0x660 JUMP JUMPDEST DUP3 MSTORE POP POP JUMP JUMPDEST PUSH1 0x0 PUSH1 0xA0 DUP3 ADD SWAP1 POP PUSH2 0x696 PUSH1 0x0 DUP4 ADD DUP9 PUSH2 0x4E1 JUMP JUMPDEST PUSH2 0x6A3 PUSH1 0x20 DUP4 ADD DUP8 PUSH2 0x4FA JUMP JUMPDEST DUP2 DUP2 SUB PUSH1 0x40 DUP4 ADD MSTORE PUSH2 0x6B5 DUP2 DUP7 PUSH2 0x57E JUMP JUMPDEST SWAP1 POP PUSH2 0x6C4 PUSH1 0x60 DUP4 ADD DUP6 PUSH2 0x672 JUMP JUMPDEST PUSH2 0x6D1 PUSH1 0x80 DUP4 ADD DUP5 PUSH2 0x4FA JUMP JUMPDEST SWAP7 SWAP6 POP POP POP POP POP POP JUMP JUMPDEST PUSH1 0x0 PUSH1 0x40 MLOAD SWAP1 POP SWAP1 JUMP JUMPDEST PUSH1 0x0 DUP1 REVERT JUMPDEST PUSH2 0x6F3 DUP2 PUSH2 0x4F0 JUMP JUMPDEST DUP2 EQ PUSH2 0x6FE JUMPI PUSH1 0x0 DUP1 REVERT JUMPDEST POP JUMP JUMPDEST PUSH1 0x0 DUP2 MLOAD SWAP1 POP PUSH2 0x710 DUP2 PUSH2 0x6EA JUMP JUMPDEST SWAP3 SWAP2 POP POP JUMP JUMPDEST PUSH1 0x0 PUSH1 0x20 DUP3 DUP5 SUB SLT ISZERO PUSH2 0x72C JUMPI PUSH2 0x72B PUSH2 0x6E5 JUMP JUMPDEST JUMPDEST PUSH1 0x0 PUSH2 0x73A DUP5 DUP3 DUP6 ADD PUSH2 0x701 JUMP JUMPDEST SWAP2 POP POP SWAP3 SWAP2 POP POP JUMP JUMPDEST PUSH1 0x0 DUP2 SWAP1 POP SWAP2 SWAP1 POP JUMP JUMPDEST PUSH1 0x0 PUSH2 0x768 PUSH2 0x763 PUSH2 0x75E DUP5 PUSH2 0x743 JUMP JUMPDEST PUSH2 0x622 JUMP JUMPDEST PUSH2 0x4F0 JUMP JUMPDEST SWAP1 POP SWAP2 SWAP1 POP JUMP JUMPDEST PUSH2 0x778 DUP2 PUSH2 0x74D JUMP JUMPDEST DUP3 MSTORE POP POP JUMP JUMPDEST PUSH1 0x0 PUSH1 0x80 DUP3 ADD SWAP1 POP PUSH2 0x793 PUSH1 0x0 DUP4 ADD DUP8 PUSH2 0x4E1 JUMP JUMPDEST PUSH2 0x7A0 PUSH1 0x20 DUP4 ADD DUP7 PUSH2 0x4FA JUMP JUMPDEST DUP2 DUP2 SUB PUSH1 0x40 DUP4 ADD MSTORE PUSH2 0x7B2 DUP2 DUP6 PUSH2 0x57E JUMP JUMPDEST SWAP1 POP PUSH2 0x7C1 PUSH1 0x60 DUP4 ADD DUP5 PUSH2 0x76F JUMP JUMPDEST SWAP6 SWAP5 POP POP POP POP POP JUMP JUMPDEST PUSH1 0x0 PUSH2 0x7D5 DUP3 PUSH2 0x602 JUMP JUMPDEST SWAP1 POP SWAP2 SWAP1 POP JUMP JUMPDEST PUSH2 0x7E5 DUP2 PUSH2 0x7CA JUMP JUMPDEST DUP3 MSTORE POP POP JUMP JUMPDEST PUSH1 0x0 PUSH1 0x80 DUP3 ADD SWAP1 POP PUSH2 0x800 PUSH1 0x0 DUP4 ADD DUP8 PUSH2 0x7DC JUMP JUMPDEST PUSH2 0x80D PUSH1 0x20 DUP4 ADD DUP7 PUSH2 0x4E1 JUMP JUMPDEST PUSH2 0x81A PUSH1 0x40 DUP4 ADD DUP6 PUSH2 0x4FA JUMP JUMPDEST DUP2 DUP2 SUB PUSH1 0x60 DUP4 ADD MSTORE PUSH2 0x82C DUP2 DUP5 PUSH2 0x57E JUMP JUMPDEST SWAP1 POP SWAP6 SWAP5 POP POP POP POP POP JUMP JUMPDEST PUSH1 0x0 DUP1 REVERT JUMPDEST PUSH32 0x4E487B7100000000000000000000000000000000000000000000000000000000 PUSH1 0x0 MSTORE PUSH1 0x41 PUSH1 0x4 MSTORE PUSH1 0x24 PUSH1 0x0 REVERT JUMPDEST PUSH2 0x874 DUP3 PUSH2 0x437 JUMP JUMPDEST DUP2 ADD DUP2 DUP2 LT PUSH8 0xFFFFFFFFFFFFFFFF DUP3 GT OR ISZERO PUSH2 0x893 JUMPI PUSH2 0x892 PUSH2 0x83C JUMP JUMPDEST JUMPDEST DUP1 PUSH1 0x40 MSTORE POP POP POP JUMP JUMPDEST PUSH1 0x0 PUSH2 0x8A6 PUSH2 0x6DB JUMP JUMPDEST SWAP1 POP PUSH2 0x8B2 DUP3 DUP3 PUSH2 0x86B JUMP JUMPDEST SWAP2 SWAP1 POP JUMP JUMPDEST PUSH2 0x8C0 DUP2 PUSH2 0x7CA JUMP JUMPDEST DUP2 EQ PUSH2 0x8CB JUMPI PUSH1 0x0 DUP1 REVERT JUMPDEST POP JUMP JUMPDEST PUSH1 0x0 DUP2 MLOAD SWAP1 POP PUSH2 0x8DD DUP2 PUSH2 0x8B7 JUMP JUMPDEST SWAP3 SWAP2 POP POP JUMP JUMPDEST PUSH1 0x0 PUSH2 0x8EE DUP3 PUSH2 0x7CA JUMP JUMPDEST SWAP1 POP SWAP2 SWAP1 POP JUMP JUMPDEST PUSH2 0x8FE DUP2 PUSH2 0x8E3 JUMP JUMPDEST DUP2 EQ PUSH2 0x909 JUMPI PUSH1 0x0 DUP1 REVERT JUMPDEST POP JUMP JUMPDEST PUSH1 0x0 DUP2 MLOAD SWAP1 POP PUSH2 0x91B DUP2 PUSH2 0x8F5 JUMP JUMPDEST SWAP3 SWAP2 POP POP JUMP JUMPDEST PUSH1 0x0 DUP2 ISZERO ISZERO SWAP1 POP SWAP2 SWAP1 POP JUMP JUMPDEST PUSH2 0x936 DUP2 PUSH2 0x921 JUMP JUMPDEST DUP2 EQ PUSH2 0x941 JUMPI PUSH1 0x0 DUP1 REVERT JUMPDEST POP JUMP JUMPDEST PUSH1 0x0 DUP2 MLOAD SWAP1 POP PUSH2 0x953 DUP2 PUSH2 0x92D JUMP JUMPDEST SWAP3 SWAP2 POP POP JUMP JUMPDEST PUSH1 0x0 PUSH1 0xE0 DUP3 DUP5 SUB SLT ISZERO PUSH2 0x96F JUMPI PUSH2 0x96E PUSH2 0x837 JUMP JUMPDEST JUMPDEST PUSH2 0x979 PUSH1 0xE0 PUSH2 0x89C JUMP JUMPDEST SWAP1 POP PUSH1 0x0 PUSH2 0x989 DUP5 DUP3 DUP6 ADD PUSH2 0x944 JUMP JUMPDEST PUSH1 0x0 DUP4 ADD MSTORE POP PUSH1 0x20 PUSH2 0x99D DUP5 DUP3 DUP6 ADD PUSH2 0x944 JUMP JUMPDEST PUSH1 0x20 DUP4 ADD MSTORE POP PUSH1 0x40 PUSH2 0x9B1 DUP5 DUP3 DUP6 ADD PUSH2 0x944 JUMP JUMPDEST PUSH1 0x40 DUP4 ADD MSTORE POP PUSH1 0x60 PUSH2 0x9C5 DUP5 DUP3 DUP6 ADD PUSH2 0x944 JUMP JUMPDEST PUSH1 0x60 DUP4 ADD MSTORE POP PUSH1 0x80 PUSH2 0x9D9 DUP5 DUP3 DUP6 ADD PUSH2 0x944 JUMP JUMPDEST PUSH1 0x80 DUP4 ADD MSTORE POP PUSH1 0xA0 PUSH2 0x9ED DUP5 DUP3 DUP6 ADD PUSH2 0x701 JUMP JUMPDEST PUSH1 0xA0 DUP4 ADD MSTORE POP PUSH1 0xC0 PUSH2 0xA01 DUP5 DUP3 DUP6 ADD PUSH2 0x701 JUMP JUMPDEST PUSH1 0xC0 DUP4 ADD MSTORE POP SWAP3 SWAP2 POP POP JUMP JUMPDEST PUSH2 0xA16 DUP2 PUSH2 0x4A3 JUMP JUMPDEST DUP2 EQ PUSH2 0xA21 JUMPI PUSH1 0x0 DUP1 REVERT JUMPDEST POP JUMP JUMPDEST PUSH1 0x0 DUP2 MLOAD SWAP1 POP PUSH2 0xA33 DUP2 PUSH2 0xA0D JUMP JUMPDEST SWAP3 SWAP2 POP POP JUMP JUMPDEST PUSH1 0x0 PUSH2 0x200 DUP3 DUP5 SUB SLT ISZERO PUSH2 0xA50 JUMPI PUSH2 0xA4F PUSH2 0x837 JUMP JUMPDEST JUMPDEST PUSH2 0xA5B PUSH2 0x140 PUSH2 0x89C JUMP JUMPDEST SWAP1 POP PUSH1 0x0 PUSH2 0xA6B DUP5 DUP3 DUP6 ADD PUSH2 0x8CE JUMP JUMPDEST PUSH1 0x0 DUP4 ADD MSTORE POP PUSH1 0x20 PUSH2 0xA7F DUP5 DUP3 DUP6 ADD PUSH2 0x8CE JUMP JUMPDEST PUSH1 0x20 DUP4 ADD MSTORE POP PUSH1 0x40 PUSH2 0xA93 DUP5 DUP3 DUP6 ADD PUSH2 0x90C JUMP JUMPDEST PUSH1 0x40 DUP4 ADD MSTORE POP PUSH1 0x60 PUSH2 0xAA7 DUP5 DUP3 DUP6 ADD PUSH2 0x944 JUMP JUMPDEST PUSH1 0x60 DUP4 ADD MSTORE POP PUSH1 0x80 PUSH2 0xABB DUP5 DUP3 DUP6 ADD PUSH2 0x959 JUMP JUMPDEST PUSH1 0x80 DUP4 ADD MSTORE POP PUSH2 0x160 PUSH2 0xAD0 DUP5 DUP3 DUP6 ADD PUSH2 0xA24 JUMP JUMPDEST PUSH1 0xA0 DUP4 ADD MSTORE POP PUSH2 0x180 PUSH2 0xAE5 DUP5 DUP3 DUP6 ADD PUSH2 0xA24 JUMP JUMPDEST PUSH1 0xC0 DUP4 ADD MSTORE POP PUSH2 0x1A0 PUSH2 0xAFA DUP5 DUP3 DUP6 ADD PUSH2 0x701 JUMP JUMPDEST PUSH1 0xE0 DUP4 ADD MSTORE POP PUSH2 0x1C0 PUSH2 0xB0F DUP5 DUP3 DUP6 ADD PUSH2 0x701 JUMP JUMPDEST PUSH2 0x100 DUP4 ADD MSTORE POP PUSH2 0x1E0 PUSH2 0xB25 DUP5 DUP3 DUP6 ADD PUSH2 0x701 JUMP JUMPDEST PUSH2 0x120 DUP4 ADD MSTORE POP SWAP3 SWAP2 POP POP JUMP JUMPDEST PUSH1 0x0 PUSH2 0x200 DUP3 DUP5 SUB SLT ISZERO PUSH2 0xB49 JUMPI PUSH2 0xB48 PUSH2 0x6E5 JUMP JUMPDEST JUMPDEST PUSH1 0x0 PUSH2 0xB57 DUP5 DUP3 DUP6 ADD PUSH2 0xA39 JUMP JUMPDEST SWAP2 POP POP SWAP3 SWAP2 POP POP JUMP INVALID LOG2 PUSH5 0x6970667358 0x22 SLT KECCAK256 0xC8 CALLVALUE SGT 0x2B PUSH25 0xAB9C99514E99F819D0A9BB4ADE2EF70A9FA9A5EBDBAD2D554 0xCD SWAP16 PUSH5 0x736F6C6343 STOP ADDMOD LT STOP CALLER MLOAD GASPRICE JUMPI PUSH10 0x6C6C206974207261696E KECCAK256 PUSH21 0x6F6461793F20413A3120666F72207965732E203020 PUSH7 0x6F72206E6F2E00 "
		},
		"gasEstimates": {
			"creation": {
				"codeDepositCost": "593200",
				"executionCost": "infinite",
				"totalCost": "infinite"
			},
			"external": {
				"ancillaryData()": "infinite",
				"getSettledData()": "infinite",
				"requestData()": "infinite",
				"settleRequest()": "infinite"
			}
		},
		"methodIdentifiers": {
			"ancillaryData()": "65599057",
			"getSettledData()": "f25ffb20",
			"requestData()": "606deecd",
			"settleRequest()": "fa776152"
		}
	},
	"abi": [
		{
			"inputs": [],
			"name": "ancillaryData",
			"outputs": [
				{
					"internalType": "bytes",
					"name": "",
					"type": "bytes"
				}
			],
			"stateMutability": "view",
			"type": "function"
		},
		{
			"inputs": [],
			"name": "getSettledData",
			"outputs": [
				{
					"internalType": "int256",
					"name": "",
					"type": "int256"
				}
			],
			"stateMutability": "view",
			"type": "function"
		},
		{
			"inputs": [],
			"name": "requestData",
			"outputs": [],
			"stateMutability": "nonpayable",
			"type": "function"
		},
		{
			"inputs": [],
			"name": "settleRequest",
			"outputs": [],
			"stateMutability": "nonpayable",
			"type": "function"
		}
	]
}