{
	"gist-17a8a29b2f8ae432e8bac0b88cff8bb1/OOV3_GettingStarted.sol": {
		"OOV3_GettingStarted": {
			"abi": [
				{
					"inputs": [],
					"name": "assertTruth",
					"outputs": [],
					"stateMutability": "nonpayable",
					"type": "function"
				},
				{
					"inputs": [],
					"name": "assertedClaim",
					"outputs": [
						{
							"internalType": "bytes",
							"name": "",
							"type": "bytes"
						}
					],
					"stateMutability": "view",
					"type": "function"
				},
				{
					"inputs": [],
					"name": "assertionId",
					"outputs": [
						{
							"internalType": "bytes32",
							"name": "",
							"type": "bytes32"
						}
					],
					"stateMutability": "view",
					"type": "function"
				},
				{
					"inputs": [],
					"name": "getAssertion",
					"outputs": [
						{
							"components": [
								{
									"components": [
										{
											"internalType": "bool",
											"name": "arbitrateViaEscalationManager",
											"type": "bool"
										},
										{
											"internalType": "bool",
											"name": "discardOracle",
											"type": "bool"
										},
										{
											"internalType": "bool",
											"name": "validateDisputers",
											"type": "bool"
										},
										{
											"internalType": "address",
											"name": "assertingCaller",
											"type": "address"
										},
										{
											"internalType": "address",
											"name": "escalationManager",
											"type": "address"
										}
									],
									"internalType": "struct OptimisticOracleV3Interface.EscalationManagerSettings",
									"name": "escalationManagerSettings",
									"type": "tuple"
								},
								{
									"internalType": "address",
									"name": "asserter",
									"type": "address"
								},
								{
									"internalType": "uint64",
									"name": "assertionTime",
									"type": "uint64"
								},
								{
									"internalType": "bool",
									"name": "settled",
									"type": "bool"
								},
								{
									"internalType": "contract IERC20",
									"name": "currency",
									"type": "address"
								},
								{
									"internalType": "uint64",
									"name": "expirationTime",
									"type": "uint64"
								},
								{
									"internalType": "bool",
									"name": "settlementResolution",
									"type": "bool"
								},
								{
									"internalType": "bytes32",
									"name": "domainId",
									"type": "bytes32"
								},
								{
									"internalType": "bytes32",
									"name": "identifier",
									"type": "bytes32"
								},
								{
									"internalType": "uint256",
									"name": "bond",
									"type": "uint256"
								},
								{
									"internalType": "address",
									"name": "callbackRecipient",
									"type": "address"
								},
								{
									"internalType": "address",
									"name": "disputer",
									"type": "address"
								}
							],
							"internalType": "struct OptimisticOracleV3Interface.Assertion",
							"name": "",
							"type": "tuple"
						}
					],
					"stateMutability": "view",
					"type": "function"
				},
				{
					"inputs": [],
					"name": "getAssertionResult",
					"outputs": [
						{
							"internalType": "bool",
							"name": "",
							"type": "bool"
						}
					],
					"stateMutability": "view",
					"type": "function"
				},
				{
					"inputs": [],
					"name": "settleAndGetAssertionResult",
					"outputs": [
						{
							"internalType": "bool",
							"name": "",
							"type": "bool"
						}
					],
					"stateMutability": "nonpayable",
					"type": "function"
				}
			],
			"devdoc": {
				"kind": "dev",
				"methods": {},
				"version": 1
			},
			"evm": {
				"assembly": "    /* \"gist-17a8a29b2f8ae432e8bac0b88cff8bb1/OOV3_GettingStarted.sol\":586:2434  contract OOV3_GettingStarted {... */\n  mstore(0x40, 0x80)\n    /* \"gist-17a8a29b2f8ae432e8bac0b88cff8bb1/OOV3_GettingStarted.sol\":774:816  0x9923D42eF695B5dd9911D05Ac944d4cAca3c4EAB */\n  0x9923d42ef695b5dd9911d05ac944d4caca3c4eab\n    /* \"gist-17a8a29b2f8ae432e8bac0b88cff8bb1/OOV3_GettingStarted.sol\":703:817  OptimisticOracleV3Interface oov3 =... */\n  0x00\n  dup1\n  0x0100\n  exp\n  dup2\n  sload\n  dup2\n  0xffffffffffffffffffffffffffffffffffffffff\n  mul\n  not\n  and\n  swap1\n  dup4\n  0xffffffffffffffffffffffffffffffffffffffff\n  and\n  mul\n  or\n  swap1\n  sstore\n  pop\n    /* \"gist-17a8a29b2f8ae432e8bac0b88cff8bb1/OOV3_GettingStarted.sol\":978:1013  bytes(\"Hello world from rameshdon\") */\n  mload(0x40)\n  dup1\n  0x40\n  add\n  0x40\n  mstore\n  dup1\n  0x1a\n  dup2\n  mstore\n  0x20\n  add\n  0x48656c6c6f20776f726c642066726f6d2072616d657368646f6e000000000000\n  dup2\n  mstore\n  pop\n    /* \"gist-17a8a29b2f8ae432e8bac0b88cff8bb1/OOV3_GettingStarted.sol\":941:1013  bytes public assertedClaim =... */\n  0x01\n  swap1\n  dup2\n  tag_1\n  swap2\n  swap1\n  tag_2\n  jump\t// in\ntag_1:\n  pop\n    /* \"gist-17a8a29b2f8ae432e8bac0b88cff8bb1/OOV3_GettingStarted.sol\":586:2434  contract OOV3_GettingStarted {... */\n  callvalue\n  dup1\n  iszero\n  tag_3\n  jumpi\n  0x00\n  dup1\n  revert\ntag_3:\n  pop\n  jump(tag_4)\n    /* \"#utility.yul\":7:105   */\ntag_5:\n    /* \"#utility.yul\":58:64   */\n  0x00\n    /* \"#utility.yul\":92:97   */\n  dup2\n    /* \"#utility.yul\":86:98   */\n  mload\n    /* \"#utility.yul\":76:98   */\n  swap1\n  pop\n    /* \"#utility.yul\":7:105   */\n  swap2\n  swap1\n  pop\n  jump\t// out\n    /* \"#utility.yul\":111:291   */\ntag_6:\n    /* \"#utility.yul\":159:236   */\n  0x4e487b7100000000000000000000000000000000000000000000000000000000\n    /* \"#utility.yul\":156:157   */\n  0x00\n    /* \"#utility.yul\":149:237   */\n  mstore\n    /* \"#utility.yul\":256:260   */\n  0x41\n    /* \"#utility.yul\":253:254   */\n  0x04\n    /* \"#utility.yul\":246:261   */\n  mstore\n    /* \"#utility.yul\":280:284   */\n  0x24\n    /* \"#utility.yul\":277:278   */\n  0x00\n    /* \"#utility.yul\":270:285   */\n  revert\n    /* \"#utility.yul\":297:477   */\ntag_7:\n    /* \"#utility.yul\":345:422   */\n  0x4e487b7100000000000000000000000000000000000000000000000000000000\n    /* \"#utility.yul\":342:343   */\n  0x00\n    /* \"#utility.yul\":335:423   */\n  mstore\n    /* \"#utility.yul\":442:446   */\n  0x22\n    /* \"#utility.yul\":439:440   */\n  0x04\n    /* \"#utility.yul\":432:447   */\n  mstore\n    /* \"#utility.yul\":466:470   */\n  0x24\n    /* \"#utility.yul\":463:464   */\n  0x00\n    /* \"#utility.yul\":456:471   */\n  revert\n    /* \"#utility.yul\":483:803   */\ntag_8:\n    /* \"#utility.yul\":527:533   */\n  0x00\n    /* \"#utility.yul\":564:565   */\n  0x02\n    /* \"#utility.yul\":558:562   */\n  dup3\n    /* \"#utility.yul\":554:566   */\n  div\n    /* \"#utility.yul\":544:566   */\n  swap1\n  pop\n    /* \"#utility.yul\":611:612   */\n  0x01\n    /* \"#utility.yul\":605:609   */\n  dup3\n    /* \"#utility.yul\":601:613   */\n  and\n    /* \"#utility.yul\":632:650   */\n  dup1\n    /* \"#utility.yul\":622:703   */\n  tag_30\n  jumpi\n    /* \"#utility.yul\":688:692   */\n  0x7f\n    /* \"#utility.yul\":680:686   */\n  dup3\n    /* \"#utility.yul\":676:693   */\n  and\n    /* \"#utility.yul\":666:693   */\n  swap2\n  pop\n    /* \"#utility.yul\":622:703   */\ntag_30:\n    /* \"#utility.yul\":750:752   */\n  0x20\n    /* \"#utility.yul\":742:748   */\n  dup3\n    /* \"#utility.yul\":739:753   */\n  lt\n    /* \"#utility.yul\":719:737   */\n  dup2\n    /* \"#utility.yul\":716:754   */\n  sub\n    /* \"#utility.yul\":713:797   */\n  tag_31\n  jumpi\n    /* \"#utility.yul\":769:787   */\n  tag_32\n  tag_7\n  jump\t// in\ntag_32:\n    /* \"#utility.yul\":713:797   */\ntag_31:\n    /* \"#utility.yul\":534:803   */\n  pop\n    /* \"#utility.yul\":483:803   */\n  swap2\n  swap1\n  pop\n  jump\t// out\n    /* \"#utility.yul\":809:949   */\ntag_9:\n    /* \"#utility.yul\":857:861   */\n  0x00\n    /* \"#utility.yul\":880:883   */\n  dup2\n    /* \"#utility.yul\":872:883   */\n  swap1\n  pop\n    /* \"#utility.yul\":903:906   */\n  dup2\n    /* \"#utility.yul\":900:901   */\n  0x00\n    /* \"#utility.yul\":893:907   */\n  mstore\n    /* \"#utility.yul\":937:941   */\n  0x20\n    /* \"#utility.yul\":934:935   */\n  0x00\n    /* \"#utility.yul\":924:942   */\n  keccak256\n    /* \"#utility.yul\":916:942   */\n  swap1\n  pop\n    /* \"#utility.yul\":809:949   */\n  swap2\n  swap1\n  pop\n  jump\t// out\n    /* \"#utility.yul\":955:1048   */\ntag_10:\n    /* \"#utility.yul\":992:998   */\n  0x00\n    /* \"#utility.yul\":1039:1041   */\n  0x20\n    /* \"#utility.yul\":1034:1036   */\n  0x1f\n    /* \"#utility.yul\":1027:1032   */\n  dup4\n    /* \"#utility.yul\":1023:1037   */\n  add\n    /* \"#utility.yul\":1019:1042   */\n  div\n    /* \"#utility.yul\":1009:1042   */\n  swap1\n  pop\n    /* \"#utility.yul\":955:1048   */\n  swap2\n  swap1\n  pop\n  jump\t// out\n    /* \"#utility.yul\":1054:1161   */\ntag_11:\n    /* \"#utility.yul\":1098:1106   */\n  0x00\n    /* \"#utility.yul\":1148:1153   */\n  dup3\n    /* \"#utility.yul\":1142:1146   */\n  dup3\n    /* \"#utility.yul\":1138:1154   */\n  shl\n    /* \"#utility.yul\":1117:1154   */\n  swap1\n  pop\n    /* \"#utility.yul\":1054:1161   */\n  swap3\n  swap2\n  pop\n  pop\n  jump\t// out\n    /* \"#utility.yul\":1167:1560   */\ntag_12:\n    /* \"#utility.yul\":1236:1242   */\n  0x00\n    /* \"#utility.yul\":1286:1287   */\n  0x08\n    /* \"#utility.yul\":1274:1284   */\n  dup4\n    /* \"#utility.yul\":1270:1288   */\n  mul\n    /* \"#utility.yul\":1309:1406   */\n  tag_37\n    /* \"#utility.yul\":1339:1405   */\n  0xffffffffffffffffffffffffffffffffffffffffffffffffffffffffffffffff\n    /* \"#utility.yul\":1328:1337   */\n  dup3\n    /* \"#utility.yul\":1309:1406   */\n  tag_11\n  jump\t// in\ntag_37:\n    /* \"#utility.yul\":1427:1466   */\n  tag_38\n    /* \"#utility.yul\":1457:1465   */\n  dup7\n    /* \"#utility.yul\":1446:1455   */\n  dup4\n    /* \"#utility.yul\":1427:1466   */\n  tag_11\n  jump\t// in\ntag_38:\n    /* \"#utility.yul\":1415:1466   */\n  swap6\n  pop\n    /* \"#utility.yul\":1499:1503   */\n  dup1\n    /* \"#utility.yul\":1495:1504   */\n  not\n    /* \"#utility.yul\":1488:1493   */\n  dup5\n    /* \"#utility.yul\":1484:1505   */\n  and\n    /* \"#utility.yul\":1475:1505   */\n  swap4\n  pop\n    /* \"#utility.yul\":1548:1552   */\n  dup1\n    /* \"#utility.yul\":1538:1546   */\n  dup7\n    /* \"#utility.yul\":1534:1553   */\n  and\n    /* \"#utility.yul\":1527:1532   */\n  dup5\n    /* \"#utility.yul\":1524:1554   */\n  or\n    /* \"#utility.yul\":1514:1554   */\n  swap3\n  pop\n    /* \"#utility.yul\":1243:1560   */\n  pop\n  pop\n    /* \"#utility.yul\":1167:1560   */\n  swap4\n  swap3\n  pop\n  pop\n  pop\n  jump\t// out\n    /* \"#utility.yul\":1566:1643   */\ntag_13:\n    /* \"#utility.yul\":1603:1610   */\n  0x00\n    /* \"#utility.yul\":1632:1637   */\n  dup2\n    /* \"#utility.yul\":1621:1637   */\n  swap1\n  pop\n    /* \"#utility.yul\":1566:1643   */\n  swap2\n  swap1\n  pop\n  jump\t// out\n    /* \"#utility.yul\":1649:1709   */\ntag_14:\n    /* \"#utility.yul\":1677:1680   */\n  0x00\n    /* \"#utility.yul\":1698:1703   */\n  dup2\n    /* \"#utility.yul\":1691:1703   */\n  swap1\n  pop\n    /* \"#utility.yul\":1649:1709   */\n  swap2\n  swap1\n  pop\n  jump\t// out\n    /* \"#utility.yul\":1715:1857   */\ntag_15:\n    /* \"#utility.yul\":1765:1774   */\n  0x00\n    /* \"#utility.yul\":1798:1851   */\n  tag_42\n    /* \"#utility.yul\":1816:1850   */\n  tag_43\n    /* \"#utility.yul\":1825:1849   */\n  tag_44\n    /* \"#utility.yul\":1843:1848   */\n  dup5\n    /* \"#utility.yul\":1825:1849   */\n  tag_13\n  jump\t// in\ntag_44:\n    /* \"#utility.yul\":1816:1850   */\n  tag_14\n  jump\t// in\ntag_43:\n    /* \"#utility.yul\":1798:1851   */\n  tag_13\n  jump\t// in\ntag_42:\n    /* \"#utility.yul\":1785:1851   */\n  swap1\n  pop\n    /* \"#utility.yul\":1715:1857   */\n  swap2\n  swap1\n  pop\n  jump\t// out\n    /* \"#utility.yul\":1863:1938   */\ntag_16:\n    /* \"#utility.yul\":1906:1909   */\n  0x00\n    /* \"#utility.yul\":1927:1932   */\n  dup2\n    /* \"#utility.yul\":1920:1932   */\n  swap1\n  pop\n    /* \"#utility.yul\":1863:1938   */\n  swap2\n  swap1\n  pop\n  jump\t// out\n    /* \"#utility.yul\":1944:2213   */\ntag_17:\n    /* \"#utility.yul\":2054:2093   */\n  tag_47\n    /* \"#utility.yul\":2085:2092   */\n  dup4\n    /* \"#utility.yul\":2054:2093   */\n  tag_15\n  jump\t// in\ntag_47:\n    /* \"#utility.yul\":2115:2206   */\n  tag_48\n    /* \"#utility.yul\":2164:2205   */\n  tag_49\n    /* \"#utility.yul\":2188:2204   */\n  dup3\n    /* \"#utility.yul\":2164:2205   */\n  tag_16\n  jump\t// in\ntag_49:\n    /* \"#utility.yul\":2156:2162   */\n  dup5\n    /* \"#utility.yul\":2149:2153   */\n  dup5\n    /* \"#utility.yul\":2143:2154   */\n  sload\n    /* \"#utility.yul\":2115:2206   */\n  tag_12\n  jump\t// in\ntag_48:\n    /* \"#utility.yul\":2109:2113   */\n  dup3\n    /* \"#utility.yul\":2102:2207   */\n  sstore\n    /* \"#utility.yul\":2020:2213   */\n  pop\n    /* \"#utility.yul\":1944:2213   */\n  pop\n  pop\n  pop\n  jump\t// out\n    /* \"#utility.yul\":2219:2292   */\ntag_18:\n    /* \"#utility.yul\":2264:2267   */\n  0x00\n    /* \"#utility.yul\":2219:2292   */\n  swap1\n  jump\t// out\n    /* \"#utility.yul\":2298:2487   */\ntag_19:\n    /* \"#utility.yul\":2375:2407   */\n  tag_52\n  tag_18\n  jump\t// in\ntag_52:\n    /* \"#utility.yul\":2416:2481   */\n  tag_53\n    /* \"#utility.yul\":2474:2480   */\n  dup2\n    /* \"#utility.yul\":2466:2472   */\n  dup5\n    /* \"#utility.yul\":2460:2464   */\n  dup5\n    /* \"#utility.yul\":2416:2481   */\n  tag_17\n  jump\t// in\ntag_53:\n    /* \"#utility.yul\":2351:2487   */\n  pop\n    /* \"#utility.yul\":2298:2487   */\n  pop\n  pop\n  jump\t// out\n    /* \"#utility.yul\":2493:2679   */\ntag_20:\n    /* \"#utility.yul\":2553:2673   */\ntag_55:\n    /* \"#utility.yul\":2570:2573   */\n  dup2\n    /* \"#utility.yul\":2563:2568   */\n  dup2\n    /* \"#utility.yul\":2560:2574   */\n  lt\n    /* \"#utility.yul\":2553:2673   */\n  iszero\n  tag_57\n  jumpi\n    /* \"#utility.yul\":2624:2663   */\n  tag_58\n    /* \"#utility.yul\":2661:2662   */\n  0x00\n    /* \"#utility.yul\":2654:2659   */\n  dup3\n    /* \"#utility.yul\":2624:2663   */\n  tag_19\n  jump\t// in\ntag_58:\n    /* \"#utility.yul\":2597:2598   */\n  0x01\n    /* \"#utility.yul\":2590:2595   */\n  dup2\n    /* \"#utility.yul\":2586:2599   */\n  add\n    /* \"#utility.yul\":2577:2599   */\n  swap1\n  pop\n    /* \"#utility.yul\":2553:2673   */\n  jump(tag_55)\ntag_57:\n    /* \"#utility.yul\":2493:2679   */\n  pop\n  pop\n  jump\t// out\n    /* \"#utility.yul\":2685:3226   */\ntag_21:\n    /* \"#utility.yul\":2785:2787   */\n  0x1f\n    /* \"#utility.yul\":2780:2783   */\n  dup3\n    /* \"#utility.yul\":2777:2788   */\n  gt\n    /* \"#utility.yul\":2774:3219   */\n  iszero\n  tag_60\n  jumpi\n    /* \"#utility.yul\":2819:2856   */\n  tag_61\n    /* \"#utility.yul\":2850:2855   */\n  dup2\n    /* \"#utility.yul\":2819:2856   */\n  tag_9\n  jump\t// in\ntag_61:\n    /* \"#utility.yul\":2902:2931   */\n  tag_62\n    /* \"#utility.yul\":2920:2930   */\n  dup5\n    /* \"#utility.yul\":2902:2931   */\n  tag_10\n  jump\t// in\ntag_62:\n    /* \"#utility.yul\":2892:2900   */\n  dup2\n    /* \"#utility.yul\":2888:2932   */\n  add\n    /* \"#utility.yul\":3085:3087   */\n  0x20\n    /* \"#utility.yul\":3073:3083   */\n  dup6\n    /* \"#utility.yul\":3070:3088   */\n  lt\n    /* \"#utility.yul\":3067:3116   */\n  iszero\n  tag_63\n  jumpi\n    /* \"#utility.yul\":3106:3114   */\n  dup2\n    /* \"#utility.yul\":3091:3114   */\n  swap1\n  pop\n    /* \"#utility.yul\":3067:3116   */\ntag_63:\n    /* \"#utility.yul\":3129:3209   */\n  tag_64\n    /* \"#utility.yul\":3185:3207   */\n  tag_65\n    /* \"#utility.yul\":3203:3206   */\n  dup6\n    /* \"#utility.yul\":3185:3207   */\n  tag_10\n  jump\t// in\ntag_65:\n    /* \"#utility.yul\":3175:3183   */\n  dup4\n    /* \"#utility.yul\":3171:3208   */\n  add\n    /* \"#utility.yul\":3158:3169   */\n  dup3\n    /* \"#utility.yul\":3129:3209   */\n  tag_20\n  jump\t// in\ntag_64:\n    /* \"#utility.yul\":2789:3219   */\n  pop\n  pop\n    /* \"#utility.yul\":2774:3219   */\ntag_60:\n    /* \"#utility.yul\":2685:3226   */\n  pop\n  pop\n  pop\n  jump\t// out\n    /* \"#utility.yul\":3232:3349   */\ntag_22:\n    /* \"#utility.yul\":3286:3294   */\n  0x00\n    /* \"#utility.yul\":3336:3341   */\n  dup3\n    /* \"#utility.yul\":3330:3334   */\n  dup3\n    /* \"#utility.yul\":3326:3342   */\n  shr\n    /* \"#utility.yul\":3305:3342   */\n  swap1\n  pop\n    /* \"#utility.yul\":3232:3349   */\n  swap3\n  swap2\n  pop\n  pop\n  jump\t// out\n    /* \"#utility.yul\":3355:3524   */\ntag_23:\n    /* \"#utility.yul\":3399:3405   */\n  0x00\n    /* \"#utility.yul\":3432:3483   */\n  tag_68\n    /* \"#utility.yul\":3480:3481   */\n  0x00\n    /* \"#utility.yul\":3476:3482   */\n  not\n    /* \"#utility.yul\":3468:3473   */\n  dup5\n    /* \"#utility.yul\":3465:3466   */\n  0x08\n    /* \"#utility.yul\":3461:3474   */\n  mul\n    /* \"#utility.yul\":3432:3483   */\n  tag_22\n  jump\t// in\ntag_68:\n    /* \"#utility.yul\":3428:3484   */\n  not\n    /* \"#utility.yul\":3513:3517   */\n  dup1\n    /* \"#utility.yul\":3507:3511   */\n  dup4\n    /* \"#utility.yul\":3503:3518   */\n  and\n    /* \"#utility.yul\":3493:3518   */\n  swap2\n  pop\n    /* \"#utility.yul\":3406:3524   */\n  pop\n    /* \"#utility.yul\":3355:3524   */\n  swap3\n  swap2\n  pop\n  pop\n  jump\t// out\n    /* \"#utility.yul\":3529:3824   */\ntag_24:\n    /* \"#utility.yul\":3605:3609   */\n  0x00\n    /* \"#utility.yul\":3751:3780   */\n  tag_70\n    /* \"#utility.yul\":3776:3779   */\n  dup4\n    /* \"#utility.yul\":3770:3774   */\n  dup4\n    /* \"#utility.yul\":3751:3780   */\n  tag_23\n  jump\t// in\ntag_70:\n    /* \"#utility.yul\":3743:3780   */\n  swap2\n  pop\n    /* \"#utility.yul\":3813:3816   */\n  dup3\n    /* \"#utility.yul\":3810:3811   */\n  0x02\n    /* \"#utility.yul\":3806:3817   */\n  mul\n    /* \"#utility.yul\":3800:3804   */\n  dup3\n    /* \"#utility.yul\":3797:3818   */\n  or\n    /* \"#utility.yul\":3789:3818   */\n  swap1\n  pop\n    /* \"#utility.yul\":3529:3824   */\n  swap3\n  swap2\n  pop\n  pop\n  jump\t// out\n    /* \"#utility.yul\":3829:5219   */\ntag_2:\n    /* \"#utility.yul\":3944:3980   */\n  tag_72\n    /* \"#utility.yul\":3976:3979   */\n  dup3\n    /* \"#utility.yul\":3944:3980   */\n  tag_5\n  jump\t// in\ntag_72:\n    /* \"#utility.yul\":4045:4063   */\n  0xffffffffffffffff\n    /* \"#utility.yul\":4037:4043   */\n  dup2\n    /* \"#utility.yul\":4034:4064   */\n  gt\n    /* \"#utility.yul\":4031:4087   */\n  iszero\n  tag_73\n  jumpi\n    /* \"#utility.yul\":4067:4085   */\n  tag_74\n  tag_6\n  jump\t// in\ntag_74:\n    /* \"#utility.yul\":4031:4087   */\ntag_73:\n    /* \"#utility.yul\":4111:4149   */\n  tag_75\n    /* \"#utility.yul\":4143:4147   */\n  dup3\n    /* \"#utility.yul\":4137:4148   */\n  sload\n    /* \"#utility.yul\":4111:4149   */\n  tag_8\n  jump\t// in\ntag_75:\n    /* \"#utility.yul\":4196:4262   */\n  tag_76\n    /* \"#utility.yul\":4255:4261   */\n  dup3\n    /* \"#utility.yul\":4247:4253   */\n  dup3\n    /* \"#utility.yul\":4241:4245   */\n  dup6\n    /* \"#utility.yul\":4196:4262   */\n  tag_21\n  jump\t// in\ntag_76:\n    /* \"#utility.yul\":4289:4290   */\n  0x00\n    /* \"#utility.yul\":4313:4317   */\n  0x20\n    /* \"#utility.yul\":4300:4317   */\n  swap1\n  pop\n    /* \"#utility.yul\":4345:4347   */\n  0x1f\n    /* \"#utility.yul\":4337:4343   */\n  dup4\n    /* \"#utility.yul\":4334:4348   */\n  gt\n    /* \"#utility.yul\":4362:4363   */\n  0x01\n    /* \"#utility.yul\":4357:4974   */\n  dup2\n  eq\n  tag_78\n  jumpi\n    /* \"#utility.yul\":5018:5019   */\n  0x00\n    /* \"#utility.yul\":5035:5041   */\n  dup5\n    /* \"#utility.yul\":5032:5109   */\n  iszero\n  tag_79\n  jumpi\n    /* \"#utility.yul\":5084:5093   */\n  dup3\n    /* \"#utility.yul\":5079:5082   */\n  dup8\n    /* \"#utility.yul\":5075:5094   */\n  add\n    /* \"#utility.yul\":5069:5095   */\n  mload\n    /* \"#utility.yul\":5060:5095   */\n  swap1\n  pop\n    /* \"#utility.yul\":5032:5109   */\ntag_79:\n    /* \"#utility.yul\":5135:5202   */\n  tag_80\n    /* \"#utility.yul\":5195:5201   */\n  dup6\n    /* \"#utility.yul\":5188:5193   */\n  dup3\n    /* \"#utility.yul\":5135:5202   */\n  tag_24\n  jump\t// in\ntag_80:\n    /* \"#utility.yul\":5129:5133   */\n  dup7\n    /* \"#utility.yul\":5122:5203   */\n  sstore\n    /* \"#utility.yul\":4991:5213   */\n  pop\n    /* \"#utility.yul\":4327:5213   */\n  jump(tag_77)\n    /* \"#utility.yul\":4357:4974   */\ntag_78:\n    /* \"#utility.yul\":4409:4413   */\n  0x1f\n    /* \"#utility.yul\":4405:4414   */\n  not\n    /* \"#utility.yul\":4397:4403   */\n  dup5\n    /* \"#utility.yul\":4393:4415   */\n  and\n    /* \"#utility.yul\":4443:4479   */\n  tag_81\n    /* \"#utility.yul\":4474:4478   */\n  dup7\n    /* \"#utility.yul\":4443:4479   */\n  tag_9\n  jump\t// in\ntag_81:\n    /* \"#utility.yul\":4501:4502   */\n  0x00\n    /* \"#utility.yul\":4515:4723   */\ntag_82:\n    /* \"#utility.yul\":4529:4536   */\n  dup3\n    /* \"#utility.yul\":4526:4527   */\n  dup2\n    /* \"#utility.yul\":4523:4537   */\n  lt\n    /* \"#utility.yul\":4515:4723   */\n  iszero\n  tag_84\n  jumpi\n    /* \"#utility.yul\":4608:4617   */\n  dup5\n    /* \"#utility.yul\":4603:4606   */\n  dup10\n    /* \"#utility.yul\":4599:4618   */\n  add\n    /* \"#utility.yul\":4593:4619   */\n  mload\n    /* \"#utility.yul\":4585:4591   */\n  dup3\n    /* \"#utility.yul\":4578:4620   */\n  sstore\n    /* \"#utility.yul\":4659:4660   */\n  0x01\n    /* \"#utility.yul\":4651:4657   */\n  dup3\n    /* \"#utility.yul\":4647:4661   */\n  add\n    /* \"#utility.yul\":4637:4661   */\n  swap2\n  pop\n    /* \"#utility.yul\":4706:4708   */\n  0x20\n    /* \"#utility.yul\":4695:4704   */\n  dup6\n    /* \"#utility.yul\":4691:4709   */\n  add\n    /* \"#utility.yul\":4678:4709   */\n  swap5\n  pop\n    /* \"#utility.yul\":4552:4556   */\n  0x20\n    /* \"#utility.yul\":4549:4550   */\n  dup2\n    /* \"#utility.yul\":4545:4557   */\n  add\n    /* \"#utility.yul\":4540:4557   */\n  swap1\n  pop\n    /* \"#utility.yul\":4515:4723   */\n  jump(tag_82)\ntag_84:\n    /* \"#utility.yul\":4751:4757   */\n  dup7\n    /* \"#utility.yul\":4742:4749   */\n  dup4\n    /* \"#utility.yul\":4739:4758   */\n  lt\n    /* \"#utility.yul\":4736:4915   */\n  iszero\n  tag_85\n  jumpi\n    /* \"#utility.yul\":4809:4818   */\n  dup5\n    /* \"#utility.yul\":4804:4807   */\n  dup10\n    /* \"#utility.yul\":4800:4819   */\n  add\n    /* \"#utility.yul\":4794:4820   */\n  mload\n    /* \"#utility.yul\":4852:4900   */\n  tag_86\n    /* \"#utility.yul\":4894:4898   */\n  0x1f\n    /* \"#utility.yul\":4886:4892   */\n  dup10\n    /* \"#utility.yul\":4882:4899   */\n  and\n    /* \"#utility.yul\":4871:4880   */\n  dup3\n    /* \"#utility.yul\":4852:4900   */\n  tag_23\n  jump\t// in\ntag_86:\n    /* \"#utility.yul\":4844:4850   */\n  dup4\n    /* \"#utility.yul\":4837:4901   */\n  sstore\n    /* \"#utility.yul\":4759:4915   */\n  pop\n    /* \"#utility.yul\":4736:4915   */\ntag_85:\n    /* \"#utility.yul\":4961:4962   */\n  0x01\n    /* \"#utility.yul\":4957:4958   */\n  0x02\n    /* \"#utility.yul\":4949:4955   */\n  dup9\n    /* \"#utility.yul\":4945:4959   */\n  mul\n    /* \"#utility.yul\":4941:4963   */\n  add\n    /* \"#utility.yul\":4935:4939   */\n  dup9\n    /* \"#utility.yul\":4928:4964   */\n  sstore\n    /* \"#utility.yul\":4364:4974   */\n  pop\n  pop\n  pop\n    /* \"#utility.yul\":4327:5213   */\ntag_77:\n  pop\n    /* \"#utility.yul\":3919:5219   */\n  pop\n  pop\n  pop\n    /* \"#utility.yul\":3829:5219   */\n  pop\n  pop\n  jump\t// out\n    /* \"gist-17a8a29b2f8ae432e8bac0b88cff8bb1/OOV3_GettingStarted.sol\":586:2434  contract OOV3_GettingStarted {... */\ntag_4:\n  dataSize(sub_0)\n  dup1\n  dataOffset(sub_0)\n  0x00\n  codecopy\n  0x00\n  return\nstop\n\nsub_0: assembly {\n        /* \"gist-17a8a29b2f8ae432e8bac0b88cff8bb1/OOV3_GettingStarted.sol\":586:2434  contract OOV3_GettingStarted {... */\n      mstore(0x40, 0x80)\n      callvalue\n      dup1\n      iszero\n      tag_1\n      jumpi\n      0x00\n      dup1\n      revert\n    tag_1:\n      pop\n      jumpi(tag_2, lt(calldatasize, 0x04))\n      shr(0xe0, calldataload(0x00))\n      dup1\n      0x0d80da74\n      eq\n      tag_3\n      jumpi\n      dup1\n      0x3421390b\n      eq\n      tag_4\n      jumpi\n      dup1\n      0x7facaf3f\n      eq\n      tag_5\n      jumpi\n      dup1\n      0x9a3ddabc\n      eq\n      tag_6\n      jumpi\n      dup1\n      0xbc1dbc52\n      eq\n      tag_7\n      jumpi\n      dup1\n      0xc1a8ec2c\n      eq\n      tag_8\n      jumpi\n    tag_2:\n      0x00\n      dup1\n      revert\n        /* \"gist-17a8a29b2f8ae432e8bac0b88cff8bb1/OOV3_GettingStarted.sol\":1136:1162  bytes32 public assertionId */\n    tag_3:\n      tag_9\n      tag_10\n      jump\t// in\n    tag_9:\n      mload(0x40)\n      tag_11\n      swap2\n      swap1\n      tag_12\n      jump\t// in\n    tag_11:\n      mload(0x40)\n      dup1\n      swap2\n      sub\n      swap1\n      return\n        /* \"gist-17a8a29b2f8ae432e8bac0b88cff8bb1/OOV3_GettingStarted.sol\":1525:1644  function assertTruth() public {... */\n    tag_4:\n      tag_13\n      tag_14\n      jump\t// in\n    tag_13:\n      stop\n        /* \"gist-17a8a29b2f8ae432e8bac0b88cff8bb1/OOV3_GettingStarted.sol\":2017:2134  function getAssertionResult() public view returns (bool) {... */\n    tag_5:\n      tag_15\n      tag_16\n      jump\t// in\n    tag_15:\n      mload(0x40)\n      tag_17\n      swap2\n      swap1\n      tag_18\n      jump\t// in\n    tag_17:\n      mload(0x40)\n      dup1\n      swap2\n      sub\n      swap1\n      return\n        /* \"gist-17a8a29b2f8ae432e8bac0b88cff8bb1/OOV3_GettingStarted.sol\":2259:2432  function getAssertion()... */\n    tag_6:\n      tag_19\n      tag_20\n      jump\t// in\n    tag_19:\n      mload(0x40)\n      tag_21\n      swap2\n      swap1\n      tag_22\n      jump\t// in\n    tag_21:\n      mload(0x40)\n      dup1\n      swap2\n      sub\n      swap1\n      return\n        /* \"gist-17a8a29b2f8ae432e8bac0b88cff8bb1/OOV3_GettingStarted.sol\":1784:1914  function settleAndGetAssertionResult() public returns (bool) {... */\n    tag_7:\n      tag_23\n      tag_24\n      jump\t// in\n    tag_23:\n      mload(0x40)\n      tag_25\n      swap2\n      swap1\n      tag_18\n      jump\t// in\n    tag_25:\n      mload(0x40)\n      dup1\n      swap2\n      sub\n      swap1\n      return\n        /* \"gist-17a8a29b2f8ae432e8bac0b88cff8bb1/OOV3_GettingStarted.sol\":941:1013  bytes public assertedClaim =... */\n    tag_8:\n      tag_26\n      tag_27\n      jump\t// in\n    tag_26:\n      mload(0x40)\n      tag_28\n      swap2\n      swap1\n      tag_29\n      jump\t// in\n    tag_28:\n      mload(0x40)\n      dup1\n      swap2\n      sub\n      swap1\n      return\n        /* \"gist-17a8a29b2f8ae432e8bac0b88cff8bb1/OOV3_GettingStarted.sol\":1136:1162  bytes32 public assertionId */\n    tag_10:\n      sload(0x02)\n      dup2\n      jump\t// out\n        /* \"gist-17a8a29b2f8ae432e8bac0b88cff8bb1/OOV3_GettingStarted.sol\":1525:1644  function assertTruth() public {... */\n    tag_14:\n        /* \"gist-17a8a29b2f8ae432e8bac0b88cff8bb1/OOV3_GettingStarted.sol\":1579:1583  oov3 */\n      0x00\n      dup1\n      sload\n      swap1\n      0x0100\n      exp\n      swap1\n      div\n      0xffffffffffffffffffffffffffffffffffffffff\n      and\n        /* \"gist-17a8a29b2f8ae432e8bac0b88cff8bb1/OOV3_GettingStarted.sol\":1579:1607  oov3.assertTruthWithDefaults */\n      0xffffffffffffffffffffffffffffffffffffffff\n      and\n      0x36b13af4\n        /* \"gist-17a8a29b2f8ae432e8bac0b88cff8bb1/OOV3_GettingStarted.sol\":1608:1621  assertedClaim */\n      0x01\n        /* \"gist-17a8a29b2f8ae432e8bac0b88cff8bb1/OOV3_GettingStarted.sol\":1631:1635  this */\n      address\n        /* \"gist-17a8a29b2f8ae432e8bac0b88cff8bb1/OOV3_GettingStarted.sol\":1579:1637  oov3.assertTruthWithDefaults(assertedClaim, address(this)) */\n      mload(0x40)\n      dup4\n      0xffffffff\n      and\n      0xe0\n      shl\n      dup2\n      mstore\n      0x04\n      add\n      tag_31\n      swap3\n      swap2\n      swap1\n      tag_32\n      jump\t// in\n    tag_31:\n      0x20\n      mload(0x40)\n      dup1\n      dup4\n      sub\n      dup2\n      0x00\n      dup8\n      gas\n      call\n      iszero\n      dup1\n      iszero\n      tag_34\n      jumpi\n      returndatasize\n      0x00\n      dup1\n      returndatacopy\n      revert(0x00, returndatasize)\n    tag_34:\n      pop\n      pop\n      pop\n      pop\n      mload(0x40)\n      returndatasize\n      not(0x1f)\n      0x1f\n      dup3\n      add\n      and\n      dup3\n      add\n      dup1\n      0x40\n      mstore\n      pop\n      dup2\n      add\n      swap1\n      tag_35\n      swap2\n      swap1\n      tag_36\n      jump\t// in\n    tag_35:\n        /* \"gist-17a8a29b2f8ae432e8bac0b88cff8bb1/OOV3_GettingStarted.sol\":1565:1576  assertionId */\n      0x02\n        /* \"gist-17a8a29b2f8ae432e8bac0b88cff8bb1/OOV3_GettingStarted.sol\":1565:1637  assertionId = oov3.assertTruthWithDefaults(assertedClaim, address(this)) */\n      dup2\n      swap1\n      sstore\n      pop\n        /* \"gist-17a8a29b2f8ae432e8bac0b88cff8bb1/OOV3_GettingStarted.sol\":1525:1644  function assertTruth() public {... */\n      jump\t// out\n        /* \"gist-17a8a29b2f8ae432e8bac0b88cff8bb1/OOV3_GettingStarted.sol\":2017:2134  function getAssertionResult() public view returns (bool) {... */\n    tag_16:\n        /* \"gist-17a8a29b2f8ae432e8bac0b88cff8bb1/OOV3_GettingStarted.sol\":2068:2072  bool */\n      0x00\n        /* \"gist-17a8a29b2f8ae432e8bac0b88cff8bb1/OOV3_GettingStarted.sol\":2091:2095  oov3 */\n      dup1\n      0x00\n      swap1\n      sload\n      swap1\n      0x0100\n      exp\n      swap1\n      div\n      0xffffffffffffffffffffffffffffffffffffffff\n      and\n        /* \"gist-17a8a29b2f8ae432e8bac0b88cff8bb1/OOV3_GettingStarted.sol\":2091:2114  oov3.getAssertionResult */\n      0xffffffffffffffffffffffffffffffffffffffff\n      and\n      0xe39dfd7f\n        /* \"gist-17a8a29b2f8ae432e8bac0b88cff8bb1/OOV3_GettingStarted.sol\":2115:2126  assertionId */\n      sload(0x02)\n        /* \"gist-17a8a29b2f8ae432e8bac0b88cff8bb1/OOV3_GettingStarted.sol\":2091:2127  oov3.getAssertionResult(assertionId) */\n      mload(0x40)\n      dup3\n      0xffffffff\n      and\n      0xe0\n      shl\n      dup2\n      mstore\n      0x04\n      add\n      tag_38\n      swap2\n      swap1\n      tag_12\n      jump\t// in\n    tag_38:\n      0x20\n      mload(0x40)\n      dup1\n      dup4\n      sub\n      dup2\n      dup7\n      gas\n      staticcall\n      iszero\n      dup1\n      iszero\n      tag_40\n      jumpi\n      returndatasize\n      0x00\n      dup1\n      returndatacopy\n      revert(0x00, returndatasize)\n    tag_40:\n      pop\n      pop\n      pop\n      pop\n      mload(0x40)\n      returndatasize\n      not(0x1f)\n      0x1f\n      dup3\n      add\n      and\n      dup3\n      add\n      dup1\n      0x40\n      mstore\n      pop\n      dup2\n      add\n      swap1\n      tag_41\n      swap2\n      swap1\n      tag_42\n      jump\t// in\n    tag_41:\n        /* \"gist-17a8a29b2f8ae432e8bac0b88cff8bb1/OOV3_GettingStarted.sol\":2084:2127  return oov3.getAssertionResult(assertionId) */\n      swap1\n      pop\n        /* \"gist-17a8a29b2f8ae432e8bac0b88cff8bb1/OOV3_GettingStarted.sol\":2017:2134  function getAssertionResult() public view returns (bool) {... */\n      swap1\n      jump\t// out\n        /* \"gist-17a8a29b2f8ae432e8bac0b88cff8bb1/OOV3_GettingStarted.sol\":2259:2432  function getAssertion()... */\n    tag_20:\n        /* \"gist-17a8a29b2f8ae432e8bac0b88cff8bb1/OOV3_GettingStarted.sol\":2328:2372  OptimisticOracleV3Interface.Assertion memory */\n      tag_43\n      tag_44\n      jump\t// in\n    tag_43:\n        /* \"gist-17a8a29b2f8ae432e8bac0b88cff8bb1/OOV3_GettingStarted.sol\":2395:2399  oov3 */\n      0x00\n      dup1\n      sload\n      swap1\n      0x0100\n      exp\n      swap1\n      div\n      0xffffffffffffffffffffffffffffffffffffffff\n      and\n        /* \"gist-17a8a29b2f8ae432e8bac0b88cff8bb1/OOV3_GettingStarted.sol\":2395:2412  oov3.getAssertion */\n      0xffffffffffffffffffffffffffffffffffffffff\n      and\n      0x88302884\n        /* \"gist-17a8a29b2f8ae432e8bac0b88cff8bb1/OOV3_GettingStarted.sol\":2413:2424  assertionId */\n      sload(0x02)\n        /* \"gist-17a8a29b2f8ae432e8bac0b88cff8bb1/OOV3_GettingStarted.sol\":2395:2425  oov3.getAssertion(assertionId) */\n      mload(0x40)\n      dup3\n      0xffffffff\n      and\n      0xe0\n      shl\n      dup2\n      mstore\n      0x04\n      add\n      tag_46\n      swap2\n      swap1\n      tag_12\n      jump\t// in\n    tag_46:\n      0x0200\n      mload(0x40)\n      dup1\n      dup4\n      sub\n      dup2\n      dup7\n      gas\n      staticcall\n      iszero\n      dup1\n      iszero\n      tag_48\n      jumpi\n      returndatasize\n      0x00\n      dup1\n      returndatacopy\n      revert(0x00, returndatasize)\n    tag_48:\n      pop\n      pop\n      pop\n      pop\n      mload(0x40)\n      returndatasize\n      not(0x1f)\n      0x1f\n      dup3\n      add\n      and\n      dup3\n      add\n      dup1\n      0x40\n      mstore\n      pop\n      dup2\n      add\n      swap1\n      tag_49\n      swap2\n      swap1\n      tag_50\n      jump\t// in\n    tag_49:\n        /* \"gist-17a8a29b2f8ae432e8bac0b88cff8bb1/OOV3_GettingStarted.sol\":2388:2425  return oov3.getAssertion(assertionId) */\n      swap1\n      pop\n        /* \"gist-17a8a29b2f8ae432e8bac0b88cff8bb1/OOV3_GettingStarted.sol\":2259:2432  function getAssertion()... */\n      swap1\n      jump\t// out\n        /* \"gist-17a8a29b2f8ae432e8bac0b88cff8bb1/OOV3_GettingStarted.sol\":1784:1914  function settleAndGetAssertionResult() public returns (bool) {... */\n    tag_24:\n        /* \"gist-17a8a29b2f8ae432e8bac0b88cff8bb1/OOV3_GettingStarted.sol\":1839:1843  bool */\n      0x00\n        /* \"gist-17a8a29b2f8ae432e8bac0b88cff8bb1/OOV3_GettingStarted.sol\":1862:1866  oov3 */\n      dup1\n      0x00\n      swap1\n      sload\n      swap1\n      0x0100\n      exp\n      swap1\n      div\n      0xffffffffffffffffffffffffffffffffffffffff\n      and\n        /* \"gist-17a8a29b2f8ae432e8bac0b88cff8bb1/OOV3_GettingStarted.sol\":1862:1894  oov3.settleAndGetAssertionResult */\n      0xffffffffffffffffffffffffffffffffffffffff\n      and\n      0x8ea2f2ab\n        /* \"gist-17a8a29b2f8ae432e8bac0b88cff8bb1/OOV3_GettingStarted.sol\":1895:1906  assertionId */\n      sload(0x02)\n        /* \"gist-17a8a29b2f8ae432e8bac0b88cff8bb1/OOV3_GettingStarted.sol\":1862:1907  oov3.settleAndGetAssertionResult(assertionId) */\n      mload(0x40)\n      dup3\n      0xffffffff\n      and\n      0xe0\n      shl\n      dup2\n      mstore\n      0x04\n      add\n      tag_52\n      swap2\n      swap1\n      tag_12\n      jump\t// in\n    tag_52:\n      0x20\n      mload(0x40)\n      dup1\n      dup4\n      sub\n      dup2\n      0x00\n      dup8\n      gas\n      call\n      iszero\n      dup1\n      iszero\n      tag_54\n      jumpi\n      returndatasize\n      0x00\n      dup1\n      returndatacopy\n      revert(0x00, returndatasize)\n    tag_54:\n      pop\n      pop\n      pop\n      pop\n      mload(0x40)\n      returndatasize\n      not(0x1f)\n      0x1f\n      dup3\n      add\n      and\n      dup3\n      add\n      dup1\n      0x40\n      mstore\n      pop\n      dup2\n      add\n      swap1\n      tag_55\n      swap2\n      swap1\n      tag_42\n      jump\t// in\n    tag_55:\n        /* \"gist-17a8a29b2f8ae432e8bac0b88cff8bb1/OOV3_GettingStarted.sol\":1855:1907  return oov3.settleAndGetAssertionResult(assertionId) */\n      swap1\n      pop\n        /* \"gist-17a8a29b2f8ae432e8bac0b88cff8bb1/OOV3_GettingStarted.sol\":1784:1914  function settleAndGetAssertionResult() public returns (bool) {... */\n      swap1\n      jump\t// out\n        /* \"gist-17a8a29b2f8ae432e8bac0b88cff8bb1/OOV3_GettingStarted.sol\":941:1013  bytes public assertedClaim =... */\n    tag_27:\n      0x01\n      dup1\n      sload\n      tag_56\n      swap1\n      tag_57\n      jump\t// in\n    tag_56:\n      dup1\n      0x1f\n      add\n      0x20\n      dup1\n      swap2\n      div\n      mul\n      0x20\n      add\n      mload(0x40)\n      swap1\n      dup2\n      add\n      0x40\n      mstore\n      dup1\n      swap3\n      swap2\n      swap1\n      dup2\n      dup2\n      mstore\n      0x20\n      add\n      dup3\n      dup1\n      sload\n      tag_58\n      swap1\n      tag_57\n      jump\t// in\n    tag_58:\n      dup1\n      iszero\n      tag_59\n      jumpi\n      dup1\n      0x1f\n      lt\n      tag_60\n      jumpi\n      0x0100\n      dup1\n      dup4\n      sload\n      div\n      mul\n      dup4\n      mstore\n      swap2\n      0x20\n      add\n      swap2\n      jump(tag_59)\n    tag_60:\n      dup3\n      add\n      swap2\n      swap1\n      0x00\n      mstore\n      keccak256(0x00, 0x20)\n      swap1\n    tag_61:\n      dup2\n      sload\n      dup2\n      mstore\n      swap1\n      0x01\n      add\n      swap1\n      0x20\n      add\n      dup1\n      dup4\n      gt\n      tag_61\n      jumpi\n      dup3\n      swap1\n      sub\n      0x1f\n      and\n      dup3\n      add\n      swap2\n    tag_59:\n      pop\n      pop\n      pop\n      pop\n      pop\n      dup2\n      jump\t// out\n    tag_44:\n      mload(0x40)\n      dup1\n      0x0180\n      add\n      0x40\n      mstore\n      dup1\n      tag_62\n      tag_63\n      jump\t// in\n    tag_62:\n      dup2\n      mstore\n      0x20\n      add\n      and(0xffffffffffffffffffffffffffffffffffffffff, 0x00)\n      dup2\n      mstore\n      0x20\n      add\n      and(0xffffffffffffffff, 0x00)\n      dup2\n      mstore\n      0x20\n      add\n      iszero(iszero(0x00))\n      dup2\n      mstore\n      0x20\n      add\n      and(0xffffffffffffffffffffffffffffffffffffffff, 0x00)\n      dup2\n      mstore\n      0x20\n      add\n      and(0xffffffffffffffff, 0x00)\n      dup2\n      mstore\n      0x20\n      add\n      iszero(iszero(0x00))\n      dup2\n      mstore\n      0x20\n      add\n      0x00\n      dup1\n      not\n      and\n      dup2\n      mstore\n      0x20\n      add\n      0x00\n      dup1\n      not\n      and\n      dup2\n      mstore\n      0x20\n      add\n      0x00\n      dup2\n      mstore\n      0x20\n      add\n      and(0xffffffffffffffffffffffffffffffffffffffff, 0x00)\n      dup2\n      mstore\n      0x20\n      add\n      and(0xffffffffffffffffffffffffffffffffffffffff, 0x00)\n      dup2\n      mstore\n      pop\n      swap1\n      jump\t// out\n    tag_63:\n      mload(0x40)\n      dup1\n      0xa0\n      add\n      0x40\n      mstore\n      dup1\n      iszero(iszero(0x00))\n      dup2\n      mstore\n      0x20\n      add\n      iszero(iszero(0x00))\n      dup2\n      mstore\n      0x20\n      add\n      iszero(iszero(0x00))\n      dup2\n      mstore\n      0x20\n      add\n      and(0xffffffffffffffffffffffffffffffffffffffff, 0x00)\n      dup2\n      mstore\n      0x20\n      add\n      and(0xffffffffffffffffffffffffffffffffffffffff, 0x00)\n      dup2\n      mstore\n      pop\n      swap1\n      jump\t// out\n        /* \"#utility.yul\":7:84   */\n    tag_64:\n        /* \"#utility.yul\":44:51   */\n      0x00\n        /* \"#utility.yul\":73:78   */\n      dup2\n        /* \"#utility.yul\":62:78   */\n      swap1\n      pop\n        /* \"#utility.yul\":7:84   */\n      swap2\n      swap1\n      pop\n      jump\t// out\n        /* \"#utility.yul\":90:208   */\n    tag_65:\n        /* \"#utility.yul\":177:201   */\n      tag_119\n        /* \"#utility.yul\":195:200   */\n      dup2\n        /* \"#utility.yul\":177:201   */\n      tag_64\n      jump\t// in\n    tag_119:\n        /* \"#utility.yul\":172:175   */\n      dup3\n        /* \"#utility.yul\":165:202   */\n      mstore\n        /* \"#utility.yul\":90:208   */\n      pop\n      pop\n      jump\t// out\n        /* \"#utility.yul\":214:436   */\n    tag_12:\n        /* \"#utility.yul\":307:311   */\n      0x00\n        /* \"#utility.yul\":345:347   */\n      0x20\n        /* \"#utility.yul\":334:343   */\n      dup3\n        /* \"#utility.yul\":330:348   */\n      add\n        /* \"#utility.yul\":322:348   */\n      swap1\n      pop\n        /* \"#utility.yul\":358:429   */\n      tag_121\n        /* \"#utility.yul\":426:427   */\n      0x00\n        /* \"#utility.yul\":415:424   */\n      dup4\n        /* \"#utility.yul\":411:428   */\n      add\n        /* \"#utility.yul\":402:408   */\n      dup5\n        /* \"#utility.yul\":358:429   */\n      tag_65\n      jump\t// in\n    tag_121:\n        /* \"#utility.yul\":214:436   */\n      swap3\n      swap2\n      pop\n      pop\n      jump\t// out\n        /* \"#utility.yul\":442:532   */\n    tag_66:\n        /* \"#utility.yul\":476:483   */\n      0x00\n        /* \"#utility.yul\":519:524   */\n      dup2\n        /* \"#utility.yul\":512:525   */\n      iszero\n        /* \"#utility.yul\":505:526   */\n      iszero\n        /* \"#utility.yul\":494:526   */\n      swap1\n      pop\n        /* \"#utility.yul\":442:532   */\n      swap2\n      swap1\n      pop\n      jump\t// out\n        /* \"#utility.yul\":538:647   */\n    tag_67:\n        /* \"#utility.yul\":619:640   */\n      tag_124\n        /* \"#utility.yul\":634:639   */\n      dup2\n        /* \"#utility.yul\":619:640   */\n      tag_66\n      jump\t// in\n    tag_124:\n        /* \"#utility.yul\":614:617   */\n      dup3\n        /* \"#utility.yul\":607:641   */\n      mstore\n        /* \"#utility.yul\":538:647   */\n      pop\n      pop\n      jump\t// out\n        /* \"#utility.yul\":653:863   */\n    tag_18:\n        /* \"#utility.yul\":740:744   */\n      0x00\n        /* \"#utility.yul\":778:780   */\n      0x20\n        /* \"#utility.yul\":767:776   */\n      dup3\n        /* \"#utility.yul\":763:781   */\n      add\n        /* \"#utility.yul\":755:781   */\n      swap1\n      pop\n        /* \"#utility.yul\":791:856   */\n      tag_126\n        /* \"#utility.yul\":853:854   */\n      0x00\n        /* \"#utility.yul\":842:851   */\n      dup4\n        /* \"#utility.yul\":838:855   */\n      add\n        /* \"#utility.yul\":829:835   */\n      dup5\n        /* \"#utility.yul\":791:856   */\n      tag_67\n      jump\t// in\n    tag_126:\n        /* \"#utility.yul\":653:863   */\n      swap3\n      swap2\n      pop\n      pop\n      jump\t// out\n        /* \"#utility.yul\":869:968   */\n    tag_68:\n        /* \"#utility.yul\":940:961   */\n      tag_128\n        /* \"#utility.yul\":955:960   */\n      dup2\n        /* \"#utility.yul\":940:961   */\n      tag_66\n      jump\t// in\n    tag_128:\n        /* \"#utility.yul\":935:938   */\n      dup3\n        /* \"#utility.yul\":928:962   */\n      mstore\n        /* \"#utility.yul\":869:968   */\n      pop\n      pop\n      jump\t// out\n        /* \"#utility.yul\":974:1100   */\n    tag_69:\n        /* \"#utility.yul\":1011:1018   */\n      0x00\n        /* \"#utility.yul\":1051:1093   */\n      0xffffffffffffffffffffffffffffffffffffffff\n        /* \"#utility.yul\":1044:1049   */\n      dup3\n        /* \"#utility.yul\":1040:1094   */\n      and\n        /* \"#utility.yul\":1029:1094   */\n      swap1\n      pop\n        /* \"#utility.yul\":974:1100   */\n      swap2\n      swap1\n      pop\n      jump\t// out\n        /* \"#utility.yul\":1106:1202   */\n    tag_70:\n        /* \"#utility.yul\":1143:1150   */\n      0x00\n        /* \"#utility.yul\":1172:1196   */\n      tag_131\n        /* \"#utility.yul\":1190:1195   */\n      dup3\n        /* \"#utility.yul\":1172:1196   */\n      tag_69\n      jump\t// in\n    tag_131:\n        /* \"#utility.yul\":1161:1196   */\n      swap1\n      pop\n        /* \"#utility.yul\":1106:1202   */\n      swap2\n      swap1\n      pop\n      jump\t// out\n        /* \"#utility.yul\":1208:1316   */\n    tag_71:\n        /* \"#utility.yul\":1285:1309   */\n      tag_133\n        /* \"#utility.yul\":1303:1308   */\n      dup2\n        /* \"#utility.yul\":1285:1309   */\n      tag_70\n      jump\t// in\n    tag_133:\n        /* \"#utility.yul\":1280:1283   */\n      dup3\n        /* \"#utility.yul\":1273:1310   */\n      mstore\n        /* \"#utility.yul\":1208:1316   */\n      pop\n      pop\n      jump\t// out\n        /* \"#utility.yul\":1454:2560   */\n    tag_72:\n        /* \"#utility.yul\":1625:1629   */\n      0xa0\n        /* \"#utility.yul\":1620:1623   */\n      dup3\n        /* \"#utility.yul\":1616:1630   */\n      add\n        /* \"#utility.yul\":1737:1741   */\n      0x00\n        /* \"#utility.yul\":1730:1735   */\n      dup3\n        /* \"#utility.yul\":1726:1742   */\n      add\n        /* \"#utility.yul\":1720:1743   */\n      mload\n        /* \"#utility.yul\":1756:1813   */\n      tag_135\n        /* \"#utility.yul\":1807:1811   */\n      0x00\n        /* \"#utility.yul\":1802:1805   */\n      dup6\n        /* \"#utility.yul\":1798:1812   */\n      add\n        /* \"#utility.yul\":1784:1796   */\n      dup3\n        /* \"#utility.yul\":1756:1813   */\n      tag_68\n      jump\t// in\n    tag_135:\n        /* \"#utility.yul\":1640:1823   */\n      pop\n        /* \"#utility.yul\":1914:1918   */\n      0x20\n        /* \"#utility.yul\":1907:1912   */\n      dup3\n        /* \"#utility.yul\":1903:1919   */\n      add\n        /* \"#utility.yul\":1897:1920   */\n      mload\n        /* \"#utility.yul\":1933:1990   */\n      tag_136\n        /* \"#utility.yul\":1984:1988   */\n      0x20\n        /* \"#utility.yul\":1979:1982   */\n      dup6\n        /* \"#utility.yul\":1975:1989   */\n      add\n        /* \"#utility.yul\":1961:1973   */\n      dup3\n        /* \"#utility.yul\":1933:1990   */\n      tag_68\n      jump\t// in\n    tag_136:\n        /* \"#utility.yul\":1833:2000   */\n      pop\n        /* \"#utility.yul\":2095:2099   */\n      0x40\n        /* \"#utility.yul\":2088:2093   */\n      dup3\n        /* \"#utility.yul\":2084:2100   */\n      add\n        /* \"#utility.yul\":2078:2101   */\n      mload\n        /* \"#utility.yul\":2114:2171   */\n      tag_137\n        /* \"#utility.yul\":2165:2169   */\n      0x40\n        /* \"#utility.yul\":2160:2163   */\n      dup6\n        /* \"#utility.yul\":2156:2170   */\n      add\n        /* \"#utility.yul\":2142:2154   */\n      dup3\n        /* \"#utility.yul\":2114:2171   */\n      tag_68\n      jump\t// in\n    tag_137:\n        /* \"#utility.yul\":2010:2181   */\n      pop\n        /* \"#utility.yul\":2274:2278   */\n      0x60\n        /* \"#utility.yul\":2267:2272   */\n      dup3\n        /* \"#utility.yul\":2263:2279   */\n      add\n        /* \"#utility.yul\":2257:2280   */\n      mload\n        /* \"#utility.yul\":2293:2356   */\n      tag_138\n        /* \"#utility.yul\":2350:2354   */\n      0x60\n        /* \"#utility.yul\":2345:2348   */\n      dup6\n        /* \"#utility.yul\":2341:2355   */\n      add\n        /* \"#utility.yul\":2327:2339   */\n      dup3\n        /* \"#utility.yul\":2293:2356   */\n      tag_71\n      jump\t// in\n    tag_138:\n        /* \"#utility.yul\":2191:2366   */\n      pop\n        /* \"#utility.yul\":2461:2465   */\n      0x80\n        /* \"#utility.yul\":2454:2459   */\n      dup3\n        /* \"#utility.yul\":2450:2466   */\n      add\n        /* \"#utility.yul\":2444:2467   */\n      mload\n        /* \"#utility.yul\":2480:2543   */\n      tag_139\n        /* \"#utility.yul\":2537:2541   */\n      0x80\n        /* \"#utility.yul\":2532:2535   */\n      dup6\n        /* \"#utility.yul\":2528:2542   */\n      add\n        /* \"#utility.yul\":2514:2526   */\n      dup3\n        /* \"#utility.yul\":2480:2543   */\n      tag_71\n      jump\t// in\n    tag_139:\n        /* \"#utility.yul\":2376:2553   */\n      pop\n        /* \"#utility.yul\":1594:2560   */\n      pop\n        /* \"#utility.yul\":1454:2560   */\n      pop\n      pop\n      jump\t// out\n        /* \"#utility.yul\":2566:2667   */\n    tag_73:\n        /* \"#utility.yul\":2602:2609   */\n      0x00\n        /* \"#utility.yul\":2642:2660   */\n      0xffffffffffffffff\n        /* \"#utility.yul\":2635:2640   */\n      dup3\n        /* \"#utility.yul\":2631:2661   */\n      and\n        /* \"#utility.yul\":2620:2661   */\n      swap1\n      pop\n        /* \"#utility.yul\":2566:2667   */\n      swap2\n      swap1\n      pop\n      jump\t// out\n        /* \"#utility.yul\":2673:2778   */\n    tag_74:\n        /* \"#utility.yul\":2748:2771   */\n      tag_142\n        /* \"#utility.yul\":2765:2770   */\n      dup2\n        /* \"#utility.yul\":2748:2771   */\n      tag_73\n      jump\t// in\n    tag_142:\n        /* \"#utility.yul\":2743:2746   */\n      dup3\n        /* \"#utility.yul\":2736:2772   */\n      mstore\n        /* \"#utility.yul\":2673:2778   */\n      pop\n      pop\n      jump\t// out\n        /* \"#utility.yul\":2784:2844   */\n    tag_75:\n        /* \"#utility.yul\":2812:2815   */\n      0x00\n        /* \"#utility.yul\":2833:2838   */\n      dup2\n        /* \"#utility.yul\":2826:2838   */\n      swap1\n      pop\n        /* \"#utility.yul\":2784:2844   */\n      swap2\n      swap1\n      pop\n      jump\t// out\n        /* \"#utility.yul\":2850:2992   */\n    tag_76:\n        /* \"#utility.yul\":2900:2909   */\n      0x00\n        /* \"#utility.yul\":2933:2986   */\n      tag_145\n        /* \"#utility.yul\":2951:2985   */\n      tag_146\n        /* \"#utility.yul\":2960:2984   */\n      tag_147\n        /* \"#utility.yul\":2978:2983   */\n      dup5\n        /* \"#utility.yul\":2960:2984   */\n      tag_69\n      jump\t// in\n    tag_147:\n        /* \"#utility.yul\":2951:2985   */\n      tag_75\n      jump\t// in\n    tag_146:\n        /* \"#utility.yul\":2933:2986   */\n      tag_69\n      jump\t// in\n    tag_145:\n        /* \"#utility.yul\":2920:2986   */\n      swap1\n      pop\n        /* \"#utility.yul\":2850:2992   */\n      swap2\n      swap1\n      pop\n      jump\t// out\n        /* \"#utility.yul\":2998:3124   */\n    tag_77:\n        /* \"#utility.yul\":3048:3057   */\n      0x00\n        /* \"#utility.yul\":3081:3118   */\n      tag_149\n        /* \"#utility.yul\":3112:3117   */\n      dup3\n        /* \"#utility.yul\":3081:3118   */\n      tag_76\n      jump\t// in\n    tag_149:\n        /* \"#utility.yul\":3068:3118   */\n      swap1\n      pop\n        /* \"#utility.yul\":2998:3124   */\n      swap2\n      swap1\n      pop\n      jump\t// out\n        /* \"#utility.yul\":3130:3269   */\n    tag_78:\n        /* \"#utility.yul\":3193:3202   */\n      0x00\n        /* \"#utility.yul\":3226:3263   */\n      tag_151\n        /* \"#utility.yul\":3257:3262   */\n      dup3\n        /* \"#utility.yul\":3226:3263   */\n      tag_77\n      jump\t// in\n    tag_151:\n        /* \"#utility.yul\":3213:3263   */\n      swap1\n      pop\n        /* \"#utility.yul\":3130:3269   */\n      swap2\n      swap1\n      pop\n      jump\t// out\n        /* \"#utility.yul\":3275:3422   */\n    tag_79:\n        /* \"#utility.yul\":3365:3415   */\n      tag_153\n        /* \"#utility.yul\":3409:3414   */\n      dup2\n        /* \"#utility.yul\":3365:3415   */\n      tag_78\n      jump\t// in\n    tag_153:\n        /* \"#utility.yul\":3360:3363   */\n      dup3\n        /* \"#utility.yul\":3353:3416   */\n      mstore\n        /* \"#utility.yul\":3275:3422   */\n      pop\n      pop\n      jump\t// out\n        /* \"#utility.yul\":3428:3536   */\n    tag_80:\n        /* \"#utility.yul\":3505:3529   */\n      tag_155\n        /* \"#utility.yul\":3523:3528   */\n      dup2\n        /* \"#utility.yul\":3505:3529   */\n      tag_64\n      jump\t// in\n    tag_155:\n        /* \"#utility.yul\":3500:3503   */\n      dup3\n        /* \"#utility.yul\":3493:3530   */\n      mstore\n        /* \"#utility.yul\":3428:3536   */\n      pop\n      pop\n      jump\t// out\n        /* \"#utility.yul\":3542:3619   */\n    tag_81:\n        /* \"#utility.yul\":3579:3586   */\n      0x00\n        /* \"#utility.yul\":3608:3613   */\n      dup2\n        /* \"#utility.yul\":3597:3613   */\n      swap1\n      pop\n        /* \"#utility.yul\":3542:3619   */\n      swap2\n      swap1\n      pop\n      jump\t// out\n        /* \"#utility.yul\":3625:3733   */\n    tag_82:\n        /* \"#utility.yul\":3702:3726   */\n      tag_158\n        /* \"#utility.yul\":3720:3725   */\n      dup2\n        /* \"#utility.yul\":3702:3726   */\n      tag_81\n      jump\t// in\n    tag_158:\n        /* \"#utility.yul\":3697:3700   */\n      dup3\n        /* \"#utility.yul\":3690:3727   */\n      mstore\n        /* \"#utility.yul\":3625:3733   */\n      pop\n      pop\n      jump\t// out\n        /* \"#utility.yul\":3839:6289   */\n    tag_83:\n        /* \"#utility.yul\":3988:3994   */\n      0x0200\n        /* \"#utility.yul\":3983:3986   */\n      dup3\n        /* \"#utility.yul\":3979:3995   */\n      add\n        /* \"#utility.yul\":4098:4102   */\n      0x00\n        /* \"#utility.yul\":4091:4096   */\n      dup3\n        /* \"#utility.yul\":4087:4103   */\n      add\n        /* \"#utility.yul\":4081:4104   */\n      mload\n        /* \"#utility.yul\":4117:4264   */\n      tag_160\n        /* \"#utility.yul\":4258:4262   */\n      0x00\n        /* \"#utility.yul\":4253:4256   */\n      dup6\n        /* \"#utility.yul\":4249:4263   */\n      add\n        /* \"#utility.yul\":4235:4247   */\n      dup3\n        /* \"#utility.yul\":4117:4264   */\n      tag_72\n      jump\t// in\n    tag_160:\n        /* \"#utility.yul\":4005:4274   */\n      pop\n        /* \"#utility.yul\":4360:4364   */\n      0x20\n        /* \"#utility.yul\":4353:4358   */\n      dup3\n        /* \"#utility.yul\":4349:4365   */\n      add\n        /* \"#utility.yul\":4343:4366   */\n      mload\n        /* \"#utility.yul\":4379:4442   */\n      tag_161\n        /* \"#utility.yul\":4436:4440   */\n      0xa0\n        /* \"#utility.yul\":4431:4434   */\n      dup6\n        /* \"#utility.yul\":4427:4441   */\n      add\n        /* \"#utility.yul\":4413:4425   */\n      dup3\n        /* \"#utility.yul\":4379:4442   */\n      tag_71\n      jump\t// in\n    tag_161:\n        /* \"#utility.yul\":4284:4452   */\n      pop\n        /* \"#utility.yul\":4543:4547   */\n      0x40\n        /* \"#utility.yul\":4536:4541   */\n      dup3\n        /* \"#utility.yul\":4532:4548   */\n      add\n        /* \"#utility.yul\":4526:4549   */\n      mload\n        /* \"#utility.yul\":4562:4623   */\n      tag_162\n        /* \"#utility.yul\":4617:4621   */\n      0xc0\n        /* \"#utility.yul\":4612:4615   */\n      dup6\n        /* \"#utility.yul\":4608:4622   */\n      add\n        /* \"#utility.yul\":4594:4606   */\n      dup3\n        /* \"#utility.yul\":4562:4623   */\n      tag_74\n      jump\t// in\n    tag_162:\n        /* \"#utility.yul\":4462:4633   */\n      pop\n        /* \"#utility.yul\":4718:4722   */\n      0x60\n        /* \"#utility.yul\":4711:4716   */\n      dup3\n        /* \"#utility.yul\":4707:4723   */\n      add\n        /* \"#utility.yul\":4701:4724   */\n      mload\n        /* \"#utility.yul\":4737:4794   */\n      tag_163\n        /* \"#utility.yul\":4788:4792   */\n      0xe0\n        /* \"#utility.yul\":4783:4786   */\n      dup6\n        /* \"#utility.yul\":4779:4793   */\n      add\n        /* \"#utility.yul\":4765:4777   */\n      dup3\n        /* \"#utility.yul\":4737:4794   */\n      tag_68\n      jump\t// in\n    tag_163:\n        /* \"#utility.yul\":4643:4804   */\n      pop\n        /* \"#utility.yul\":4890:4894   */\n      0x80\n        /* \"#utility.yul\":4883:4888   */\n      dup3\n        /* \"#utility.yul\":4879:4895   */\n      add\n        /* \"#utility.yul\":4873:4896   */\n      mload\n        /* \"#utility.yul\":4909:4987   */\n      tag_164\n        /* \"#utility.yul\":4979:4985   */\n      0x0100\n        /* \"#utility.yul\":4974:4977   */\n      dup6\n        /* \"#utility.yul\":4970:4986   */\n      add\n        /* \"#utility.yul\":4956:4968   */\n      dup3\n        /* \"#utility.yul\":4909:4987   */\n      tag_79\n      jump\t// in\n    tag_164:\n        /* \"#utility.yul\":4814:4997   */\n      pop\n        /* \"#utility.yul\":5089:5093   */\n      0xa0\n        /* \"#utility.yul\":5082:5087   */\n      dup3\n        /* \"#utility.yul\":5078:5094   */\n      add\n        /* \"#utility.yul\":5072:5095   */\n      mload\n        /* \"#utility.yul\":5108:5171   */\n      tag_165\n        /* \"#utility.yul\":5163:5169   */\n      0x0120\n        /* \"#utility.yul\":5158:5161   */\n      dup6\n        /* \"#utility.yul\":5154:5170   */\n      add\n        /* \"#utility.yul\":5140:5152   */\n      dup3\n        /* \"#utility.yul\":5108:5171   */\n      tag_74\n      jump\t// in\n    tag_165:\n        /* \"#utility.yul\":5007:5181   */\n      pop\n        /* \"#utility.yul\":5279:5283   */\n      0xc0\n        /* \"#utility.yul\":5272:5277   */\n      dup3\n        /* \"#utility.yul\":5268:5284   */\n      add\n        /* \"#utility.yul\":5262:5285   */\n      mload\n        /* \"#utility.yul\":5298:5357   */\n      tag_166\n        /* \"#utility.yul\":5349:5355   */\n      0x0140\n        /* \"#utility.yul\":5344:5347   */\n      dup6\n        /* \"#utility.yul\":5340:5356   */\n      add\n        /* \"#utility.yul\":5326:5338   */\n      dup3\n        /* \"#utility.yul\":5298:5357   */\n      tag_68\n      jump\t// in\n    tag_166:\n        /* \"#utility.yul\":5191:5367   */\n      pop\n        /* \"#utility.yul\":5453:5457   */\n      0xe0\n        /* \"#utility.yul\":5446:5451   */\n      dup3\n        /* \"#utility.yul\":5442:5458   */\n      add\n        /* \"#utility.yul\":5436:5459   */\n      mload\n        /* \"#utility.yul\":5472:5537   */\n      tag_167\n        /* \"#utility.yul\":5529:5535   */\n      0x0160\n        /* \"#utility.yul\":5524:5527   */\n      dup6\n        /* \"#utility.yul\":5520:5536   */\n      add\n        /* \"#utility.yul\":5506:5518   */\n      dup3\n        /* \"#utility.yul\":5472:5537   */\n      tag_80\n      jump\t// in\n    tag_167:\n        /* \"#utility.yul\":5377:5547   */\n      pop\n        /* \"#utility.yul\":5635:5641   */\n      0x0100\n        /* \"#utility.yul\":5628:5633   */\n      dup3\n        /* \"#utility.yul\":5624:5642   */\n      add\n        /* \"#utility.yul\":5618:5643   */\n      mload\n        /* \"#utility.yul\":5656:5721   */\n      tag_168\n        /* \"#utility.yul\":5713:5719   */\n      0x0180\n        /* \"#utility.yul\":5708:5711   */\n      dup6\n        /* \"#utility.yul\":5704:5720   */\n      add\n        /* \"#utility.yul\":5690:5702   */\n      dup3\n        /* \"#utility.yul\":5656:5721   */\n      tag_80\n      jump\t// in\n    tag_168:\n        /* \"#utility.yul\":5557:5731   */\n      pop\n        /* \"#utility.yul\":5813:5819   */\n      0x0120\n        /* \"#utility.yul\":5806:5811   */\n      dup3\n        /* \"#utility.yul\":5802:5820   */\n      add\n        /* \"#utility.yul\":5796:5821   */\n      mload\n        /* \"#utility.yul\":5834:5899   */\n      tag_169\n        /* \"#utility.yul\":5891:5897   */\n      0x01a0\n        /* \"#utility.yul\":5886:5889   */\n      dup6\n        /* \"#utility.yul\":5882:5898   */\n      add\n        /* \"#utility.yul\":5868:5880   */\n      dup3\n        /* \"#utility.yul\":5834:5899   */\n      tag_82\n      jump\t// in\n    tag_169:\n        /* \"#utility.yul\":5741:5909   */\n      pop\n        /* \"#utility.yul\":6004:6010   */\n      0x0140\n        /* \"#utility.yul\":5997:6002   */\n      dup3\n        /* \"#utility.yul\":5993:6011   */\n      add\n        /* \"#utility.yul\":5987:6012   */\n      mload\n        /* \"#utility.yul\":6025:6090   */\n      tag_170\n        /* \"#utility.yul\":6082:6088   */\n      0x01c0\n        /* \"#utility.yul\":6077:6080   */\n      dup6\n        /* \"#utility.yul\":6073:6089   */\n      add\n        /* \"#utility.yul\":6059:6071   */\n      dup3\n        /* \"#utility.yul\":6025:6090   */\n      tag_71\n      jump\t// in\n    tag_170:\n        /* \"#utility.yul\":5919:6100   */\n      pop\n        /* \"#utility.yul\":6186:6192   */\n      0x0160\n        /* \"#utility.yul\":6179:6184   */\n      dup3\n        /* \"#utility.yul\":6175:6193   */\n      add\n        /* \"#utility.yul\":6169:6194   */\n      mload\n        /* \"#utility.yul\":6207:6272   */\n      tag_171\n        /* \"#utility.yul\":6264:6270   */\n      0x01e0\n        /* \"#utility.yul\":6259:6262   */\n      dup6\n        /* \"#utility.yul\":6255:6271   */\n      add\n        /* \"#utility.yul\":6241:6253   */\n      dup3\n        /* \"#utility.yul\":6207:6272   */\n      tag_71\n      jump\t// in\n    tag_171:\n        /* \"#utility.yul\":6110:6282   */\n      pop\n        /* \"#utility.yul\":3957:6289   */\n      pop\n        /* \"#utility.yul\":3839:6289   */\n      pop\n      pop\n      jump\t// out\n        /* \"#utility.yul\":6295:6622   */\n    tag_22:\n        /* \"#utility.yul\":6440:6444   */\n      0x00\n        /* \"#utility.yul\":6478:6481   */\n      0x0200\n        /* \"#utility.yul\":6467:6476   */\n      dup3\n        /* \"#utility.yul\":6463:6482   */\n      add\n        /* \"#utility.yul\":6455:6482   */\n      swap1\n      pop\n        /* \"#utility.yul\":6492:6615   */\n      tag_173\n        /* \"#utility.yul\":6612:6613   */\n      0x00\n        /* \"#utility.yul\":6601:6610   */\n      dup4\n        /* \"#utility.yul\":6597:6614   */\n      add\n        /* \"#utility.yul\":6588:6594   */\n      dup5\n        /* \"#utility.yul\":6492:6615   */\n      tag_83\n      jump\t// in\n    tag_173:\n        /* \"#utility.yul\":6295:6622   */\n      swap3\n      swap2\n      pop\n      pop\n      jump\t// out\n        /* \"#utility.yul\":6628:6726   */\n    tag_84:\n        /* \"#utility.yul\":6679:6685   */\n      0x00\n        /* \"#utility.yul\":6713:6718   */\n      dup2\n        /* \"#utility.yul\":6707:6719   */\n      mload\n        /* \"#utility.yul\":6697:6719   */\n      swap1\n      pop\n        /* \"#utility.yul\":6628:6726   */\n      swap2\n      swap1\n      pop\n      jump\t// out\n        /* \"#utility.yul\":6732:6900   */\n    tag_85:\n        /* \"#utility.yul\":6815:6826   */\n      0x00\n        /* \"#utility.yul\":6849:6855   */\n      dup3\n        /* \"#utility.yul\":6844:6847   */\n      dup3\n        /* \"#utility.yul\":6837:6856   */\n      mstore\n        /* \"#utility.yul\":6889:6893   */\n      0x20\n        /* \"#utility.yul\":6884:6887   */\n      dup3\n        /* \"#utility.yul\":6880:6894   */\n      add\n        /* \"#utility.yul\":6865:6894   */\n      swap1\n      pop\n        /* \"#utility.yul\":6732:6900   */\n      swap3\n      swap2\n      pop\n      pop\n      jump\t// out\n        /* \"#utility.yul\":6906:7152   */\n    tag_86:\n        /* \"#utility.yul\":6987:6988   */\n      0x00\n        /* \"#utility.yul\":6997:7110   */\n    tag_177:\n        /* \"#utility.yul\":7011:7017   */\n      dup4\n        /* \"#utility.yul\":7008:7009   */\n      dup2\n        /* \"#utility.yul\":7005:7018   */\n      lt\n        /* \"#utility.yul\":6997:7110   */\n      iszero\n      tag_179\n      jumpi\n        /* \"#utility.yul\":7096:7097   */\n      dup1\n        /* \"#utility.yul\":7091:7094   */\n      dup3\n        /* \"#utility.yul\":7087:7098   */\n      add\n        /* \"#utility.yul\":7081:7099   */\n      mload\n        /* \"#utility.yul\":7077:7078   */\n      dup2\n        /* \"#utility.yul\":7072:7075   */\n      dup5\n        /* \"#utility.yul\":7068:7079   */\n      add\n        /* \"#utility.yul\":7061:7100   */\n      mstore\n        /* \"#utility.yul\":7033:7035   */\n      0x20\n        /* \"#utility.yul\":7030:7031   */\n      dup2\n        /* \"#utility.yul\":7026:7036   */\n      add\n        /* \"#utility.yul\":7021:7036   */\n      swap1\n      pop\n        /* \"#utility.yul\":6997:7110   */\n      jump(tag_177)\n    tag_179:\n        /* \"#utility.yul\":7144:7145   */\n      0x00\n        /* \"#utility.yul\":7135:7141   */\n      dup5\n        /* \"#utility.yul\":7130:7133   */\n      dup5\n        /* \"#utility.yul\":7126:7142   */\n      add\n        /* \"#utility.yul\":7119:7146   */\n      mstore\n        /* \"#utility.yul\":6968:7152   */\n      pop\n        /* \"#utility.yul\":6906:7152   */\n      pop\n      pop\n      pop\n      jump\t// out\n        /* \"#utility.yul\":7158:7260   */\n    tag_87:\n        /* \"#utility.yul\":7199:7205   */\n      0x00\n        /* \"#utility.yul\":7250:7252   */\n      0x1f\n        /* \"#utility.yul\":7246:7253   */\n      not\n        /* \"#utility.yul\":7241:7243   */\n      0x1f\n        /* \"#utility.yul\":7234:7239   */\n      dup4\n        /* \"#utility.yul\":7230:7244   */\n      add\n        /* \"#utility.yul\":7226:7254   */\n      and\n        /* \"#utility.yul\":7216:7254   */\n      swap1\n      pop\n        /* \"#utility.yul\":7158:7260   */\n      swap2\n      swap1\n      pop\n      jump\t// out\n        /* \"#utility.yul\":7266:7639   */\n    tag_88:\n        /* \"#utility.yul\":7352:7355   */\n      0x00\n        /* \"#utility.yul\":7380:7418   */\n      tag_182\n        /* \"#utility.yul\":7412:7417   */\n      dup3\n        /* \"#utility.yul\":7380:7418   */\n      tag_84\n      jump\t// in\n    tag_182:\n        /* \"#utility.yul\":7434:7504   */\n      tag_183\n        /* \"#utility.yul\":7497:7503   */\n      dup2\n        /* \"#utility.yul\":7492:7495   */\n      dup6\n        /* \"#utility.yul\":7434:7504   */\n      tag_85\n      jump\t// in\n    tag_183:\n        /* \"#utility.yul\":7427:7504   */\n      swap4\n      pop\n        /* \"#utility.yul\":7513:7578   */\n      tag_184\n        /* \"#utility.yul\":7571:7577   */\n      dup2\n        /* \"#utility.yul\":7566:7569   */\n      dup6\n        /* \"#utility.yul\":7559:7563   */\n      0x20\n        /* \"#utility.yul\":7552:7557   */\n      dup7\n        /* \"#utility.yul\":7548:7564   */\n      add\n        /* \"#utility.yul\":7513:7578   */\n      tag_86\n      jump\t// in\n    tag_184:\n        /* \"#utility.yul\":7603:7632   */\n      tag_185\n        /* \"#utility.yul\":7625:7631   */\n      dup2\n        /* \"#utility.yul\":7603:7632   */\n      tag_87\n      jump\t// in\n    tag_185:\n        /* \"#utility.yul\":7598:7601   */\n      dup5\n        /* \"#utility.yul\":7594:7633   */\n      add\n        /* \"#utility.yul\":7587:7633   */\n      swap2\n      pop\n        /* \"#utility.yul\":7356:7639   */\n      pop\n        /* \"#utility.yul\":7266:7639   */\n      swap3\n      swap2\n      pop\n      pop\n      jump\t// out\n        /* \"#utility.yul\":7645:7954   */\n    tag_29:\n        /* \"#utility.yul\":7756:7760   */\n      0x00\n        /* \"#utility.yul\":7794:7796   */\n      0x20\n        /* \"#utility.yul\":7783:7792   */\n      dup3\n        /* \"#utility.yul\":7779:7797   */\n      add\n        /* \"#utility.yul\":7771:7797   */\n      swap1\n      pop\n        /* \"#utility.yul\":7843:7852   */\n      dup2\n        /* \"#utility.yul\":7837:7841   */\n      dup2\n        /* \"#utility.yul\":7833:7853   */\n      sub\n        /* \"#utility.yul\":7829:7830   */\n      0x00\n        /* \"#utility.yul\":7818:7827   */\n      dup4\n        /* \"#utility.yul\":7814:7831   */\n      add\n        /* \"#utility.yul\":7807:7854   */\n      mstore\n        /* \"#utility.yul\":7871:7947   */\n      tag_187\n        /* \"#utility.yul\":7942:7946   */\n      dup2\n        /* \"#utility.yul\":7933:7939   */\n      dup5\n        /* \"#utility.yul\":7871:7947   */\n      tag_88\n      jump\t// in\n    tag_187:\n        /* \"#utility.yul\":7863:7947   */\n      swap1\n      pop\n        /* \"#utility.yul\":7645:7954   */\n      swap3\n      swap2\n      pop\n      pop\n      jump\t// out\n        /* \"#utility.yul\":7960:8140   */\n    tag_89:\n        /* \"#utility.yul\":8008:8085   */\n      0x4e487b7100000000000000000000000000000000000000000000000000000000\n        /* \"#utility.yul\":8005:8006   */\n      0x00\n        /* \"#utility.yul\":7998:8086   */\n      mstore\n        /* \"#utility.yul\":8105:8109   */\n      0x22\n        /* \"#utility.yul\":8102:8103   */\n      0x04\n        /* \"#utility.yul\":8095:8110   */\n      mstore\n        /* \"#utility.yul\":8129:8133   */\n      0x24\n        /* \"#utility.yul\":8126:8127   */\n      0x00\n        /* \"#utility.yul\":8119:8134   */\n      revert\n        /* \"#utility.yul\":8146:8466   */\n    tag_57:\n        /* \"#utility.yul\":8190:8196   */\n      0x00\n        /* \"#utility.yul\":8227:8228   */\n      0x02\n        /* \"#utility.yul\":8221:8225   */\n      dup3\n        /* \"#utility.yul\":8217:8229   */\n      div\n        /* \"#utility.yul\":8207:8229   */\n      swap1\n      pop\n        /* \"#utility.yul\":8274:8275   */\n      0x01\n        /* \"#utility.yul\":8268:8272   */\n      dup3\n        /* \"#utility.yul\":8264:8276   */\n      and\n        /* \"#utility.yul\":8295:8313   */\n      dup1\n        /* \"#utility.yul\":8285:8366   */\n      tag_190\n      jumpi\n        /* \"#utility.yul\":8351:8355   */\n      0x7f\n        /* \"#utility.yul\":8343:8349   */\n      dup3\n        /* \"#utility.yul\":8339:8356   */\n      and\n        /* \"#utility.yul\":8329:8356   */\n      swap2\n      pop\n        /* \"#utility.yul\":8285:8366   */\n    tag_190:\n        /* \"#utility.yul\":8413:8415   */\n      0x20\n        /* \"#utility.yul\":8405:8411   */\n      dup3\n        /* \"#utility.yul\":8402:8416   */\n      lt\n        /* \"#utility.yul\":8382:8400   */\n      dup2\n        /* \"#utility.yul\":8379:8417   */\n      sub\n        /* \"#utility.yul\":8376:8460   */\n      tag_191\n      jumpi\n        /* \"#utility.yul\":8432:8450   */\n      tag_192\n      tag_89\n      jump\t// in\n    tag_192:\n        /* \"#utility.yul\":8376:8460   */\n    tag_191:\n        /* \"#utility.yul\":8197:8466   */\n      pop\n        /* \"#utility.yul\":8146:8466   */\n      swap2\n      swap1\n      pop\n      jump\t// out\n        /* \"#utility.yul\":8472:8612   */\n    tag_90:\n        /* \"#utility.yul\":8520:8524   */\n      0x00\n        /* \"#utility.yul\":8543:8546   */\n      dup2\n        /* \"#utility.yul\":8535:8546   */\n      swap1\n      pop\n        /* \"#utility.yul\":8566:8569   */\n      dup2\n        /* \"#utility.yul\":8563:8564   */\n      0x00\n        /* \"#utility.yul\":8556:8570   */\n      mstore\n        /* \"#utility.yul\":8600:8604   */\n      0x20\n        /* \"#utility.yul\":8597:8598   */\n      0x00\n        /* \"#utility.yul\":8587:8605   */\n      keccak256\n        /* \"#utility.yul\":8579:8605   */\n      swap1\n      pop\n        /* \"#utility.yul\":8472:8612   */\n      swap2\n      swap1\n      pop\n      jump\t// out\n        /* \"#utility.yul\":8640:9467   */\n    tag_91:\n        /* \"#utility.yul\":8723:8726   */\n      0x00\n        /* \"#utility.yul\":8760:8765   */\n      dup2\n        /* \"#utility.yul\":8754:8766   */\n      sload\n        /* \"#utility.yul\":8789:8825   */\n      tag_195\n        /* \"#utility.yul\":8815:8824   */\n      dup2\n        /* \"#utility.yul\":8789:8825   */\n      tag_57\n      jump\t// in\n    tag_195:\n        /* \"#utility.yul\":8841:8911   */\n      tag_196\n        /* \"#utility.yul\":8904:8910   */\n      dup2\n        /* \"#utility.yul\":8899:8902   */\n      dup7\n        /* \"#utility.yul\":8841:8911   */\n      tag_85\n      jump\t// in\n    tag_196:\n        /* \"#utility.yul\":8834:8911   */\n      swap5\n      pop\n        /* \"#utility.yul\":8942:8943   */\n      0x01\n        /* \"#utility.yul\":8931:8940   */\n      dup3\n        /* \"#utility.yul\":8927:8944   */\n      and\n        /* \"#utility.yul\":8958:8959   */\n      0x00\n        /* \"#utility.yul\":8953:9117   */\n      dup2\n      eq\n      tag_198\n      jumpi\n        /* \"#utility.yul\":9131:9132   */\n      0x01\n        /* \"#utility.yul\":9126:9461   */\n      dup2\n      eq\n      tag_199\n      jumpi\n        /* \"#utility.yul\":8920:9461   */\n      jump(tag_197)\n        /* \"#utility.yul\":8953:9117   */\n    tag_198:\n        /* \"#utility.yul\":9037:9041   */\n      0xff\n        /* \"#utility.yul\":9033:9042   */\n      not\n        /* \"#utility.yul\":9022:9031   */\n      dup4\n        /* \"#utility.yul\":9018:9043   */\n      and\n        /* \"#utility.yul\":9013:9016   */\n      dup7\n        /* \"#utility.yul\":9006:9044   */\n      mstore\n        /* \"#utility.yul\":9097:9103   */\n      dup2\n        /* \"#utility.yul\":9090:9104   */\n      iszero\n        /* \"#utility.yul\":9083:9105   */\n      iszero\n        /* \"#utility.yul\":9077:9081   */\n      0x20\n        /* \"#utility.yul\":9073:9106   */\n      mul\n        /* \"#utility.yul\":9068:9071   */\n      dup7\n        /* \"#utility.yul\":9064:9107   */\n      add\n        /* \"#utility.yul\":9057:9107   */\n      swap4\n      pop\n        /* \"#utility.yul\":8953:9117   */\n      jump(tag_197)\n        /* \"#utility.yul\":9126:9461   */\n    tag_199:\n        /* \"#utility.yul\":9193:9230   */\n      tag_200\n        /* \"#utility.yul\":9224:9229   */\n      dup6\n        /* \"#utility.yul\":9193:9230   */\n      tag_90\n      jump\t// in\n    tag_200:\n        /* \"#utility.yul\":9252:9253   */\n      0x00\n        /* \"#utility.yul\":9266:9420   */\n    tag_201:\n        /* \"#utility.yul\":9280:9286   */\n      dup4\n        /* \"#utility.yul\":9277:9278   */\n      dup2\n        /* \"#utility.yul\":9274:9287   */\n      lt\n        /* \"#utility.yul\":9266:9420   */\n      iszero\n      tag_203\n      jumpi\n        /* \"#utility.yul\":9354:9361   */\n      dup2\n        /* \"#utility.yul\":9348:9362   */\n      sload\n        /* \"#utility.yul\":9344:9345   */\n      dup2\n        /* \"#utility.yul\":9339:9342   */\n      dup10\n        /* \"#utility.yul\":9335:9346   */\n      add\n        /* \"#utility.yul\":9328:9363   */\n      mstore\n        /* \"#utility.yul\":9404:9405   */\n      0x01\n        /* \"#utility.yul\":9395:9402   */\n      dup3\n        /* \"#utility.yul\":9391:9406   */\n      add\n        /* \"#utility.yul\":9380:9406   */\n      swap2\n      pop\n        /* \"#utility.yul\":9302:9306   */\n      0x20\n        /* \"#utility.yul\":9299:9300   */\n      dup2\n        /* \"#utility.yul\":9295:9307   */\n      add\n        /* \"#utility.yul\":9290:9307   */\n      swap1\n      pop\n        /* \"#utility.yul\":9266:9420   */\n      jump(tag_201)\n    tag_203:\n        /* \"#utility.yul\":9449:9450   */\n      dup1\n        /* \"#utility.yul\":9444:9447   */\n      dup9\n        /* \"#utility.yul\":9440:9451   */\n      add\n        /* \"#utility.yul\":9433:9451   */\n      swap6\n      pop\n        /* \"#utility.yul\":9133:9461   */\n      pop\n      pop\n        /* \"#utility.yul\":8920:9461   */\n    tag_197:\n      pop\n        /* \"#utility.yul\":8727:9467   */\n      pop\n      pop\n        /* \"#utility.yul\":8640:9467   */\n      swap3\n      swap2\n      pop\n      pop\n      jump\t// out\n        /* \"#utility.yul\":9473:9591   */\n    tag_92:\n        /* \"#utility.yul\":9560:9584   */\n      tag_205\n        /* \"#utility.yul\":9578:9583   */\n      dup2\n        /* \"#utility.yul\":9560:9584   */\n      tag_70\n      jump\t// in\n    tag_205:\n        /* \"#utility.yul\":9555:9558   */\n      dup3\n        /* \"#utility.yul\":9548:9585   */\n      mstore\n        /* \"#utility.yul\":9473:9591   */\n      pop\n      pop\n      jump\t// out\n        /* \"#utility.yul\":9597:10010   */\n    tag_32:\n        /* \"#utility.yul\":9733:9737   */\n      0x00\n        /* \"#utility.yul\":9771:9773   */\n      0x40\n        /* \"#utility.yul\":9760:9769   */\n      dup3\n        /* \"#utility.yul\":9756:9774   */\n      add\n        /* \"#utility.yul\":9748:9774   */\n      swap1\n      pop\n        /* \"#utility.yul\":9820:9829   */\n      dup2\n        /* \"#utility.yul\":9814:9818   */\n      dup2\n        /* \"#utility.yul\":9810:9830   */\n      sub\n        /* \"#utility.yul\":9806:9807   */\n      0x00\n        /* \"#utility.yul\":9795:9804   */\n      dup4\n        /* \"#utility.yul\":9791:9808   */\n      add\n        /* \"#utility.yul\":9784:9831   */\n      mstore\n        /* \"#utility.yul\":9848:9921   */\n      tag_207\n        /* \"#utility.yul\":9916:9920   */\n      dup2\n        /* \"#utility.yul\":9907:9913   */\n      dup6\n        /* \"#utility.yul\":9848:9921   */\n      tag_91\n      jump\t// in\n    tag_207:\n        /* \"#utility.yul\":9840:9921   */\n      swap1\n      pop\n        /* \"#utility.yul\":9931:10003   */\n      tag_208\n        /* \"#utility.yul\":9999:10001   */\n      0x20\n        /* \"#utility.yul\":9988:9997   */\n      dup4\n        /* \"#utility.yul\":9984:10002   */\n      add\n        /* \"#utility.yul\":9975:9981   */\n      dup5\n        /* \"#utility.yul\":9931:10003   */\n      tag_92\n      jump\t// in\n    tag_208:\n        /* \"#utility.yul\":9597:10010   */\n      swap4\n      swap3\n      pop\n      pop\n      pop\n      jump\t// out\n        /* \"#utility.yul\":10016:10091   */\n    tag_93:\n        /* \"#utility.yul\":10049:10055   */\n      0x00\n        /* \"#utility.yul\":10082:10084   */\n      0x40\n        /* \"#utility.yul\":10076:10085   */\n      mload\n        /* \"#utility.yul\":10066:10085   */\n      swap1\n      pop\n        /* \"#utility.yul\":10016:10091   */\n      swap1\n      jump\t// out\n        /* \"#utility.yul\":10097:10214   */\n    tag_94:\n        /* \"#utility.yul\":10206:10207   */\n      0x00\n        /* \"#utility.yul\":10203:10204   */\n      dup1\n        /* \"#utility.yul\":10196:10208   */\n      revert\n        /* \"#utility.yul\":10343:10465   */\n    tag_96:\n        /* \"#utility.yul\":10416:10440   */\n      tag_213\n        /* \"#utility.yul\":10434:10439   */\n      dup2\n        /* \"#utility.yul\":10416:10440   */\n      tag_64\n      jump\t// in\n    tag_213:\n        /* \"#utility.yul\":10409:10414   */\n      dup2\n        /* \"#utility.yul\":10406:10441   */\n      eq\n        /* \"#utility.yul\":10396:10459   */\n      tag_214\n      jumpi\n        /* \"#utility.yul\":10455:10456   */\n      0x00\n        /* \"#utility.yul\":10452:10453   */\n      dup1\n        /* \"#utility.yul\":10445:10457   */\n      revert\n        /* \"#utility.yul\":10396:10459   */\n    tag_214:\n        /* \"#utility.yul\":10343:10465   */\n      pop\n      jump\t// out\n        /* \"#utility.yul\":10471:10614   */\n    tag_97:\n        /* \"#utility.yul\":10528:10533   */\n      0x00\n        /* \"#utility.yul\":10559:10565   */\n      dup2\n        /* \"#utility.yul\":10553:10566   */\n      mload\n        /* \"#utility.yul\":10544:10566   */\n      swap1\n      pop\n        /* \"#utility.yul\":10575:10608   */\n      tag_216\n        /* \"#utility.yul\":10602:10607   */\n      dup2\n        /* \"#utility.yul\":10575:10608   */\n      tag_96\n      jump\t// in\n    tag_216:\n        /* \"#utility.yul\":10471:10614   */\n      swap3\n      swap2\n      pop\n      pop\n      jump\t// out\n        /* \"#utility.yul\":10620:10971   */\n    tag_36:\n        /* \"#utility.yul\":10690:10696   */\n      0x00\n        /* \"#utility.yul\":10739:10741   */\n      0x20\n        /* \"#utility.yul\":10727:10736   */\n      dup3\n        /* \"#utility.yul\":10718:10725   */\n      dup5\n        /* \"#utility.yul\":10714:10737   */\n      sub\n        /* \"#utility.yul\":10710:10742   */\n      slt\n        /* \"#utility.yul\":10707:10826   */\n      iszero\n      tag_218\n      jumpi\n        /* \"#utility.yul\":10745:10824   */\n      tag_219\n      tag_94\n      jump\t// in\n    tag_219:\n        /* \"#utility.yul\":10707:10826   */\n    tag_218:\n        /* \"#utility.yul\":10865:10866   */\n      0x00\n        /* \"#utility.yul\":10890:10954   */\n      tag_220\n        /* \"#utility.yul\":10946:10953   */\n      dup5\n        /* \"#utility.yul\":10937:10943   */\n      dup3\n        /* \"#utility.yul\":10926:10935   */\n      dup6\n        /* \"#utility.yul\":10922:10944   */\n      add\n        /* \"#utility.yul\":10890:10954   */\n      tag_97\n      jump\t// in\n    tag_220:\n        /* \"#utility.yul\":10880:10954   */\n      swap2\n      pop\n        /* \"#utility.yul\":10836:10964   */\n      pop\n        /* \"#utility.yul\":10620:10971   */\n      swap3\n      swap2\n      pop\n      pop\n      jump\t// out\n        /* \"#utility.yul\":10977:11093   */\n    tag_98:\n        /* \"#utility.yul\":11047:11068   */\n      tag_222\n        /* \"#utility.yul\":11062:11067   */\n      dup2\n        /* \"#utility.yul\":11047:11068   */\n      tag_66\n      jump\t// in\n    tag_222:\n        /* \"#utility.yul\":11040:11045   */\n      dup2\n        /* \"#utility.yul\":11037:11069   */\n      eq\n        /* \"#utility.yul\":11027:11087   */\n      tag_223\n      jumpi\n        /* \"#utility.yul\":11083:11084   */\n      0x00\n        /* \"#utility.yul\":11080:11081   */\n      dup1\n        /* \"#utility.yul\":11073:11085   */\n      revert\n        /* \"#utility.yul\":11027:11087   */\n    tag_223:\n        /* \"#utility.yul\":10977:11093   */\n      pop\n      jump\t// out\n        /* \"#utility.yul\":11099:11236   */\n    tag_99:\n        /* \"#utility.yul\":11153:11158   */\n      0x00\n        /* \"#utility.yul\":11184:11190   */\n      dup2\n        /* \"#utility.yul\":11178:11191   */\n      mload\n        /* \"#utility.yul\":11169:11191   */\n      swap1\n      pop\n        /* \"#utility.yul\":11200:11230   */\n      tag_225\n        /* \"#utility.yul\":11224:11229   */\n      dup2\n        /* \"#utility.yul\":11200:11230   */\n      tag_98\n      jump\t// in\n    tag_225:\n        /* \"#utility.yul\":11099:11236   */\n      swap3\n      swap2\n      pop\n      pop\n      jump\t// out\n        /* \"#utility.yul\":11242:11587   */\n    tag_42:\n        /* \"#utility.yul\":11309:11315   */\n      0x00\n        /* \"#utility.yul\":11358:11360   */\n      0x20\n        /* \"#utility.yul\":11346:11355   */\n      dup3\n        /* \"#utility.yul\":11337:11344   */\n      dup5\n        /* \"#utility.yul\":11333:11356   */\n      sub\n        /* \"#utility.yul\":11329:11361   */\n      slt\n        /* \"#utility.yul\":11326:11445   */\n      iszero\n      tag_227\n      jumpi\n        /* \"#utility.yul\":11364:11443   */\n      tag_228\n      tag_94\n      jump\t// in\n    tag_228:\n        /* \"#utility.yul\":11326:11445   */\n    tag_227:\n        /* \"#utility.yul\":11484:11485   */\n      0x00\n        /* \"#utility.yul\":11509:11570   */\n      tag_229\n        /* \"#utility.yul\":11562:11569   */\n      dup5\n        /* \"#utility.yul\":11553:11559   */\n      dup3\n        /* \"#utility.yul\":11542:11551   */\n      dup6\n        /* \"#utility.yul\":11538:11560   */\n      add\n        /* \"#utility.yul\":11509:11570   */\n      tag_99\n      jump\t// in\n    tag_229:\n        /* \"#utility.yul\":11499:11570   */\n      swap2\n      pop\n        /* \"#utility.yul\":11455:11580   */\n      pop\n        /* \"#utility.yul\":11242:11587   */\n      swap3\n      swap2\n      pop\n      pop\n      jump\t// out\n        /* \"#utility.yul\":11593:11710   */\n    tag_100:\n        /* \"#utility.yul\":11702:11703   */\n      0x00\n        /* \"#utility.yul\":11699:11700   */\n      dup1\n        /* \"#utility.yul\":11692:11704   */\n      revert\n        /* \"#utility.yul\":11716:11896   */\n    tag_101:\n        /* \"#utility.yul\":11764:11841   */\n      0x4e487b7100000000000000000000000000000000000000000000000000000000\n        /* \"#utility.yul\":11761:11762   */\n      0x00\n        /* \"#utility.yul\":11754:11842   */\n      mstore\n        /* \"#utility.yul\":11861:11865   */\n      0x41\n        /* \"#utility.yul\":11858:11859   */\n      0x04\n        /* \"#utility.yul\":11851:11866   */\n      mstore\n        /* \"#utility.yul\":11885:11889   */\n      0x24\n        /* \"#utility.yul\":11882:11883   */\n      0x00\n        /* \"#utility.yul\":11875:11890   */\n      revert\n        /* \"#utility.yul\":11902:12183   */\n    tag_102:\n        /* \"#utility.yul\":11985:12012   */\n      tag_233\n        /* \"#utility.yul\":12007:12011   */\n      dup3\n        /* \"#utility.yul\":11985:12012   */\n      tag_87\n      jump\t// in\n    tag_233:\n        /* \"#utility.yul\":11977:11983   */\n      dup2\n        /* \"#utility.yul\":11973:12013   */\n      add\n        /* \"#utility.yul\":12115:12121   */\n      dup2\n        /* \"#utility.yul\":12103:12113   */\n      dup2\n        /* \"#utility.yul\":12100:12122   */\n      lt\n        /* \"#utility.yul\":12079:12097   */\n      0xffffffffffffffff\n        /* \"#utility.yul\":12067:12077   */\n      dup3\n        /* \"#utility.yul\":12064:12098   */\n      gt\n        /* \"#utility.yul\":12061:12123   */\n      or\n        /* \"#utility.yul\":12058:12146   */\n      iszero\n      tag_234\n      jumpi\n        /* \"#utility.yul\":12126:12144   */\n      tag_235\n      tag_101\n      jump\t// in\n    tag_235:\n        /* \"#utility.yul\":12058:12146   */\n    tag_234:\n        /* \"#utility.yul\":12166:12176   */\n      dup1\n        /* \"#utility.yul\":12162:12164   */\n      0x40\n        /* \"#utility.yul\":12155:12177   */\n      mstore\n        /* \"#utility.yul\":11945:12183   */\n      pop\n        /* \"#utility.yul\":11902:12183   */\n      pop\n      pop\n      jump\t// out\n        /* \"#utility.yul\":12189:12318   */\n    tag_103:\n        /* \"#utility.yul\":12223:12229   */\n      0x00\n        /* \"#utility.yul\":12250:12270   */\n      tag_237\n      tag_93\n      jump\t// in\n    tag_237:\n        /* \"#utility.yul\":12240:12270   */\n      swap1\n      pop\n        /* \"#utility.yul\":12279:12312   */\n      tag_238\n        /* \"#utility.yul\":12307:12311   */\n      dup3\n        /* \"#utility.yul\":12299:12305   */\n      dup3\n        /* \"#utility.yul\":12279:12312   */\n      tag_102\n      jump\t// in\n    tag_238:\n        /* \"#utility.yul\":12189:12318   */\n      swap2\n      swap1\n      pop\n      jump\t// out\n        /* \"#utility.yul\":12447:12569   */\n    tag_105:\n        /* \"#utility.yul\":12520:12544   */\n      tag_241\n        /* \"#utility.yul\":12538:12543   */\n      dup2\n        /* \"#utility.yul\":12520:12544   */\n      tag_70\n      jump\t// in\n    tag_241:\n        /* \"#utility.yul\":12513:12518   */\n      dup2\n        /* \"#utility.yul\":12510:12545   */\n      eq\n        /* \"#utility.yul\":12500:12563   */\n      tag_242\n      jumpi\n        /* \"#utility.yul\":12559:12560   */\n      0x00\n        /* \"#utility.yul\":12556:12557   */\n      dup1\n        /* \"#utility.yul\":12549:12561   */\n      revert\n        /* \"#utility.yul\":12500:12563   */\n    tag_242:\n        /* \"#utility.yul\":12447:12569   */\n      pop\n      jump\t// out\n        /* \"#utility.yul\":12575:12718   */\n    tag_106:\n        /* \"#utility.yul\":12632:12637   */\n      0x00\n        /* \"#utility.yul\":12663:12669   */\n      dup2\n        /* \"#utility.yul\":12657:12670   */\n      mload\n        /* \"#utility.yul\":12648:12670   */\n      swap1\n      pop\n        /* \"#utility.yul\":12679:12712   */\n      tag_244\n        /* \"#utility.yul\":12706:12711   */\n      dup2\n        /* \"#utility.yul\":12679:12712   */\n      tag_105\n      jump\t// in\n    tag_244:\n        /* \"#utility.yul\":12575:12718   */\n      swap3\n      swap2\n      pop\n      pop\n      jump\t// out\n        /* \"#utility.yul\":12792:13995   */\n    tag_107:\n        /* \"#utility.yul\":12894:12899   */\n      0x00\n        /* \"#utility.yul\":12938:12942   */\n      0xa0\n        /* \"#utility.yul\":12926:12935   */\n      dup3\n        /* \"#utility.yul\":12921:12924   */\n      dup5\n        /* \"#utility.yul\":12917:12936   */\n      sub\n        /* \"#utility.yul\":12913:12943   */\n      slt\n        /* \"#utility.yul\":12910:13027   */\n      iszero\n      tag_246\n      jumpi\n        /* \"#utility.yul\":12946:13025   */\n      tag_247\n      tag_100\n      jump\t// in\n    tag_247:\n        /* \"#utility.yul\":12910:13027   */\n    tag_246:\n        /* \"#utility.yul\":13045:13066   */\n      tag_248\n        /* \"#utility.yul\":13061:13065   */\n      0xa0\n        /* \"#utility.yul\":13045:13066   */\n      tag_103\n      jump\t// in\n    tag_248:\n        /* \"#utility.yul\":13036:13066   */\n      swap1\n      pop\n        /* \"#utility.yul\":13150:13151   */\n      0x00\n        /* \"#utility.yul\":13190:13247   */\n      tag_249\n        /* \"#utility.yul\":13243:13246   */\n      dup5\n        /* \"#utility.yul\":13234:13240   */\n      dup3\n        /* \"#utility.yul\":13223:13232   */\n      dup6\n        /* \"#utility.yul\":13219:13241   */\n      add\n        /* \"#utility.yul\":13190:13247   */\n      tag_99\n      jump\t// in\n    tag_249:\n        /* \"#utility.yul\":13183:13187   */\n      0x00\n        /* \"#utility.yul\":13176:13181   */\n      dup4\n        /* \"#utility.yul\":13172:13188   */\n      add\n        /* \"#utility.yul\":13165:13248   */\n      mstore\n        /* \"#utility.yul\":13076:13259   */\n      pop\n        /* \"#utility.yul\":13327:13329   */\n      0x20\n        /* \"#utility.yul\":13368:13425   */\n      tag_250\n        /* \"#utility.yul\":13421:13424   */\n      dup5\n        /* \"#utility.yul\":13412:13418   */\n      dup3\n        /* \"#utility.yul\":13401:13410   */\n      dup6\n        /* \"#utility.yul\":13397:13419   */\n      add\n        /* \"#utility.yul\":13368:13425   */\n      tag_99\n      jump\t// in\n    tag_250:\n        /* \"#utility.yul\":13361:13365   */\n      0x20\n        /* \"#utility.yul\":13354:13359   */\n      dup4\n        /* \"#utility.yul\":13350:13366   */\n      add\n        /* \"#utility.yul\":13343:13426   */\n      mstore\n        /* \"#utility.yul\":13269:13437   */\n      pop\n        /* \"#utility.yul\":13509:13511   */\n      0x40\n        /* \"#utility.yul\":13550:13607   */\n      tag_251\n        /* \"#utility.yul\":13603:13606   */\n      dup5\n        /* \"#utility.yul\":13594:13600   */\n      dup3\n        /* \"#utility.yul\":13583:13592   */\n      dup6\n        /* \"#utility.yul\":13579:13601   */\n      add\n        /* \"#utility.yul\":13550:13607   */\n      tag_99\n      jump\t// in\n    tag_251:\n        /* \"#utility.yul\":13543:13547   */\n      0x40\n        /* \"#utility.yul\":13536:13541   */\n      dup4\n        /* \"#utility.yul\":13532:13548   */\n      add\n        /* \"#utility.yul\":13525:13608   */\n      mstore\n        /* \"#utility.yul\":13447:13619   */\n      pop\n        /* \"#utility.yul\":13689:13691   */\n      0x60\n        /* \"#utility.yul\":13730:13790   */\n      tag_252\n        /* \"#utility.yul\":13786:13789   */\n      dup5\n        /* \"#utility.yul\":13777:13783   */\n      dup3\n        /* \"#utility.yul\":13766:13775   */\n      dup6\n        /* \"#utility.yul\":13762:13784   */\n      add\n        /* \"#utility.yul\":13730:13790   */\n      tag_106\n      jump\t// in\n    tag_252:\n        /* \"#utility.yul\":13723:13727   */\n      0x60\n        /* \"#utility.yul\":13716:13721   */\n      dup4\n        /* \"#utility.yul\":13712:13728   */\n      add\n        /* \"#utility.yul\":13705:13791   */\n      mstore\n        /* \"#utility.yul\":13629:13802   */\n      pop\n        /* \"#utility.yul\":13874:13877   */\n      0x80\n        /* \"#utility.yul\":13916:13976   */\n      tag_253\n        /* \"#utility.yul\":13972:13975   */\n      dup5\n        /* \"#utility.yul\":13963:13969   */\n      dup3\n        /* \"#utility.yul\":13952:13961   */\n      dup6\n        /* \"#utility.yul\":13948:13970   */\n      add\n        /* \"#utility.yul\":13916:13976   */\n      tag_106\n      jump\t// in\n    tag_253:\n        /* \"#utility.yul\":13909:13913   */\n      0x80\n        /* \"#utility.yul\":13902:13907   */\n      dup4\n        /* \"#utility.yul\":13898:13914   */\n      add\n        /* \"#utility.yul\":13891:13977   */\n      mstore\n        /* \"#utility.yul\":13812:13988   */\n      pop\n        /* \"#utility.yul\":12792:13995   */\n      swap3\n      swap2\n      pop\n      pop\n      jump\t// out\n        /* \"#utility.yul\":14001:14121   */\n    tag_108:\n        /* \"#utility.yul\":14073:14096   */\n      tag_255\n        /* \"#utility.yul\":14090:14095   */\n      dup2\n        /* \"#utility.yul\":14073:14096   */\n      tag_73\n      jump\t// in\n    tag_255:\n        /* \"#utility.yul\":14066:14071   */\n      dup2\n        /* \"#utility.yul\":14063:14097   */\n      eq\n        /* \"#utility.yul\":14053:14115   */\n      tag_256\n      jumpi\n        /* \"#utility.yul\":14111:14112   */\n      0x00\n        /* \"#utility.yul\":14108:14109   */\n      dup1\n        /* \"#utility.yul\":14101:14113   */\n      revert\n        /* \"#utility.yul\":14053:14115   */\n    tag_256:\n        /* \"#utility.yul\":14001:14121   */\n      pop\n      jump\t// out\n        /* \"#utility.yul\":14127:14268   */\n    tag_109:\n        /* \"#utility.yul\":14183:14188   */\n      0x00\n        /* \"#utility.yul\":14214:14220   */\n      dup2\n        /* \"#utility.yul\":14208:14221   */\n      mload\n        /* \"#utility.yul\":14199:14221   */\n      swap1\n      pop\n        /* \"#utility.yul\":14230:14262   */\n      tag_258\n        /* \"#utility.yul\":14256:14261   */\n      dup2\n        /* \"#utility.yul\":14230:14262   */\n      tag_108\n      jump\t// in\n    tag_258:\n        /* \"#utility.yul\":14127:14268   */\n      swap3\n      swap2\n      pop\n      pop\n      jump\t// out\n        /* \"#utility.yul\":14274:14383   */\n    tag_110:\n        /* \"#utility.yul\":14324:14331   */\n      0x00\n        /* \"#utility.yul\":14353:14377   */\n      tag_260\n        /* \"#utility.yul\":14371:14376   */\n      dup3\n        /* \"#utility.yul\":14353:14377   */\n      tag_70\n      jump\t// in\n    tag_260:\n        /* \"#utility.yul\":14342:14377   */\n      swap1\n      pop\n        /* \"#utility.yul\":14274:14383   */\n      swap2\n      swap1\n      pop\n      jump\t// out\n        /* \"#utility.yul\":14389:14537   */\n    tag_111:\n        /* \"#utility.yul\":14475:14512   */\n      tag_262\n        /* \"#utility.yul\":14506:14511   */\n      dup2\n        /* \"#utility.yul\":14475:14512   */\n      tag_110\n      jump\t// in\n    tag_262:\n        /* \"#utility.yul\":14468:14473   */\n      dup2\n        /* \"#utility.yul\":14465:14513   */\n      eq\n        /* \"#utility.yul\":14455:14531   */\n      tag_263\n      jumpi\n        /* \"#utility.yul\":14527:14528   */\n      0x00\n        /* \"#utility.yul\":14524:14525   */\n      dup1\n        /* \"#utility.yul\":14517:14529   */\n      revert\n        /* \"#utility.yul\":14455:14531   */\n    tag_263:\n        /* \"#utility.yul\":14389:14537   */\n      pop\n      jump\t// out\n        /* \"#utility.yul\":14543:14712   */\n    tag_112:\n        /* \"#utility.yul\":14613:14618   */\n      0x00\n        /* \"#utility.yul\":14644:14650   */\n      dup2\n        /* \"#utility.yul\":14638:14651   */\n      mload\n        /* \"#utility.yul\":14629:14651   */\n      swap1\n      pop\n        /* \"#utility.yul\":14660:14706   */\n      tag_265\n        /* \"#utility.yul\":14700:14705   */\n      dup2\n        /* \"#utility.yul\":14660:14706   */\n      tag_111\n      jump\t// in\n    tag_265:\n        /* \"#utility.yul\":14543:14712   */\n      swap3\n      swap2\n      pop\n      pop\n      jump\t// out\n        /* \"#utility.yul\":14718:14840   */\n    tag_113:\n        /* \"#utility.yul\":14791:14815   */\n      tag_267\n        /* \"#utility.yul\":14809:14814   */\n      dup2\n        /* \"#utility.yul\":14791:14815   */\n      tag_81\n      jump\t// in\n    tag_267:\n        /* \"#utility.yul\":14784:14789   */\n      dup2\n        /* \"#utility.yul\":14781:14816   */\n      eq\n        /* \"#utility.yul\":14771:14834   */\n      tag_268\n      jumpi\n        /* \"#utility.yul\":14830:14831   */\n      0x00\n        /* \"#utility.yul\":14827:14828   */\n      dup1\n        /* \"#utility.yul\":14820:14832   */\n      revert\n        /* \"#utility.yul\":14771:14834   */\n    tag_268:\n        /* \"#utility.yul\":14718:14840   */\n      pop\n      jump\t// out\n        /* \"#utility.yul\":14846:14989   */\n    tag_114:\n        /* \"#utility.yul\":14903:14908   */\n      0x00\n        /* \"#utility.yul\":14934:14940   */\n      dup2\n        /* \"#utility.yul\":14928:14941   */\n      mload\n        /* \"#utility.yul\":14919:14941   */\n      swap1\n      pop\n        /* \"#utility.yul\":14950:14983   */\n      tag_270\n        /* \"#utility.yul\":14977:14982   */\n      dup2\n        /* \"#utility.yul\":14950:14983   */\n      tag_113\n      jump\t// in\n    tag_270:\n        /* \"#utility.yul\":14846:14989   */\n      swap3\n      swap2\n      pop\n      pop\n      jump\t// out\n        /* \"#utility.yul\":15047:17539   */\n    tag_115:\n        /* \"#utility.yul\":15133:15138   */\n      0x00\n        /* \"#utility.yul\":15177:15183   */\n      0x0200\n        /* \"#utility.yul\":15165:15174   */\n      dup3\n        /* \"#utility.yul\":15160:15163   */\n      dup5\n        /* \"#utility.yul\":15156:15175   */\n      sub\n        /* \"#utility.yul\":15152:15184   */\n      slt\n        /* \"#utility.yul\":15149:15268   */\n      iszero\n      tag_272\n      jumpi\n        /* \"#utility.yul\":15187:15266   */\n      tag_273\n      tag_100\n      jump\t// in\n    tag_273:\n        /* \"#utility.yul\":15149:15268   */\n    tag_272:\n        /* \"#utility.yul\":15286:15309   */\n      tag_274\n        /* \"#utility.yul\":15302:15308   */\n      0x0180\n        /* \"#utility.yul\":15286:15309   */\n      tag_103\n      jump\t// in\n    tag_274:\n        /* \"#utility.yul\":15277:15309   */\n      swap1\n      pop\n        /* \"#utility.yul\":15389:15390   */\n      0x00\n        /* \"#utility.yul\":15429:15531   */\n      tag_275\n        /* \"#utility.yul\":15527:15530   */\n      dup5\n        /* \"#utility.yul\":15518:15524   */\n      dup3\n        /* \"#utility.yul\":15507:15516   */\n      dup6\n        /* \"#utility.yul\":15503:15525   */\n      add\n        /* \"#utility.yul\":15429:15531   */\n      tag_107\n      jump\t// in\n    tag_275:\n        /* \"#utility.yul\":15422:15426   */\n      0x00\n        /* \"#utility.yul\":15415:15420   */\n      dup4\n        /* \"#utility.yul\":15411:15427   */\n      add\n        /* \"#utility.yul\":15404:15532   */\n      mstore\n        /* \"#utility.yul\":15319:15543   */\n      pop\n        /* \"#utility.yul\":15606:15609   */\n      0xa0\n        /* \"#utility.yul\":15648:15708   */\n      tag_276\n        /* \"#utility.yul\":15704:15707   */\n      dup5\n        /* \"#utility.yul\":15695:15701   */\n      dup3\n        /* \"#utility.yul\":15684:15693   */\n      dup6\n        /* \"#utility.yul\":15680:15702   */\n      add\n        /* \"#utility.yul\":15648:15708   */\n      tag_106\n      jump\t// in\n    tag_276:\n        /* \"#utility.yul\":15641:15645   */\n      0x20\n        /* \"#utility.yul\":15634:15639   */\n      dup4\n        /* \"#utility.yul\":15630:15646   */\n      add\n        /* \"#utility.yul\":15623:15709   */\n      mstore\n        /* \"#utility.yul\":15553:15720   */\n      pop\n        /* \"#utility.yul\":15788:15791   */\n      0xc0\n        /* \"#utility.yul\":15830:15889   */\n      tag_277\n        /* \"#utility.yul\":15885:15888   */\n      dup5\n        /* \"#utility.yul\":15876:15882   */\n      dup3\n        /* \"#utility.yul\":15865:15874   */\n      dup6\n        /* \"#utility.yul\":15861:15883   */\n      add\n        /* \"#utility.yul\":15830:15889   */\n      tag_109\n      jump\t// in\n    tag_277:\n        /* \"#utility.yul\":15823:15827   */\n      0x40\n        /* \"#utility.yul\":15816:15821   */\n      dup4\n        /* \"#utility.yul\":15812:15828   */\n      add\n        /* \"#utility.yul\":15805:15890   */\n      mstore\n        /* \"#utility.yul\":15730:15901   */\n      pop\n        /* \"#utility.yul\":15963:15966   */\n      0xe0\n        /* \"#utility.yul\":16005:16062   */\n      tag_278\n        /* \"#utility.yul\":16058:16061   */\n      dup5\n        /* \"#utility.yul\":16049:16055   */\n      dup3\n        /* \"#utility.yul\":16038:16047   */\n      dup6\n        /* \"#utility.yul\":16034:16056   */\n      add\n        /* \"#utility.yul\":16005:16062   */\n      tag_99\n      jump\t// in\n    tag_278:\n        /* \"#utility.yul\":15998:16002   */\n      0x60\n        /* \"#utility.yul\":15991:15996   */\n      dup4\n        /* \"#utility.yul\":15987:16003   */\n      add\n        /* \"#utility.yul\":15980:16063   */\n      mstore\n        /* \"#utility.yul\":15911:16074   */\n      pop\n        /* \"#utility.yul\":16137:16140   */\n      0x0100\n        /* \"#utility.yul\":16179:16252   */\n      tag_279\n        /* \"#utility.yul\":16248:16251   */\n      dup5\n        /* \"#utility.yul\":16239:16245   */\n      dup3\n        /* \"#utility.yul\":16228:16237   */\n      dup6\n        /* \"#utility.yul\":16224:16246   */\n      add\n        /* \"#utility.yul\":16179:16252   */\n      tag_112\n      jump\t// in\n    tag_279:\n        /* \"#utility.yul\":16172:16176   */\n      0x80\n        /* \"#utility.yul\":16165:16170   */\n      dup4\n        /* \"#utility.yul\":16161:16177   */\n      add\n        /* \"#utility.yul\":16154:16253   */\n      mstore\n        /* \"#utility.yul\":16084:16264   */\n      pop\n        /* \"#utility.yul\":16333:16336   */\n      0x0120\n        /* \"#utility.yul\":16375:16434   */\n      tag_280\n        /* \"#utility.yul\":16430:16433   */\n      dup5\n        /* \"#utility.yul\":16421:16427   */\n      dup3\n        /* \"#utility.yul\":16410:16419   */\n      dup6\n        /* \"#utility.yul\":16406:16428   */\n      add\n        /* \"#utility.yul\":16375:16434   */\n      tag_109\n      jump\t// in\n    tag_280:\n        /* \"#utility.yul\":16368:16372   */\n      0xa0\n        /* \"#utility.yul\":16361:16366   */\n      dup4\n        /* \"#utility.yul\":16357:16373   */\n      add\n        /* \"#utility.yul\":16350:16435   */\n      mstore\n        /* \"#utility.yul\":16274:16446   */\n      pop\n        /* \"#utility.yul\":16521:16524   */\n      0x0140\n        /* \"#utility.yul\":16563:16620   */\n      tag_281\n        /* \"#utility.yul\":16616:16619   */\n      dup5\n        /* \"#utility.yul\":16607:16613   */\n      dup3\n        /* \"#utility.yul\":16596:16605   */\n      dup6\n        /* \"#utility.yul\":16592:16614   */\n      add\n        /* \"#utility.yul\":16563:16620   */\n      tag_99\n      jump\t// in\n    tag_281:\n        /* \"#utility.yul\":16556:16560   */\n      0xc0\n        /* \"#utility.yul\":16549:16554   */\n      dup4\n        /* \"#utility.yul\":16545:16561   */\n      add\n        /* \"#utility.yul\":16538:16621   */\n      mstore\n        /* \"#utility.yul\":16456:16632   */\n      pop\n        /* \"#utility.yul\":16695:16698   */\n      0x0160\n        /* \"#utility.yul\":16737:16797   */\n      tag_282\n        /* \"#utility.yul\":16793:16796   */\n      dup5\n        /* \"#utility.yul\":16784:16790   */\n      dup3\n        /* \"#utility.yul\":16773:16782   */\n      dup6\n        /* \"#utility.yul\":16769:16791   */\n      add\n        /* \"#utility.yul\":16737:16797   */\n      tag_97\n      jump\t// in\n    tag_282:\n        /* \"#utility.yul\":16730:16734   */\n      0xe0\n        /* \"#utility.yul\":16723:16728   */\n      dup4\n        /* \"#utility.yul\":16719:16735   */\n      add\n        /* \"#utility.yul\":16712:16798   */\n      mstore\n        /* \"#utility.yul\":16642:16809   */\n      pop\n        /* \"#utility.yul\":16874:16877   */\n      0x0180\n        /* \"#utility.yul\":16918:16978   */\n      tag_283\n        /* \"#utility.yul\":16974:16977   */\n      dup5\n        /* \"#utility.yul\":16965:16971   */\n      dup3\n        /* \"#utility.yul\":16954:16963   */\n      dup6\n        /* \"#utility.yul\":16950:16972   */\n      add\n        /* \"#utility.yul\":16918:16978   */\n      tag_97\n      jump\t// in\n    tag_283:\n        /* \"#utility.yul\":16909:16915   */\n      0x0100\n        /* \"#utility.yul\":16902:16907   */\n      dup4\n        /* \"#utility.yul\":16898:16916   */\n      add\n        /* \"#utility.yul\":16891:16979   */\n      mstore\n        /* \"#utility.yul\":16819:16990   */\n      pop\n        /* \"#utility.yul\":17049:17052   */\n      0x01a0\n        /* \"#utility.yul\":17093:17153   */\n      tag_284\n        /* \"#utility.yul\":17149:17152   */\n      dup5\n        /* \"#utility.yul\":17140:17146   */\n      dup3\n        /* \"#utility.yul\":17129:17138   */\n      dup6\n        /* \"#utility.yul\":17125:17147   */\n      add\n        /* \"#utility.yul\":17093:17153   */\n      tag_114\n      jump\t// in\n    tag_284:\n        /* \"#utility.yul\":17084:17090   */\n      0x0120\n        /* \"#utility.yul\":17077:17082   */\n      dup4\n        /* \"#utility.yul\":17073:17091   */\n      add\n        /* \"#utility.yul\":17066:17154   */\n      mstore\n        /* \"#utility.yul\":17000:17165   */\n      pop\n        /* \"#utility.yul\":17237:17240   */\n      0x01c0\n        /* \"#utility.yul\":17281:17341   */\n      tag_285\n        /* \"#utility.yul\":17337:17340   */\n      dup5\n        /* \"#utility.yul\":17328:17334   */\n      dup3\n        /* \"#utility.yul\":17317:17326   */\n      dup6\n        /* \"#utility.yul\":17313:17335   */\n      add\n        /* \"#utility.yul\":17281:17341   */\n      tag_106\n      jump\t// in\n    tag_285:\n        /* \"#utility.yul\":17272:17278   */\n      0x0140\n        /* \"#utility.yul\":17265:17270   */\n      dup4\n        /* \"#utility.yul\":17261:17279   */\n      add\n        /* \"#utility.yul\":17254:17342   */\n      mstore\n        /* \"#utility.yul\":17175:17353   */\n      pop\n        /* \"#utility.yul\":17416:17419   */\n      0x01e0\n        /* \"#utility.yul\":17460:17520   */\n      tag_286\n        /* \"#utility.yul\":17516:17519   */\n      dup5\n        /* \"#utility.yul\":17507:17513   */\n      dup3\n        /* \"#utility.yul\":17496:17505   */\n      dup6\n        /* \"#utility.yul\":17492:17514   */\n      add\n        /* \"#utility.yul\":17460:17520   */\n      tag_106\n      jump\t// in\n    tag_286:\n        /* \"#utility.yul\":17451:17457   */\n      0x0160\n        /* \"#utility.yul\":17444:17449   */\n      dup4\n        /* \"#utility.yul\":17440:17458   */\n      add\n        /* \"#utility.yul\":17433:17521   */\n      mstore\n        /* \"#utility.yul\":17363:17532   */\n      pop\n        /* \"#utility.yul\":15047:17539   */\n      swap3\n      swap2\n      pop\n      pop\n      jump\t// out\n        /* \"#utility.yul\":17545:17949   */\n    tag_50:\n        /* \"#utility.yul\":17641:17647   */\n      0x00\n        /* \"#utility.yul\":17690:17693   */\n      0x0200\n        /* \"#utility.yul\":17678:17687   */\n      dup3\n        /* \"#utility.yul\":17669:17676   */\n      dup5\n        /* \"#utility.yul\":17665:17688   */\n      sub\n        /* \"#utility.yul\":17661:17694   */\n      slt\n        /* \"#utility.yul\":17658:17778   */\n      iszero\n      tag_288\n      jumpi\n        /* \"#utility.yul\":17697:17776   */\n      tag_289\n      tag_94\n      jump\t// in\n    tag_289:\n        /* \"#utility.yul\":17658:17778   */\n    tag_288:\n        /* \"#utility.yul\":17817:17818   */\n      0x00\n        /* \"#utility.yul\":17842:17932   */\n      tag_290\n        /* \"#utility.yul\":17924:17931   */\n      dup5\n        /* \"#utility.yul\":17915:17921   */\n      dup3\n        /* \"#utility.yul\":17904:17913   */\n      dup6\n        /* \"#utility.yul\":17900:17922   */\n      add\n        /* \"#utility.yul\":17842:17932   */\n      tag_115\n      jump\t// in\n    tag_290:\n        /* \"#utility.yul\":17832:17932   */\n      swap2\n      pop\n        /* \"#utility.yul\":17788:17942   */\n      pop\n        /* \"#utility.yul\":17545:17949   */\n      swap3\n      swap2\n      pop\n      pop\n      jump\t// out\n\n    auxdata: 0xa26469706673582212206fe1bdcbe2dc36b4596b82d97b748c7ca1f47235dbba771a7161ce78439ea67364736f6c63430008100033\n}\n",
				"bytecode": {
					"linkReferences": {},
					"object": "6080604052739923d42ef695b5dd9911d05ac944d4caca3c4eab6000806101000a81548173ffffffffffffffffffffffffffffffffffffffff021916908373ffffffffffffffffffffffffffffffffffffffff1602179055506040518060400160405280601a81526020017f48656c6c6f20776f726c642066726f6d2072616d657368646f6e000000000000815250600190816200009e91906200032d565b50348015620000ac57600080fd5b5062000414565b600081519050919050565b7f4e487b7100000000000000000000000000000000000000000000000000000000600052604160045260246000fd5b7f4e487b7100000000000000000000000000000000000000000000000000000000600052602260045260246000fd5b600060028204905060018216806200013557607f821691505b6020821081036200014b576200014a620000ed565b5b50919050565b60008190508160005260206000209050919050565b60006020601f8301049050919050565b600082821b905092915050565b600060088302620001b57fffffffffffffffffffffffffffffffffffffffffffffffffffffffffffffffff8262000176565b620001c1868362000176565b95508019841693508086168417925050509392505050565b6000819050919050565b6000819050919050565b60006200020e620002086200020284620001d9565b620001e3565b620001d9565b9050919050565b6000819050919050565b6200022a83620001ed565b62000242620002398262000215565b84845462000183565b825550505050565b600090565b620002596200024a565b620002668184846200021f565b505050565b5b818110156200028e57620002826000826200024f565b6001810190506200026c565b5050565b601f821115620002dd57620002a78162000151565b620002b28462000166565b81016020851015620002c2578190505b620002da620002d18562000166565b8301826200026b565b50505b505050565b600082821c905092915050565b60006200030260001984600802620002e2565b1980831691505092915050565b60006200031d8383620002ef565b9150826002028217905092915050565b6200033882620000b3565b67ffffffffffffffff811115620003545762000353620000be565b5b6200036082546200011c565b6200036d82828562000292565b600060209050601f831160018114620003a5576000841562000390578287015190505b6200039c85826200030f565b8655506200040c565b601f198416620003b58662000151565b60005b82811015620003df57848901518255600182019150602085019450602081019050620003b8565b86831015620003ff5784890151620003fb601f891682620002ef565b8355505b6001600288020188555050505b505050505050565b610e5980620004246000396000f3fe608060405234801561001057600080fd5b50600436106100625760003560e01c80630d80da74146100675780633421390b146100855780637facaf3f1461008f5780639a3ddabc146100ad578063bc1dbc52146100cb578063c1a8ec2c146100e9575b600080fd5b61006f610107565b60405161007c919061058d565b60405180910390f35b61008d61010d565b005b6100976101b4565b6040516100a491906105c3565b60405180910390f35b6100b5610258565b6040516100c2919061083a565b60405180910390f35b6100d3610302565b6040516100e091906105c3565b60405180910390f35b6100f16103a8565b6040516100fe91906108e6565b60405180910390f35b60025481565b60008054906101000a900473ffffffffffffffffffffffffffffffffffffffff1673ffffffffffffffffffffffffffffffffffffffff166336b13af46001306040518363ffffffff1660e01b8152600401610169929190610a10565b6020604051808303816000875af1158015610188573d6000803e3d6000fd5b505050506040513d601f19601f820116820180604052508101906101ac9190610a7b565b600281905550565b60008060009054906101000a900473ffffffffffffffffffffffffffffffffffffffff1673ffffffffffffffffffffffffffffffffffffffff1663e39dfd7f6002546040518263ffffffff1660e01b8152600401610212919061058d565b602060405180830381865afa15801561022f573d6000803e3d6000fd5b505050506040513d601f19601f820116820180604052508101906102539190610ad4565b905090565b610260610436565b60008054906101000a900473ffffffffffffffffffffffffffffffffffffffff1673ffffffffffffffffffffffffffffffffffffffff1663883028846002546040518263ffffffff1660e01b81526004016102bb919061058d565b61020060405180830381865afa1580156102d9573d6000803e3d6000fd5b505050506040513d601f19601f820116820180604052508101906102fd9190610df5565b905090565b60008060009054906101000a900473ffffffffffffffffffffffffffffffffffffffff1673ffffffffffffffffffffffffffffffffffffffff16638ea2f2ab6002546040518263ffffffff1660e01b8152600401610360919061058d565b6020604051808303816000875af115801561037f573d6000803e3d6000fd5b505050506040513d601f19601f820116820180604052508101906103a39190610ad4565b905090565b600180546103b590610937565b80601f01602080910402602001604051908101604052809291908181526020018280546103e190610937565b801561042e5780601f106104035761010080835404028352916020019161042e565b820191906000526020600020905b81548152906001019060200180831161041157829003601f168201915b505050505081565b60405180610180016040528061044a610513565b8152602001600073ffffffffffffffffffffffffffffffffffffffff168152602001600067ffffffffffffffff168152602001600015158152602001600073ffffffffffffffffffffffffffffffffffffffff168152602001600067ffffffffffffffff168152602001600015158152602001600080191681526020016000801916815260200160008152602001600073ffffffffffffffffffffffffffffffffffffffff168152602001600073ffffffffffffffffffffffffffffffffffffffff1681525090565b6040518060a00160405280600015158152602001600015158152602001600015158152602001600073ffffffffffffffffffffffffffffffffffffffff168152602001600073ffffffffffffffffffffffffffffffffffffffff1681525090565b6000819050919050565b61058781610574565b82525050565b60006020820190506105a2600083018461057e565b92915050565b60008115159050919050565b6105bd816105a8565b82525050565b60006020820190506105d860008301846105b4565b92915050565b6105e7816105a8565b82525050565b600073ffffffffffffffffffffffffffffffffffffffff82169050919050565b6000610618826105ed565b9050919050565b6106288161060d565b82525050565b60a08201600082015161064460008501826105de565b50602082015161065760208501826105de565b50604082015161066a60408501826105de565b50606082015161067d606085018261061f565b506080820151610690608085018261061f565b50505050565b600067ffffffffffffffff82169050919050565b6106b381610696565b82525050565b6000819050919050565b60006106de6106d96106d4846105ed565b6106b9565b6105ed565b9050919050565b60006106f0826106c3565b9050919050565b6000610702826106e5565b9050919050565b610712816106f7565b82525050565b61072181610574565b82525050565b6000819050919050565b61073a81610727565b82525050565b61020082016000820151610757600085018261062e565b50602082015161076a60a085018261061f565b50604082015161077d60c08501826106aa565b50606082015161079060e08501826105de565b5060808201516107a4610100850182610709565b5060a08201516107b86101208501826106aa565b5060c08201516107cc6101408501826105de565b5060e08201516107e0610160850182610718565b506101008201516107f5610180850182610718565b5061012082015161080a6101a0850182610731565b5061014082015161081f6101c085018261061f565b506101608201516108346101e085018261061f565b50505050565b6000610200820190506108506000830184610740565b92915050565b600081519050919050565b600082825260208201905092915050565b60005b83811015610890578082015181840152602081019050610875565b60008484015250505050565b6000601f19601f8301169050919050565b60006108b882610856565b6108c28185610861565b93506108d2818560208601610872565b6108db8161089c565b840191505092915050565b6000602082019050818103600083015261090081846108ad565b905092915050565b7f4e487b7100000000000000000000000000000000000000000000000000000000600052602260045260246000fd5b6000600282049050600182168061094f57607f821691505b60208210810361096257610961610908565b5b50919050565b60008190508160005260206000209050919050565b6000815461098a81610937565b6109948186610861565b945060018216600081146109af57600181146109c5576109f8565b60ff1983168652811515602002860193506109f8565b6109ce85610968565b60005b838110156109f0578154818901526001820191506020810190506109d1565b808801955050505b50505092915050565b610a0a8161060d565b82525050565b60006040820190508181036000830152610a2a818561097d565b9050610a396020830184610a01565b9392505050565b6000604051905090565b600080fd5b610a5881610574565b8114610a6357600080fd5b50565b600081519050610a7581610a4f565b92915050565b600060208284031215610a9157610a90610a4a565b5b6000610a9f84828501610a66565b91505092915050565b610ab1816105a8565b8114610abc57600080fd5b50565b600081519050610ace81610aa8565b92915050565b600060208284031215610aea57610ae9610a4a565b5b6000610af884828501610abf565b91505092915050565b600080fd5b7f4e487b7100000000000000000000000000000000000000000000000000000000600052604160045260246000fd5b610b3e8261089c565b810181811067ffffffffffffffff82111715610b5d57610b5c610b06565b5b80604052505050565b6000610b70610a40565b9050610b7c8282610b35565b919050565b610b8a8161060d565b8114610b9557600080fd5b50565b600081519050610ba781610b81565b92915050565b600060a08284031215610bc357610bc2610b01565b5b610bcd60a0610b66565b90506000610bdd84828501610abf565b6000830152506020610bf184828501610abf565b6020830152506040610c0584828501610abf565b6040830152506060610c1984828501610b98565b6060830152506080610c2d84828501610b98565b60808301525092915050565b610c4281610696565b8114610c4d57600080fd5b50565b600081519050610c5f81610c39565b92915050565b6000610c708261060d565b9050919050565b610c8081610c65565b8114610c8b57600080fd5b50565b600081519050610c9d81610c77565b92915050565b610cac81610727565b8114610cb757600080fd5b50565b600081519050610cc981610ca3565b92915050565b60006102008284031215610ce657610ce5610b01565b5b610cf1610180610b66565b90506000610d0184828501610bad565b60008301525060a0610d1584828501610b98565b60208301525060c0610d2984828501610c50565b60408301525060e0610d3d84828501610abf565b606083015250610100610d5284828501610c8e565b608083015250610120610d6784828501610c50565b60a083015250610140610d7c84828501610abf565b60c083015250610160610d9184828501610a66565b60e083015250610180610da684828501610a66565b610100830152506101a0610dbc84828501610cba565b610120830152506101c0610dd284828501610b98565b610140830152506101e0610de884828501610b98565b6101608301525092915050565b60006102008284031215610e0c57610e0b610a4a565b5b6000610e1a84828501610ccf565b9150509291505056fea26469706673582212206fe1bdcbe2dc36b4596b82d97b748c7ca1f47235dbba771a7161ce78439ea67364736f6c63430008100033",
					"opcodes": "PUSH1 0x80 PUSH1 0x40 MSTORE PUSH20 0x9923D42EF695B5DD9911D05AC944D4CACA3C4EAB PUSH1 0x0 DUP1 PUSH2 0x100 EXP DUP2 SLOAD DUP2 PUSH20 0xFFFFFFFFFFFFFFFFFFFFFFFFFFFFFFFFFFFFFFFF MUL NOT AND SWAP1 DUP4 PUSH20 0xFFFFFFFFFFFFFFFFFFFFFFFFFFFFFFFFFFFFFFFF AND MUL OR SWAP1 SSTORE POP PUSH1 0x40 MLOAD DUP1 PUSH1 0x40 ADD PUSH1 0x40 MSTORE DUP1 PUSH1 0x1A DUP2 MSTORE PUSH1 0x20 ADD PUSH32 0x48656C6C6F20776F726C642066726F6D2072616D657368646F6E000000000000 DUP2 MSTORE POP PUSH1 0x1 SWAP1 DUP2 PUSH3 0x9E SWAP2 SWAP1 PUSH3 0x32D JUMP JUMPDEST POP CALLVALUE DUP1 ISZERO PUSH3 0xAC JUMPI PUSH1 0x0 DUP1 REVERT JUMPDEST POP PUSH3 0x414 JUMP JUMPDEST PUSH1 0x0 DUP2 MLOAD SWAP1 POP SWAP2 SWAP1 POP JUMP JUMPDEST PUSH32 0x4E487B7100000000000000000000000000000000000000000000000000000000 PUSH1 0x0 MSTORE PUSH1 0x41 PUSH1 0x4 MSTORE PUSH1 0x24 PUSH1 0x0 REVERT JUMPDEST PUSH32 0x4E487B7100000000000000000000000000000000000000000000000000000000 PUSH1 0x0 MSTORE PUSH1 0x22 PUSH1 0x4 MSTORE PUSH1 0x24 PUSH1 0x0 REVERT JUMPDEST PUSH1 0x0 PUSH1 0x2 DUP3 DIV SWAP1 POP PUSH1 0x1 DUP3 AND DUP1 PUSH3 0x135 JUMPI PUSH1 0x7F DUP3 AND SWAP2 POP JUMPDEST PUSH1 0x20 DUP3 LT DUP2 SUB PUSH3 0x14B JUMPI PUSH3 0x14A PUSH3 0xED JUMP JUMPDEST JUMPDEST POP SWAP2 SWAP1 POP JUMP JUMPDEST PUSH1 0x0 DUP2 SWAP1 POP DUP2 PUSH1 0x0 MSTORE PUSH1 0x20 PUSH1 0x0 KECCAK256 SWAP1 POP SWAP2 SWAP1 POP JUMP JUMPDEST PUSH1 0x0 PUSH1 0x20 PUSH1 0x1F DUP4 ADD DIV SWAP1 POP SWAP2 SWAP1 POP JUMP JUMPDEST PUSH1 0x0 DUP3 DUP3 SHL SWAP1 POP SWAP3 SWAP2 POP POP JUMP JUMPDEST PUSH1 0x0 PUSH1 0x8 DUP4 MUL PUSH3 0x1B5 PUSH32 0xFFFFFFFFFFFFFFFFFFFFFFFFFFFFFFFFFFFFFFFFFFFFFFFFFFFFFFFFFFFFFFFF DUP3 PUSH3 0x176 JUMP JUMPDEST PUSH3 0x1C1 DUP7 DUP4 PUSH3 0x176 JUMP JUMPDEST SWAP6 POP DUP1 NOT DUP5 AND SWAP4 POP DUP1 DUP7 AND DUP5 OR SWAP3 POP POP POP SWAP4 SWAP3 POP POP POP JUMP JUMPDEST PUSH1 0x0 DUP2 SWAP1 POP SWAP2 SWAP1 POP JUMP JUMPDEST PUSH1 0x0 DUP2 SWAP1 POP SWAP2 SWAP1 POP JUMP JUMPDEST PUSH1 0x0 PUSH3 0x20E PUSH3 0x208 PUSH3 0x202 DUP5 PUSH3 0x1D9 JUMP JUMPDEST PUSH3 0x1E3 JUMP JUMPDEST PUSH3 0x1D9 JUMP JUMPDEST SWAP1 POP SWAP2 SWAP1 POP JUMP JUMPDEST PUSH1 0x0 DUP2 SWAP1 POP SWAP2 SWAP1 POP JUMP JUMPDEST PUSH3 0x22A DUP4 PUSH3 0x1ED JUMP JUMPDEST PUSH3 0x242 PUSH3 0x239 DUP3 PUSH3 0x215 JUMP JUMPDEST DUP5 DUP5 SLOAD PUSH3 0x183 JUMP JUMPDEST DUP3 SSTORE POP POP POP POP JUMP JUMPDEST PUSH1 0x0 SWAP1 JUMP JUMPDEST PUSH3 0x259 PUSH3 0x24A JUMP JUMPDEST PUSH3 0x266 DUP2 DUP5 DUP5 PUSH3 0x21F JUMP JUMPDEST POP POP POP JUMP JUMPDEST JUMPDEST DUP2 DUP2 LT ISZERO PUSH3 0x28E JUMPI PUSH3 0x282 PUSH1 0x0 DUP3 PUSH3 0x24F JUMP JUMPDEST PUSH1 0x1 DUP2 ADD SWAP1 POP PUSH3 0x26C JUMP JUMPDEST POP POP JUMP JUMPDEST PUSH1 0x1F DUP3 GT ISZERO PUSH3 0x2DD JUMPI PUSH3 0x2A7 DUP2 PUSH3 0x151 JUMP JUMPDEST PUSH3 0x2B2 DUP5 PUSH3 0x166 JUMP JUMPDEST DUP2 ADD PUSH1 0x20 DUP6 LT ISZERO PUSH3 0x2C2 JUMPI DUP2 SWAP1 POP JUMPDEST PUSH3 0x2DA PUSH3 0x2D1 DUP6 PUSH3 0x166 JUMP JUMPDEST DUP4 ADD DUP3 PUSH3 0x26B JUMP JUMPDEST POP POP JUMPDEST POP POP POP JUMP JUMPDEST PUSH1 0x0 DUP3 DUP3 SHR SWAP1 POP SWAP3 SWAP2 POP POP JUMP JUMPDEST PUSH1 0x0 PUSH3 0x302 PUSH1 0x0 NOT DUP5 PUSH1 0x8 MUL PUSH3 0x2E2 JUMP JUMPDEST NOT DUP1 DUP4 AND SWAP2 POP POP SWAP3 SWAP2 POP POP JUMP JUMPDEST PUSH1 0x0 PUSH3 0x31D DUP4 DUP4 PUSH3 0x2EF JUMP JUMPDEST SWAP2 POP DUP3 PUSH1 0x2 MUL DUP3 OR SWAP1 POP SWAP3 SWAP2 POP POP JUMP JUMPDEST PUSH3 0x338 DUP3 PUSH3 0xB3 JUMP JUMPDEST PUSH8 0xFFFFFFFFFFFFFFFF DUP2 GT ISZERO PUSH3 0x354 JUMPI PUSH3 0x353 PUSH3 0xBE JUMP JUMPDEST JUMPDEST PUSH3 0x360 DUP3 SLOAD PUSH3 0x11C JUMP JUMPDEST PUSH3 0x36D DUP3 DUP3 DUP6 PUSH3 0x292 JUMP JUMPDEST PUSH1 0x0 PUSH1 0x20 SWAP1 POP PUSH1 0x1F DUP4 GT PUSH1 0x1 DUP2 EQ PUSH3 0x3A5 JUMPI PUSH1 0x0 DUP5 ISZERO PUSH3 0x390 JUMPI DUP3 DUP8 ADD MLOAD SWAP1 POP JUMPDEST PUSH3 0x39C DUP6 DUP3 PUSH3 0x30F JUMP JUMPDEST DUP7 SSTORE POP PUSH3 0x40C JUMP JUMPDEST PUSH1 0x1F NOT DUP5 AND PUSH3 0x3B5 DUP7 PUSH3 0x151 JUMP JUMPDEST PUSH1 0x0 JUMPDEST DUP3 DUP2 LT ISZERO PUSH3 0x3DF JUMPI DUP5 DUP10 ADD MLOAD DUP3 SSTORE PUSH1 0x1 DUP3 ADD SWAP2 POP PUSH1 0x20 DUP6 ADD SWAP5 POP PUSH1 0x20 DUP2 ADD SWAP1 POP PUSH3 0x3B8 JUMP JUMPDEST DUP7 DUP4 LT ISZERO PUSH3 0x3FF JUMPI DUP5 DUP10 ADD MLOAD PUSH3 0x3FB PUSH1 0x1F DUP10 AND DUP3 PUSH3 0x2EF JUMP JUMPDEST DUP4 SSTORE POP JUMPDEST PUSH1 0x1 PUSH1 0x2 DUP9 MUL ADD DUP9 SSTORE POP POP POP JUMPDEST POP POP POP POP POP POP JUMP JUMPDEST PUSH2 0xE59 DUP1 PUSH3 0x424 PUSH1 0x0 CODECOPY PUSH1 0x0 RETURN INVALID PUSH1 0x80 PUSH1 0x40 MSTORE CALLVALUE DUP1 ISZERO PUSH2 0x10 JUMPI PUSH1 0x0 DUP1 REVERT JUMPDEST POP PUSH1 0x4 CALLDATASIZE LT PUSH2 0x62 JUMPI PUSH1 0x0 CALLDATALOAD PUSH1 0xE0 SHR DUP1 PUSH4 0xD80DA74 EQ PUSH2 0x67 JUMPI DUP1 PUSH4 0x3421390B EQ PUSH2 0x85 JUMPI DUP1 PUSH4 0x7FACAF3F EQ PUSH2 0x8F JUMPI DUP1 PUSH4 0x9A3DDABC EQ PUSH2 0xAD JUMPI DUP1 PUSH4 0xBC1DBC52 EQ PUSH2 0xCB JUMPI DUP1 PUSH4 0xC1A8EC2C EQ PUSH2 0xE9 JUMPI JUMPDEST PUSH1 0x0 DUP1 REVERT JUMPDEST PUSH2 0x6F PUSH2 0x107 JUMP JUMPDEST PUSH1 0x40 MLOAD PUSH2 0x7C SWAP2 SWAP1 PUSH2 0x58D JUMP JUMPDEST PUSH1 0x40 MLOAD DUP1 SWAP2 SUB SWAP1 RETURN JUMPDEST PUSH2 0x8D PUSH2 0x10D JUMP JUMPDEST STOP JUMPDEST PUSH2 0x97 PUSH2 0x1B4 JUMP JUMPDEST PUSH1 0x40 MLOAD PUSH2 0xA4 SWAP2 SWAP1 PUSH2 0x5C3 JUMP JUMPDEST PUSH1 0x40 MLOAD DUP1 SWAP2 SUB SWAP1 RETURN JUMPDEST PUSH2 0xB5 PUSH2 0x258 JUMP JUMPDEST PUSH1 0x40 MLOAD PUSH2 0xC2 SWAP2 SWAP1 PUSH2 0x83A JUMP JUMPDEST PUSH1 0x40 MLOAD DUP1 SWAP2 SUB SWAP1 RETURN JUMPDEST PUSH2 0xD3 PUSH2 0x302 JUMP JUMPDEST PUSH1 0x40 MLOAD PUSH2 0xE0 SWAP2 SWAP1 PUSH2 0x5C3 JUMP JUMPDEST PUSH1 0x40 MLOAD DUP1 SWAP2 SUB SWAP1 RETURN JUMPDEST PUSH2 0xF1 PUSH2 0x3A8 JUMP JUMPDEST PUSH1 0x40 MLOAD PUSH2 0xFE SWAP2 SWAP1 PUSH2 0x8E6 JUMP JUMPDEST PUSH1 0x40 MLOAD DUP1 SWAP2 SUB SWAP1 RETURN JUMPDEST PUSH1 0x2 SLOAD DUP2 JUMP JUMPDEST PUSH1 0x0 DUP1 SLOAD SWAP1 PUSH2 0x100 EXP SWAP1 DIV PUSH20 0xFFFFFFFFFFFFFFFFFFFFFFFFFFFFFFFFFFFFFFFF AND PUSH20 0xFFFFFFFFFFFFFFFFFFFFFFFFFFFFFFFFFFFFFFFF AND PUSH4 0x36B13AF4 PUSH1 0x1 ADDRESS PUSH1 0x40 MLOAD DUP4 PUSH4 0xFFFFFFFF AND PUSH1 0xE0 SHL DUP2 MSTORE PUSH1 0x4 ADD PUSH2 0x169 SWAP3 SWAP2 SWAP1 PUSH2 0xA10 JUMP JUMPDEST PUSH1 0x20 PUSH1 0x40 MLOAD DUP1 DUP4 SUB DUP2 PUSH1 0x0 DUP8 GAS CALL ISZERO DUP1 ISZERO PUSH2 0x188 JUMPI RETURNDATASIZE PUSH1 0x0 DUP1 RETURNDATACOPY RETURNDATASIZE PUSH1 0x0 REVERT JUMPDEST POP POP POP POP PUSH1 0x40 MLOAD RETURNDATASIZE PUSH1 0x1F NOT PUSH1 0x1F DUP3 ADD AND DUP3 ADD DUP1 PUSH1 0x40 MSTORE POP DUP2 ADD SWAP1 PUSH2 0x1AC SWAP2 SWAP1 PUSH2 0xA7B JUMP JUMPDEST PUSH1 0x2 DUP2 SWAP1 SSTORE POP JUMP JUMPDEST PUSH1 0x0 DUP1 PUSH1 0x0 SWAP1 SLOAD SWAP1 PUSH2 0x100 EXP SWAP1 DIV PUSH20 0xFFFFFFFFFFFFFFFFFFFFFFFFFFFFFFFFFFFFFFFF AND PUSH20 0xFFFFFFFFFFFFFFFFFFFFFFFFFFFFFFFFFFFFFFFF AND PUSH4 0xE39DFD7F PUSH1 0x2 SLOAD PUSH1 0x40 MLOAD DUP3 PUSH4 0xFFFFFFFF AND PUSH1 0xE0 SHL DUP2 MSTORE PUSH1 0x4 ADD PUSH2 0x212 SWAP2 SWAP1 PUSH2 0x58D JUMP JUMPDEST PUSH1 0x20 PUSH1 0x40 MLOAD DUP1 DUP4 SUB DUP2 DUP7 GAS STATICCALL ISZERO DUP1 ISZERO PUSH2 0x22F JUMPI RETURNDATASIZE PUSH1 0x0 DUP1 RETURNDATACOPY RETURNDATASIZE PUSH1 0x0 REVERT JUMPDEST POP POP POP POP PUSH1 0x40 MLOAD RETURNDATASIZE PUSH1 0x1F NOT PUSH1 0x1F DUP3 ADD AND DUP3 ADD DUP1 PUSH1 0x40 MSTORE POP DUP2 ADD SWAP1 PUSH2 0x253 SWAP2 SWAP1 PUSH2 0xAD4 JUMP JUMPDEST SWAP1 POP SWAP1 JUMP JUMPDEST PUSH2 0x260 PUSH2 0x436 JUMP JUMPDEST PUSH1 0x0 DUP1 SLOAD SWAP1 PUSH2 0x100 EXP SWAP1 DIV PUSH20 0xFFFFFFFFFFFFFFFFFFFFFFFFFFFFFFFFFFFFFFFF AND PUSH20 0xFFFFFFFFFFFFFFFFFFFFFFFFFFFFFFFFFFFFFFFF AND PUSH4 0x88302884 PUSH1 0x2 SLOAD PUSH1 0x40 MLOAD DUP3 PUSH4 0xFFFFFFFF AND PUSH1 0xE0 SHL DUP2 MSTORE PUSH1 0x4 ADD PUSH2 0x2BB SWAP2 SWAP1 PUSH2 0x58D JUMP JUMPDEST PUSH2 0x200 PUSH1 0x40 MLOAD DUP1 DUP4 SUB DUP2 DUP7 GAS STATICCALL ISZERO DUP1 ISZERO PUSH2 0x2D9 JUMPI RETURNDATASIZE PUSH1 0x0 DUP1 RETURNDATACOPY RETURNDATASIZE PUSH1 0x0 REVERT JUMPDEST POP POP POP POP PUSH1 0x40 MLOAD RETURNDATASIZE PUSH1 0x1F NOT PUSH1 0x1F DUP3 ADD AND DUP3 ADD DUP1 PUSH1 0x40 MSTORE POP DUP2 ADD SWAP1 PUSH2 0x2FD SWAP2 SWAP1 PUSH2 0xDF5 JUMP JUMPDEST SWAP1 POP SWAP1 JUMP JUMPDEST PUSH1 0x0 DUP1 PUSH1 0x0 SWAP1 SLOAD SWAP1 PUSH2 0x100 EXP SWAP1 DIV PUSH20 0xFFFFFFFFFFFFFFFFFFFFFFFFFFFFFFFFFFFFFFFF AND PUSH20 0xFFFFFFFFFFFFFFFFFFFFFFFFFFFFFFFFFFFFFFFF AND PUSH4 0x8EA2F2AB PUSH1 0x2 SLOAD PUSH1 0x40 MLOAD DUP3 PUSH4 0xFFFFFFFF AND PUSH1 0xE0 SHL DUP2 MSTORE PUSH1 0x4 ADD PUSH2 0x360 SWAP2 SWAP1 PUSH2 0x58D JUMP JUMPDEST PUSH1 0x20 PUSH1 0x40 MLOAD DUP1 DUP4 SUB DUP2 PUSH1 0x0 DUP8 GAS CALL ISZERO DUP1 ISZERO PUSH2 0x37F JUMPI RETURNDATASIZE PUSH1 0x0 DUP1 RETURNDATACOPY RETURNDATASIZE PUSH1 0x0 REVERT JUMPDEST POP POP POP POP PUSH1 0x40 MLOAD RETURNDATASIZE PUSH1 0x1F NOT PUSH1 0x1F DUP3 ADD AND DUP3 ADD DUP1 PUSH1 0x40 MSTORE POP DUP2 ADD SWAP1 PUSH2 0x3A3 SWAP2 SWAP1 PUSH2 0xAD4 JUMP JUMPDEST SWAP1 POP SWAP1 JUMP JUMPDEST PUSH1 0x1 DUP1 SLOAD PUSH2 0x3B5 SWAP1 PUSH2 0x937 JUMP JUMPDEST DUP1 PUSH1 0x1F ADD PUSH1 0x20 DUP1 SWAP2 DIV MUL PUSH1 0x20 ADD PUSH1 0x40 MLOAD SWAP1 DUP2 ADD PUSH1 0x40 MSTORE DUP1 SWAP3 SWAP2 SWAP1 DUP2 DUP2 MSTORE PUSH1 0x20 ADD DUP3 DUP1 SLOAD PUSH2 0x3E1 SWAP1 PUSH2 0x937 JUMP JUMPDEST DUP1 ISZERO PUSH2 0x42E JUMPI DUP1 PUSH1 0x1F LT PUSH2 0x403 JUMPI PUSH2 0x100 DUP1 DUP4 SLOAD DIV MUL DUP4 MSTORE SWAP2 PUSH1 0x20 ADD SWAP2 PUSH2 0x42E JUMP JUMPDEST DUP3 ADD SWAP2 SWAP1 PUSH1 0x0 MSTORE PUSH1 0x20 PUSH1 0x0 KECCAK256 SWAP1 JUMPDEST DUP2 SLOAD DUP2 MSTORE SWAP1 PUSH1 0x1 ADD SWAP1 PUSH1 0x20 ADD DUP1 DUP4 GT PUSH2 0x411 JUMPI DUP3 SWAP1 SUB PUSH1 0x1F AND DUP3 ADD SWAP2 JUMPDEST POP POP POP POP POP DUP2 JUMP JUMPDEST PUSH1 0x40 MLOAD DUP1 PUSH2 0x180 ADD PUSH1 0x40 MSTORE DUP1 PUSH2 0x44A PUSH2 0x513 JUMP JUMPDEST DUP2 MSTORE PUSH1 0x20 ADD PUSH1 0x0 PUSH20 0xFFFFFFFFFFFFFFFFFFFFFFFFFFFFFFFFFFFFFFFF AND DUP2 MSTORE PUSH1 0x20 ADD PUSH1 0x0 PUSH8 0xFFFFFFFFFFFFFFFF AND DUP2 MSTORE PUSH1 0x20 ADD PUSH1 0x0 ISZERO ISZERO DUP2 MSTORE PUSH1 0x20 ADD PUSH1 0x0 PUSH20 0xFFFFFFFFFFFFFFFFFFFFFFFFFFFFFFFFFFFFFFFF AND DUP2 MSTORE PUSH1 0x20 ADD PUSH1 0x0 PUSH8 0xFFFFFFFFFFFFFFFF AND DUP2 MSTORE PUSH1 0x20 ADD PUSH1 0x0 ISZERO ISZERO DUP2 MSTORE PUSH1 0x20 ADD PUSH1 0x0 DUP1 NOT AND DUP2 MSTORE PUSH1 0x20 ADD PUSH1 0x0 DUP1 NOT AND DUP2 MSTORE PUSH1 0x20 ADD PUSH1 0x0 DUP2 MSTORE PUSH1 0x20 ADD PUSH1 0x0 PUSH20 0xFFFFFFFFFFFFFFFFFFFFFFFFFFFFFFFFFFFFFFFF AND DUP2 MSTORE PUSH1 0x20 ADD PUSH1 0x0 PUSH20 0xFFFFFFFFFFFFFFFFFFFFFFFFFFFFFFFFFFFFFFFF AND DUP2 MSTORE POP SWAP1 JUMP JUMPDEST PUSH1 0x40 MLOAD DUP1 PUSH1 0xA0 ADD PUSH1 0x40 MSTORE DUP1 PUSH1 0x0 ISZERO ISZERO DUP2 MSTORE PUSH1 0x20 ADD PUSH1 0x0 ISZERO ISZERO DUP2 MSTORE PUSH1 0x20 ADD PUSH1 0x0 ISZERO ISZERO DUP2 MSTORE PUSH1 0x20 ADD PUSH1 0x0 PUSH20 0xFFFFFFFFFFFFFFFFFFFFFFFFFFFFFFFFFFFFFFFF AND DUP2 MSTORE PUSH1 0x20 ADD PUSH1 0x0 PUSH20 0xFFFFFFFFFFFFFFFFFFFFFFFFFFFFFFFFFFFFFFFF AND DUP2 MSTORE POP SWAP1 JUMP JUMPDEST PUSH1 0x0 DUP2 SWAP1 POP SWAP2 SWAP1 POP JUMP JUMPDEST PUSH2 0x587 DUP2 PUSH2 0x574 JUMP JUMPDEST DUP3 MSTORE POP POP JUMP JUMPDEST PUSH1 0x0 PUSH1 0x20 DUP3 ADD SWAP1 POP PUSH2 0x5A2 PUSH1 0x0 DUP4 ADD DUP5 PUSH2 0x57E JUMP JUMPDEST SWAP3 SWAP2 POP POP JUMP JUMPDEST PUSH1 0x0 DUP2 ISZERO ISZERO SWAP1 POP SWAP2 SWAP1 POP JUMP JUMPDEST PUSH2 0x5BD DUP2 PUSH2 0x5A8 JUMP JUMPDEST DUP3 MSTORE POP POP JUMP JUMPDEST PUSH1 0x0 PUSH1 0x20 DUP3 ADD SWAP1 POP PUSH2 0x5D8 PUSH1 0x0 DUP4 ADD DUP5 PUSH2 0x5B4 JUMP JUMPDEST SWAP3 SWAP2 POP POP JUMP JUMPDEST PUSH2 0x5E7 DUP2 PUSH2 0x5A8 JUMP JUMPDEST DUP3 MSTORE POP POP JUMP JUMPDEST PUSH1 0x0 PUSH20 0xFFFFFFFFFFFFFFFFFFFFFFFFFFFFFFFFFFFFFFFF DUP3 AND SWAP1 POP SWAP2 SWAP1 POP JUMP JUMPDEST PUSH1 0x0 PUSH2 0x618 DUP3 PUSH2 0x5ED JUMP JUMPDEST SWAP1 POP SWAP2 SWAP1 POP JUMP JUMPDEST PUSH2 0x628 DUP2 PUSH2 0x60D JUMP JUMPDEST DUP3 MSTORE POP POP JUMP JUMPDEST PUSH1 0xA0 DUP3 ADD PUSH1 0x0 DUP3 ADD MLOAD PUSH2 0x644 PUSH1 0x0 DUP6 ADD DUP3 PUSH2 0x5DE JUMP JUMPDEST POP PUSH1 0x20 DUP3 ADD MLOAD PUSH2 0x657 PUSH1 0x20 DUP6 ADD DUP3 PUSH2 0x5DE JUMP JUMPDEST POP PUSH1 0x40 DUP3 ADD MLOAD PUSH2 0x66A PUSH1 0x40 DUP6 ADD DUP3 PUSH2 0x5DE JUMP JUMPDEST POP PUSH1 0x60 DUP3 ADD MLOAD PUSH2 0x67D PUSH1 0x60 DUP6 ADD DUP3 PUSH2 0x61F JUMP JUMPDEST POP PUSH1 0x80 DUP3 ADD MLOAD PUSH2 0x690 PUSH1 0x80 DUP6 ADD DUP3 PUSH2 0x61F JUMP JUMPDEST POP POP POP POP JUMP JUMPDEST PUSH1 0x0 PUSH8 0xFFFFFFFFFFFFFFFF DUP3 AND SWAP1 POP SWAP2 SWAP1 POP JUMP JUMPDEST PUSH2 0x6B3 DUP2 PUSH2 0x696 JUMP JUMPDEST DUP3 MSTORE POP POP JUMP JUMPDEST PUSH1 0x0 DUP2 SWAP1 POP SWAP2 SWAP1 POP JUMP JUMPDEST PUSH1 0x0 PUSH2 0x6DE PUSH2 0x6D9 PUSH2 0x6D4 DUP5 PUSH2 0x5ED JUMP JUMPDEST PUSH2 0x6B9 JUMP JUMPDEST PUSH2 0x5ED JUMP JUMPDEST SWAP1 POP SWAP2 SWAP1 POP JUMP JUMPDEST PUSH1 0x0 PUSH2 0x6F0 DUP3 PUSH2 0x6C3 JUMP JUMPDEST SWAP1 POP SWAP2 SWAP1 POP JUMP JUMPDEST PUSH1 0x0 PUSH2 0x702 DUP3 PUSH2 0x6E5 JUMP JUMPDEST SWAP1 POP SWAP2 SWAP1 POP JUMP JUMPDEST PUSH2 0x712 DUP2 PUSH2 0x6F7 JUMP JUMPDEST DUP3 MSTORE POP POP JUMP JUMPDEST PUSH2 0x721 DUP2 PUSH2 0x574 JUMP JUMPDEST DUP3 MSTORE POP POP JUMP JUMPDEST PUSH1 0x0 DUP2 SWAP1 POP SWAP2 SWAP1 POP JUMP JUMPDEST PUSH2 0x73A DUP2 PUSH2 0x727 JUMP JUMPDEST DUP3 MSTORE POP POP JUMP JUMPDEST PUSH2 0x200 DUP3 ADD PUSH1 0x0 DUP3 ADD MLOAD PUSH2 0x757 PUSH1 0x0 DUP6 ADD DUP3 PUSH2 0x62E JUMP JUMPDEST POP PUSH1 0x20 DUP3 ADD MLOAD PUSH2 0x76A PUSH1 0xA0 DUP6 ADD DUP3 PUSH2 0x61F JUMP JUMPDEST POP PUSH1 0x40 DUP3 ADD MLOAD PUSH2 0x77D PUSH1 0xC0 DUP6 ADD DUP3 PUSH2 0x6AA JUMP JUMPDEST POP PUSH1 0x60 DUP3 ADD MLOAD PUSH2 0x790 PUSH1 0xE0 DUP6 ADD DUP3 PUSH2 0x5DE JUMP JUMPDEST POP PUSH1 0x80 DUP3 ADD MLOAD PUSH2 0x7A4 PUSH2 0x100 DUP6 ADD DUP3 PUSH2 0x709 JUMP JUMPDEST POP PUSH1 0xA0 DUP3 ADD MLOAD PUSH2 0x7B8 PUSH2 0x120 DUP6 ADD DUP3 PUSH2 0x6AA JUMP JUMPDEST POP PUSH1 0xC0 DUP3 ADD MLOAD PUSH2 0x7CC PUSH2 0x140 DUP6 ADD DUP3 PUSH2 0x5DE JUMP JUMPDEST POP PUSH1 0xE0 DUP3 ADD MLOAD PUSH2 0x7E0 PUSH2 0x160 DUP6 ADD DUP3 PUSH2 0x718 JUMP JUMPDEST POP PUSH2 0x100 DUP3 ADD MLOAD PUSH2 0x7F5 PUSH2 0x180 DUP6 ADD DUP3 PUSH2 0x718 JUMP JUMPDEST POP PUSH2 0x120 DUP3 ADD MLOAD PUSH2 0x80A PUSH2 0x1A0 DUP6 ADD DUP3 PUSH2 0x731 JUMP JUMPDEST POP PUSH2 0x140 DUP3 ADD MLOAD PUSH2 0x81F PUSH2 0x1C0 DUP6 ADD DUP3 PUSH2 0x61F JUMP JUMPDEST POP PUSH2 0x160 DUP3 ADD MLOAD PUSH2 0x834 PUSH2 0x1E0 DUP6 ADD DUP3 PUSH2 0x61F JUMP JUMPDEST POP POP POP POP JUMP JUMPDEST PUSH1 0x0 PUSH2 0x200 DUP3 ADD SWAP1 POP PUSH2 0x850 PUSH1 0x0 DUP4 ADD DUP5 PUSH2 0x740 JUMP JUMPDEST SWAP3 SWAP2 POP POP JUMP JUMPDEST PUSH1 0x0 DUP2 MLOAD SWAP1 POP SWAP2 SWAP1 POP JUMP JUMPDEST PUSH1 0x0 DUP3 DUP3 MSTORE PUSH1 0x20 DUP3 ADD SWAP1 POP SWAP3 SWAP2 POP POP JUMP JUMPDEST PUSH1 0x0 JUMPDEST DUP4 DUP2 LT ISZERO PUSH2 0x890 JUMPI DUP1 DUP3 ADD MLOAD DUP2 DUP5 ADD MSTORE PUSH1 0x20 DUP2 ADD SWAP1 POP PUSH2 0x875 JUMP JUMPDEST PUSH1 0x0 DUP5 DUP5 ADD MSTORE POP POP POP POP JUMP JUMPDEST PUSH1 0x0 PUSH1 0x1F NOT PUSH1 0x1F DUP4 ADD AND SWAP1 POP SWAP2 SWAP1 POP JUMP JUMPDEST PUSH1 0x0 PUSH2 0x8B8 DUP3 PUSH2 0x856 JUMP JUMPDEST PUSH2 0x8C2 DUP2 DUP6 PUSH2 0x861 JUMP JUMPDEST SWAP4 POP PUSH2 0x8D2 DUP2 DUP6 PUSH1 0x20 DUP7 ADD PUSH2 0x872 JUMP JUMPDEST PUSH2 0x8DB DUP2 PUSH2 0x89C JUMP JUMPDEST DUP5 ADD SWAP2 POP POP SWAP3 SWAP2 POP POP JUMP JUMPDEST PUSH1 0x0 PUSH1 0x20 DUP3 ADD SWAP1 POP DUP2 DUP2 SUB PUSH1 0x0 DUP4 ADD MSTORE PUSH2 0x900 DUP2 DUP5 PUSH2 0x8AD JUMP JUMPDEST SWAP1 POP SWAP3 SWAP2 POP POP JUMP JUMPDEST PUSH32 0x4E487B7100000000000000000000000000000000000000000000000000000000 PUSH1 0x0 MSTORE PUSH1 0x22 PUSH1 0x4 MSTORE PUSH1 0x24 PUSH1 0x0 REVERT JUMPDEST PUSH1 0x0 PUSH1 0x2 DUP3 DIV SWAP1 POP PUSH1 0x1 DUP3 AND DUP1 PUSH2 0x94F JUMPI PUSH1 0x7F DUP3 AND SWAP2 POP JUMPDEST PUSH1 0x20 DUP3 LT DUP2 SUB PUSH2 0x962 JUMPI PUSH2 0x961 PUSH2 0x908 JUMP JUMPDEST JUMPDEST POP SWAP2 SWAP1 POP JUMP JUMPDEST PUSH1 0x0 DUP2 SWAP1 POP DUP2 PUSH1 0x0 MSTORE PUSH1 0x20 PUSH1 0x0 KECCAK256 SWAP1 POP SWAP2 SWAP1 POP JUMP JUMPDEST PUSH1 0x0 DUP2 SLOAD PUSH2 0x98A DUP2 PUSH2 0x937 JUMP JUMPDEST PUSH2 0x994 DUP2 DUP7 PUSH2 0x861 JUMP JUMPDEST SWAP5 POP PUSH1 0x1 DUP3 AND PUSH1 0x0 DUP2 EQ PUSH2 0x9AF JUMPI PUSH1 0x1 DUP2 EQ PUSH2 0x9C5 JUMPI PUSH2 0x9F8 JUMP JUMPDEST PUSH1 0xFF NOT DUP4 AND DUP7 MSTORE DUP2 ISZERO ISZERO PUSH1 0x20 MUL DUP7 ADD SWAP4 POP PUSH2 0x9F8 JUMP JUMPDEST PUSH2 0x9CE DUP6 PUSH2 0x968 JUMP JUMPDEST PUSH1 0x0 JUMPDEST DUP4 DUP2 LT ISZERO PUSH2 0x9F0 JUMPI DUP2 SLOAD DUP2 DUP10 ADD MSTORE PUSH1 0x1 DUP3 ADD SWAP2 POP PUSH1 0x20 DUP2 ADD SWAP1 POP PUSH2 0x9D1 JUMP JUMPDEST DUP1 DUP9 ADD SWAP6 POP POP POP JUMPDEST POP POP POP SWAP3 SWAP2 POP POP JUMP JUMPDEST PUSH2 0xA0A DUP2 PUSH2 0x60D JUMP JUMPDEST DUP3 MSTORE POP POP JUMP JUMPDEST PUSH1 0x0 PUSH1 0x40 DUP3 ADD SWAP1 POP DUP2 DUP2 SUB PUSH1 0x0 DUP4 ADD MSTORE PUSH2 0xA2A DUP2 DUP6 PUSH2 0x97D JUMP JUMPDEST SWAP1 POP PUSH2 0xA39 PUSH1 0x20 DUP4 ADD DUP5 PUSH2 0xA01 JUMP JUMPDEST SWAP4 SWAP3 POP POP POP JUMP JUMPDEST PUSH1 0x0 PUSH1 0x40 MLOAD SWAP1 POP SWAP1 JUMP JUMPDEST PUSH1 0x0 DUP1 REVERT JUMPDEST PUSH2 0xA58 DUP2 PUSH2 0x574 JUMP JUMPDEST DUP2 EQ PUSH2 0xA63 JUMPI PUSH1 0x0 DUP1 REVERT JUMPDEST POP JUMP JUMPDEST PUSH1 0x0 DUP2 MLOAD SWAP1 POP PUSH2 0xA75 DUP2 PUSH2 0xA4F JUMP JUMPDEST SWAP3 SWAP2 POP POP JUMP JUMPDEST PUSH1 0x0 PUSH1 0x20 DUP3 DUP5 SUB SLT ISZERO PUSH2 0xA91 JUMPI PUSH2 0xA90 PUSH2 0xA4A JUMP JUMPDEST JUMPDEST PUSH1 0x0 PUSH2 0xA9F DUP5 DUP3 DUP6 ADD PUSH2 0xA66 JUMP JUMPDEST SWAP2 POP POP SWAP3 SWAP2 POP POP JUMP JUMPDEST PUSH2 0xAB1 DUP2 PUSH2 0x5A8 JUMP JUMPDEST DUP2 EQ PUSH2 0xABC JUMPI PUSH1 0x0 DUP1 REVERT JUMPDEST POP JUMP JUMPDEST PUSH1 0x0 DUP2 MLOAD SWAP1 POP PUSH2 0xACE DUP2 PUSH2 0xAA8 JUMP JUMPDEST SWAP3 SWAP2 POP POP JUMP JUMPDEST PUSH1 0x0 PUSH1 0x20 DUP3 DUP5 SUB SLT ISZERO PUSH2 0xAEA JUMPI PUSH2 0xAE9 PUSH2 0xA4A JUMP JUMPDEST JUMPDEST PUSH1 0x0 PUSH2 0xAF8 DUP5 DUP3 DUP6 ADD PUSH2 0xABF JUMP JUMPDEST SWAP2 POP POP SWAP3 SWAP2 POP POP JUMP JUMPDEST PUSH1 0x0 DUP1 REVERT JUMPDEST PUSH32 0x4E487B7100000000000000000000000000000000000000000000000000000000 PUSH1 0x0 MSTORE PUSH1 0x41 PUSH1 0x4 MSTORE PUSH1 0x24 PUSH1 0x0 REVERT JUMPDEST PUSH2 0xB3E DUP3 PUSH2 0x89C JUMP JUMPDEST DUP2 ADD DUP2 DUP2 LT PUSH8 0xFFFFFFFFFFFFFFFF DUP3 GT OR ISZERO PUSH2 0xB5D JUMPI PUSH2 0xB5C PUSH2 0xB06 JUMP JUMPDEST JUMPDEST DUP1 PUSH1 0x40 MSTORE POP POP POP JUMP JUMPDEST PUSH1 0x0 PUSH2 0xB70 PUSH2 0xA40 JUMP JUMPDEST SWAP1 POP PUSH2 0xB7C DUP3 DUP3 PUSH2 0xB35 JUMP JUMPDEST SWAP2 SWAP1 POP JUMP JUMPDEST PUSH2 0xB8A DUP2 PUSH2 0x60D JUMP JUMPDEST DUP2 EQ PUSH2 0xB95 JUMPI PUSH1 0x0 DUP1 REVERT JUMPDEST POP JUMP JUMPDEST PUSH1 0x0 DUP2 MLOAD SWAP1 POP PUSH2 0xBA7 DUP2 PUSH2 0xB81 JUMP JUMPDEST SWAP3 SWAP2 POP POP JUMP JUMPDEST PUSH1 0x0 PUSH1 0xA0 DUP3 DUP5 SUB SLT ISZERO PUSH2 0xBC3 JUMPI PUSH2 0xBC2 PUSH2 0xB01 JUMP JUMPDEST JUMPDEST PUSH2 0xBCD PUSH1 0xA0 PUSH2 0xB66 JUMP JUMPDEST SWAP1 POP PUSH1 0x0 PUSH2 0xBDD DUP5 DUP3 DUP6 ADD PUSH2 0xABF JUMP JUMPDEST PUSH1 0x0 DUP4 ADD MSTORE POP PUSH1 0x20 PUSH2 0xBF1 DUP5 DUP3 DUP6 ADD PUSH2 0xABF JUMP JUMPDEST PUSH1 0x20 DUP4 ADD MSTORE POP PUSH1 0x40 PUSH2 0xC05 DUP5 DUP3 DUP6 ADD PUSH2 0xABF JUMP JUMPDEST PUSH1 0x40 DUP4 ADD MSTORE POP PUSH1 0x60 PUSH2 0xC19 DUP5 DUP3 DUP6 ADD PUSH2 0xB98 JUMP JUMPDEST PUSH1 0x60 DUP4 ADD MSTORE POP PUSH1 0x80 PUSH2 0xC2D DUP5 DUP3 DUP6 ADD PUSH2 0xB98 JUMP JUMPDEST PUSH1 0x80 DUP4 ADD MSTORE POP SWAP3 SWAP2 POP POP JUMP JUMPDEST PUSH2 0xC42 DUP2 PUSH2 0x696 JUMP JUMPDEST DUP2 EQ PUSH2 0xC4D JUMPI PUSH1 0x0 DUP1 REVERT JUMPDEST POP JUMP JUMPDEST PUSH1 0x0 DUP2 MLOAD SWAP1 POP PUSH2 0xC5F DUP2 PUSH2 0xC39 JUMP JUMPDEST SWAP3 SWAP2 POP POP JUMP JUMPDEST PUSH1 0x0 PUSH2 0xC70 DUP3 PUSH2 0x60D JUMP JUMPDEST SWAP1 POP SWAP2 SWAP1 POP JUMP JUMPDEST PUSH2 0xC80 DUP2 PUSH2 0xC65 JUMP JUMPDEST DUP2 EQ PUSH2 0xC8B JUMPI PUSH1 0x0 DUP1 REVERT JUMPDEST POP JUMP JUMPDEST PUSH1 0x0 DUP2 MLOAD SWAP1 POP PUSH2 0xC9D DUP2 PUSH2 0xC77 JUMP JUMPDEST SWAP3 SWAP2 POP POP JUMP JUMPDEST PUSH2 0xCAC DUP2 PUSH2 0x727 JUMP JUMPDEST DUP2 EQ PUSH2 0xCB7 JUMPI PUSH1 0x0 DUP1 REVERT JUMPDEST POP JUMP JUMPDEST PUSH1 0x0 DUP2 MLOAD SWAP1 POP PUSH2 0xCC9 DUP2 PUSH2 0xCA3 JUMP JUMPDEST SWAP3 SWAP2 POP POP JUMP JUMPDEST PUSH1 0x0 PUSH2 0x200 DUP3 DUP5 SUB SLT ISZERO PUSH2 0xCE6 JUMPI PUSH2 0xCE5 PUSH2 0xB01 JUMP JUMPDEST JUMPDEST PUSH2 0xCF1 PUSH2 0x180 PUSH2 0xB66 JUMP JUMPDEST SWAP1 POP PUSH1 0x0 PUSH2 0xD01 DUP5 DUP3 DUP6 ADD PUSH2 0xBAD JUMP JUMPDEST PUSH1 0x0 DUP4 ADD MSTORE POP PUSH1 0xA0 PUSH2 0xD15 DUP5 DUP3 DUP6 ADD PUSH2 0xB98 JUMP JUMPDEST PUSH1 0x20 DUP4 ADD MSTORE POP PUSH1 0xC0 PUSH2 0xD29 DUP5 DUP3 DUP6 ADD PUSH2 0xC50 JUMP JUMPDEST PUSH1 0x40 DUP4 ADD MSTORE POP PUSH1 0xE0 PUSH2 0xD3D DUP5 DUP3 DUP6 ADD PUSH2 0xABF JUMP JUMPDEST PUSH1 0x60 DUP4 ADD MSTORE POP PUSH2 0x100 PUSH2 0xD52 DUP5 DUP3 DUP6 ADD PUSH2 0xC8E JUMP JUMPDEST PUSH1 0x80 DUP4 ADD MSTORE POP PUSH2 0x120 PUSH2 0xD67 DUP5 DUP3 DUP6 ADD PUSH2 0xC50 JUMP JUMPDEST PUSH1 0xA0 DUP4 ADD MSTORE POP PUSH2 0x140 PUSH2 0xD7C DUP5 DUP3 DUP6 ADD PUSH2 0xABF JUMP JUMPDEST PUSH1 0xC0 DUP4 ADD MSTORE POP PUSH2 0x160 PUSH2 0xD91 DUP5 DUP3 DUP6 ADD PUSH2 0xA66 JUMP JUMPDEST PUSH1 0xE0 DUP4 ADD MSTORE POP PUSH2 0x180 PUSH2 0xDA6 DUP5 DUP3 DUP6 ADD PUSH2 0xA66 JUMP JUMPDEST PUSH2 0x100 DUP4 ADD MSTORE POP PUSH2 0x1A0 PUSH2 0xDBC DUP5 DUP3 DUP6 ADD PUSH2 0xCBA JUMP JUMPDEST PUSH2 0x120 DUP4 ADD MSTORE POP PUSH2 0x1C0 PUSH2 0xDD2 DUP5 DUP3 DUP6 ADD PUSH2 0xB98 JUMP JUMPDEST PUSH2 0x140 DUP4 ADD MSTORE POP PUSH2 0x1E0 PUSH2 0xDE8 DUP5 DUP3 DUP6 ADD PUSH2 0xB98 JUMP JUMPDEST PUSH2 0x160 DUP4 ADD MSTORE POP SWAP3 SWAP2 POP POP JUMP JUMPDEST PUSH1 0x0 PUSH2 0x200 DUP3 DUP5 SUB SLT ISZERO PUSH2 0xE0C JUMPI PUSH2 0xE0B PUSH2 0xA4A JUMP JUMPDEST JUMPDEST PUSH1 0x0 PUSH2 0xE1A DUP5 DUP3 DUP6 ADD PUSH2 0xCCF JUMP JUMPDEST SWAP2 POP POP SWAP3 SWAP2 POP POP JUMP INVALID LOG2 PUSH5 0x6970667358 0x22 SLT KECCAK256 PUSH16 0xE1BDCBE2DC36B4596B82D97B748C7CA1 DELEGATECALL PUSH19 0x35DBBA771A7161CE78439EA67364736F6C6343 STOP ADDMOD LT STOP CALLER "
				},
				"gasEstimates": {
					"creation": {
						"codeDepositCost": "734600",
						"executionCost": "infinite",
						"totalCost": "infinite"
					},
					"external": {
						"assertTruth()": "infinite",
						"assertedClaim()": "infinite",
						"assertionId()": "2407",
						"getAssertion()": "infinite",
						"getAssertionResult()": "infinite",
						"settleAndGetAssertionResult()": "infinite"
					}
				},
				"methodIdentifiers": {
					"assertTruth()": "3421390b",
					"assertedClaim()": "c1a8ec2c",
					"assertionId()": "0d80da74",
					"getAssertion()": "9a3ddabc",
					"getAssertionResult()": "7facaf3f",
					"settleAndGetAssertionResult()": "bc1dbc52"
				}
			},
			"storageLayout": {
				"storage": [
					{
						"astId": 86,
						"contract": "gist-17a8a29b2f8ae432e8bac0b88cff8bb1/OOV3_GettingStarted.sol:OOV3_GettingStarted",
						"label": "oov3",
						"offset": 0,
						"slot": "0",
						"type": "t_contract(OptimisticOracleV3Interface)334"
					},
					{
						"astId": 92,
						"contract": "gist-17a8a29b2f8ae432e8bac0b88cff8bb1/OOV3_GettingStarted.sol:OOV3_GettingStarted",
						"label": "assertedClaim",
						"offset": 0,
						"slot": "1",
						"type": "t_bytes_storage"
					},
					{
						"astId": 94,
						"contract": "gist-17a8a29b2f8ae432e8bac0b88cff8bb1/OOV3_GettingStarted.sol:OOV3_GettingStarted",
						"label": "assertionId",
						"offset": 0,
						"slot": "2",
						"type": "t_bytes32"
					}
				],
				"types": {
					"t_bytes32": {
						"encoding": "inplace",
						"label": "bytes32",
						"numberOfBytes": "32"
					},
					"t_bytes_storage": {
						"encoding": "bytes",
						"label": "bytes",
						"numberOfBytes": "32"
					},
					"t_contract(OptimisticOracleV3Interface)334": {
						"encoding": "inplace",
						"label": "contract OptimisticOracleV3Interface",
						"numberOfBytes": "20"
					}
				}
			},
			"userdoc": {
				"kind": "user",
				"methods": {},
				"version": 1
			}
		}
	}
}